{
  "abi": [
    {
      "constant": false,
      "inputs": [
        {
          "name": "_grantees",
          "type": "address[]"
        },
        {
          "name": "_amounts",
          "type": "uint256[]"
        },
        {
          "name": "_manager",
          "type": "address"
        },
        {
          "name": "_currency",
          "type": "address"
        },
        {
          "name": "_targetFunding",
          "type": "uint256"
        },
        {
          "name": "_fundingExpiration",
          "type": "uint256"
        },
        {
          "name": "_contractExpiration",
          "type": "uint256"
        },
        {
          "name": "_extraData",
          "type": "bytes"
        }
      ],
      "name": "create",
      "outputs": [
        {
          "name": "",
          "type": "uint256"
        }
      ],
      "payable": false,
      "stateMutability": "nonpayable",
      "type": "function"
    },
    {
      "anonymous": false,
      "inputs": [
        {
          "indexed": true,
          "name": "id",
          "type": "uint256"
        },
        {
          "indexed": false,
          "name": "grant",
          "type": "address"
        }
      ],
      "name": "LogNewGrant",
      "type": "event"
    }
  ],
  "evm": {
    "bytecode": {
      "linkReferences": {},
      "object": "608060405234801561001057600080fd5b50614f48806100206000396000f3fe60806040523480156200001157600080fd5b50600436106200004b576000357c010000000000000000000000000000000000000000000000000000000090048063e89d6df01462000050575b600080fd5b6200006e6004803603620000689190810190620003a1565b62000086565b6040516200007d919062000707565b60405180910390f35b600080898989898989896040516200009e90620001ef565b620000b097969594939291906200065a565b604051809103906000f080158015620000cd573d6000803e3d6000fd5b5090506000805490506000829050806001600084815260200190815260200160002060006101000a81548173ffffffffffffffffffffffffffffffffffffffff021916908373ffffffffffffffffffffffffffffffffffffffff1602179055506200014560016000546200019790919063ffffffff16565b600081905550817fb7cda1280cf8e023666550e9bee149553f3b7fd3683a465808ddf831f6cfdd5d826040516200017d91906200063d565b60405180910390a281935050505098975050505050505050565b600080828401905083811015620001e5576040517f08c379a0000000000000000000000000000000000000000000000000000000008152600401620001dc90620006e5565b60405180910390fd5b8091505092915050565b61463080620008d683390190565b6000813590506200020e81620008a1565b92915050565b600082601f8301126200022657600080fd5b81356200023d620002378262000752565b62000724565b915081818352602084019350602081019050838560208402820111156200026357600080fd5b60005b838110156200029757816200027c8882620001fd565b84526020840193506020830192505060018101905062000266565b5050505092915050565b600082601f830112620002b357600080fd5b8135620002ca620002c4826200077b565b62000724565b91508181835260208401935060208101905083856020840282011115620002f057600080fd5b60005b838110156200032457816200030988826200038a565b845260208401935060208301925050600181019050620002f3565b5050505092915050565b600082601f8301126200034057600080fd5b8135620003576200035182620007a4565b62000724565b915080825260208301602083018583830111156200037457600080fd5b6200038183828462000892565b50505092915050565b6000813590506200039b81620008bb565b92915050565b600080600080600080600080610100898b031215620003bf57600080fd5b600089013567ffffffffffffffff811115620003da57600080fd5b620003e88b828c0162000214565b985050602089013567ffffffffffffffff8111156200040657600080fd5b620004148b828c01620002a1565b9750506040620004278b828c01620001fd565b96505060606200043a8b828c01620001fd565b95505060806200044d8b828c016200038a565b94505060a0620004608b828c016200038a565b93505060c0620004738b828c016200038a565b92505060e089013567ffffffffffffffff8111156200049157600080fd5b6200049f8b828c016200032e565b9150509295985092959890939650565b6000620004bd8383620004e3565b60208301905092915050565b6000620004d783836200061b565b60208301905092915050565b620004ee8162000854565b82525050565b620004ff8162000854565b82525050565b60006200051282620007f1565b6200051e818562000821565b93506200052b83620007d1565b8060005b8381101562000562578151620005468882620004af565b9750620005538362000807565b9250506001810190506200052f565b5085935050505092915050565b60006200057c82620007fc565b62000588818562000832565b93506200059583620007e1565b8060005b83811015620005cc578151620005b08882620004c9565b9750620005bd8362000814565b92505060018101905062000599565b5085935050505092915050565b6000620005e8601b8362000843565b91507f536166654d6174683a206164646974696f6e206f766572666c6f7700000000006000830152602082019050919050565b620006268162000888565b82525050565b620006378162000888565b82525050565b6000602082019050620006546000830184620004f4565b92915050565b600060e082019050818103600083015262000676818a62000505565b905081810360208301526200068c81896200056f565b90506200069d6040830188620004f4565b620006ac6060830187620004f4565b620006bb60808301866200062c565b620006ca60a08301856200062c565b620006d960c08301846200062c565b98975050505050505050565b600060208201905081810360008301526200070081620005d9565b9050919050565b60006020820190506200071e60008301846200062c565b92915050565b6000604051905081810181811067ffffffffffffffff821117156200074857600080fd5b8060405250919050565b600067ffffffffffffffff8211156200076a57600080fd5b602082029050602081019050919050565b600067ffffffffffffffff8211156200079357600080fd5b602082029050602081019050919050565b600067ffffffffffffffff821115620007bc57600080fd5b601f19601f8301169050602081019050919050565b6000819050602082019050919050565b6000819050602082019050919050565b600081519050919050565b600081519050919050565b6000602082019050919050565b6000602082019050919050565b600082825260208201905092915050565b600082825260208201905092915050565b600082825260208201905092915050565b6000620008618262000868565b9050919050565b600073ffffffffffffffffffffffffffffffffffffffff82169050919050565b6000819050919050565b82818337600083830152505050565b620008ac8162000854565b8114620008b857600080fd5b50565b620008c68162000888565b8114620008d257600080fd5b5056fe6080604052670de0b6b3a7640000600e553480156200001d57600080fd5b506040516200463038038062004630833981810160405262000043919081019062000648565b6001600d8190555060008214806200005a57508082105b6200009c576040517f08c379a0000000000000000000000000000000000000000000000000000000008152600401620000939062000c85565b60405180910390fd5b6000821480620000ab57504282115b620000ed576040517f08c379a0000000000000000000000000000000000000000000000000000000008152600401620000e49062000cc9565b60405180910390fd5b6000811480620000fc57504281115b6200013e576040517f08c379a0000000000000000000000000000000000000000000000000000000008152600401620001359062000d51565b60405180910390fd5b600087511162000185576040517f08c379a00000000000000000000000000000000000000000000000000000000081526004016200017c9062000c63565b60405180910390fd5b8551875114620001cc576040517f08c379a0000000000000000000000000000000000000000000000000000000008152600401620001c39062000d0d565b60405180910390fd5b846000806101000a81548173ffffffffffffffffffffffffffffffffffffffff021916908373ffffffffffffffffffffffffffffffffffffffff16021790555083600160006101000a81548173ffffffffffffffffffffffffffffffffffffffff021916908373ffffffffffffffffffffffffffffffffffffffff1602179055508260028190555081600781905550806008819055506000806000905060008090505b8951811015620004535760008a82815181106200028857fe5b6020026020010151905060008a8381518110620002a157fe5b6020026020010151905060008111620002f1576040517f08c379a0000000000000000000000000000000000000000000000000000000008152600401620002e89062000d2f565b60405180910390fd5b8373ffffffffffffffffffffffffffffffffffffffff168273ffffffffffffffffffffffffffffffffffffffff161162000362576040517f08c379a0000000000000000000000000000000000000000000000000000000008152600401620003599062000d73565b60405180910390fd5b8973ffffffffffffffffffffffffffffffffffffffff168273ffffffffffffffffffffffffffffffffffffffff161415620003d4576040517f08c379a0000000000000000000000000000000000000000000000000000000008152600401620003cb9062000ca7565b60405180910390fd5b620003f78186620004a86401000000000262001dce179091906401000000009004565b945081935080600b60008473ffffffffffffffffffffffffffffffffffffffff1673ffffffffffffffffffffffffffffffffffffffff16815260200190815260200160002060000181905550505080806001019150506200026f565b5084821462000499576040517f08c379a0000000000000000000000000000000000000000000000000000000008152600401620004909062000ceb565b60405180910390fd5b50505050505050505062000e98565b600080828401905083811015620004f6576040517f08c379a0000000000000000000000000000000000000000000000000000000008152600401620004ed9062000c41565b60405180910390fd5b8091505092915050565b600081519050620005118162000e64565b92915050565b600082601f8301126200052957600080fd5b8151620005406200053a8262000dc3565b62000d95565b915081818352602084019350602081019050838560208402820111156200056657600080fd5b60005b838110156200059a57816200057f888262000500565b84526020840193506020830192505060018101905062000569565b5050505092915050565b600082601f830112620005b657600080fd5b8151620005cd620005c78262000dec565b62000d95565b91508181835260208401935060208101905083856020840282011115620005f357600080fd5b60005b838110156200062757816200060c888262000631565b845260208401935060208301925050600181019050620005f6565b5050505092915050565b600081519050620006428162000e7e565b92915050565b600080600080600080600060e0888a0312156200066457600080fd5b600088015167ffffffffffffffff8111156200067f57600080fd5b6200068d8a828b0162000517565b975050602088015167ffffffffffffffff811115620006ab57600080fd5b620006b98a828b01620005a4565b9650506040620006cc8a828b0162000500565b9550506060620006df8a828b0162000500565b9450506080620006f28a828b0162000631565b93505060a0620007058a828b0162000631565b92505060c0620007188a828b0162000631565b91505092959891949750929550565b600062000736601b8362000e15565b91507f536166654d6174683a206164646974696f6e206f766572666c6f7700000000006000830152602082019050919050565b600062000778603e8362000e15565b91507f636f6e7374727563746f723a3a496e76616c696420417267756d656e742e204d60008301527f7573742068617665206f6e65206f72206d6f7265206772616e746565732e00006020830152604082019050919050565b6000620007e0605d8362000e15565b91507f636f6e7374727563746f723a3a496e76616c696420417267756d656e742e205f60008301527f66756e64696e6745787069726174696f6e206d7573742062652030206f72206c60208301527f657373207468616e205f636f6e747261637445787069726174696f6e2e0000006040830152606082019050919050565b60006200086e603c8362000e15565b91507f636f6e7374727563746f723a3a496e76616c696420417267756d656e742e205f60008301527f6d616e616765722063616e6e6f742062652061204772616e7465652e000000006020830152604082019050919050565b6000620008d660598362000e15565b91507f636f6e7374727563746f723a3a496e76616c696420417267756d656e742e205f60008301527f66756e64696e6745787069726174696f6e206d7573742062652030206f72206760208301527f726561746572207468616e2063757272656e7420646174652e000000000000006040830152606082019050919050565b600062000964605d8362000e15565b91507f636f6e7374727563746f723a3a496e76616c696420417267756d656e742e205f60008301527f74617267657446756e64696e67206d75737420657175616c207468652073756d60208301527f206f662076616c75657320696e205f616d6f756e74732061727261792e0000006040830152606082019050919050565b6000620009f260558362000e15565b91507f636f6e7374727563746f723a3a496e76616c696420417267756d656e742e205f60008301527f6772616e7465657320616e64205f616d6f756e747320617272617973206d757360208301527f74206265206f6620657175616c206c656e6774682e00000000000000000000006040830152606082019050919050565b600062000a80605b8362000e15565b91507f636f6e7374727563746f723a3a496e76616c696420417267756d656e742e204760008301527f72616e746565277320616c6c6f636174696f6e202863757272656e74416d6f7560208301527f6e7429206d7573742062652067726561746572207468616e20302e00000000006040830152606082019050919050565b600062000b0e605a8362000e15565b91507f636f6e7374727563746f723a3a496e76616c696420417267756d656e742e205f60008301527f636f6e747261637445787069726174696f6e206d7573742062652030206f722060208301527f67726561746572207468616e2063757272656e7420646174652e0000000000006040830152606082019050919050565b600062000b9c606d8362000e15565b91507f636f6e7374727563746f723a3a496e76616c696420417267756d656e742e204760008301527f72616e74656527732061646472657373206172726179206d757374206265206460208301527f75706c6963617465206672656520616e6420736f7274656420736d616c6c657360408301527f7420746f206c6172676573742e000000000000000000000000000000000000006060830152608082019050919050565b6000602082019050818103600083015262000c5c8162000727565b9050919050565b6000602082019050818103600083015262000c7e8162000769565b9050919050565b6000602082019050818103600083015262000ca081620007d1565b9050919050565b6000602082019050818103600083015262000cc2816200085f565b9050919050565b6000602082019050818103600083015262000ce481620008c7565b9050919050565b6000602082019050818103600083015262000d068162000955565b9050919050565b6000602082019050818103600083015262000d2881620009e3565b9050919050565b6000602082019050818103600083015262000d4a8162000a71565b9050919050565b6000602082019050818103600083015262000d6c8162000aff565b9050919050565b6000602082019050818103600083015262000d8e8162000b8d565b9050919050565b6000604051905081810181811067ffffffffffffffff8211171562000db957600080fd5b8060405250919050565b600067ffffffffffffffff82111562000ddb57600080fd5b602082029050602081019050919050565b600067ffffffffffffffff82111562000e0457600080fd5b602082029050602081019050919050565b600082825260208201905092915050565b600062000e338262000e3a565b9050919050565b600073ffffffffffffffffffffffffffffffffffffffff82169050919050565b6000819050919050565b62000e6f8162000e26565b811462000e7b57600080fd5b50565b62000e898162000e5a565b811462000e9557600080fd5b50565b6137888062000ea86000396000f3fe608060405260043610610183576000357c010000000000000000000000000000000000000000000000000000000090048063842cf62f116100ee578063d2ef575e116100a7578063f3ae241511610081578063f3ae241514610584578063f4d42453146105c1578063f91c9504146105ec578063fe47a8a71461061757610183565b8063d2ef575e146104fe578063d90829621461052e578063e5a6b10f1461055957610183565b8063842cf62f146103c7578063a16c86f7146103f0578063a814001f1461042d578063bc57910314610458578063ca0cdea814610483578063ca1d209d146104c157610183565b80634a8eb32f116101405780634a8eb32f146102c557806356039d6e146102f0578063589596b71461031b5780636491768f1461035a5780636f9fb98a14610371578063809dab6a1461039c57610183565b8063161d07701461018f57806316fecbb2146101cc5780632bc3d7aa146101f75780632f3be79014610234578063348a71a614610271578063481c6a751461029a575b61018c34610642565b50005b34801561019b57600080fd5b506101b660048036036101b1919081019061221f565b610943565b6040516101c391906131fb565b60405180910390f35b3480156101d857600080fd5b506101e1610d72565b6040516101ee91906135f6565b60405180910390f35b34801561020357600080fd5b5061021e600480360361021991908101906121f6565b610d78565b60405161022b91906131fb565b60405180910390f35b34801561024057600080fd5b5061025b600480360361025691908101906121f6565b610dc6565b60405161026891906131fb565b60405180910390f35b34801561027d57600080fd5b5061029860048036036102939190810190612284565b610e14565b005b3480156102a657600080fd5b506102af610eff565b6040516102bc9190613157565b60405180910390f35b3480156102d157600080fd5b506102da610f24565b6040516102e791906135f6565b60405180910390f35b3480156102fc57600080fd5b50610305610f2a565b60405161031291906131fb565b60405180910390f35b34801561032757600080fd5b50610342600480360361033d91908101906121f6565b610f3d565b6040516103519392919061363a565b60405180910390f35b34801561036657600080fd5b5061036f610f67565b005b34801561037d57600080fd5b5061038661108d565b60405161039391906135f6565b60405180910390f35b3480156103a857600080fd5b506103b16110bf565b6040516103be91906135f6565b60405180910390f35b3480156103d357600080fd5b506103ee60048036036103e9919081019061221f565b611105565b005b3480156103fc57600080fd5b50610417600480360361041291908101906121f6565b61141e565b60405161042491906131fb565b60405180910390f35b34801561043957600080fd5b506104426118c3565b60405161044f91906135f6565b60405180910390f35b34801561046457600080fd5b5061046d6118c9565b60405161047a91906135f6565b60405180910390f35b34801561048f57600080fd5b506104aa60048036036104a591908101906121f6565b6118cf565b6040516104b8929190613611565b60405180910390f35b3480156104cd57600080fd5b506104e860048036036104e39190810190612284565b610642565b6040516104f591906131fb565b60405180910390f35b61051860048036036105139190810190612284565b6118f3565b60405161052591906131fb565b60405180910390f35b34801561053a57600080fd5b50610543611d37565b60405161055091906135f6565b60405180910390f35b34801561056557600080fd5b5061056e611d3d565b60405161057b9190613157565b60405180910390f35b34801561059057600080fd5b506105ab60048036036105a691908101906121f6565b611d63565b6040516105b891906131fb565b60405180910390f35b3480156105cd57600080fd5b506105d6611dbc565b6040516105e391906135f6565b60405180910390f35b3480156105f857600080fd5b50610601611dc2565b60405161060e91906135f6565b60405180910390f35b34801561062357600080fd5b5061062c611dc8565b60405161063991906135f6565b60405180910390f35b60006001600d600082825401925050819055506000600d549050600254600354106106a2576040517f08c379a000000000000000000000000000000000000000000000000000000000815260040161069990613416565b60405180910390fd5b600060075414806106b4575042600754115b6106f3576040517f08c379a00000000000000000000000000000000000000000000000000000000081526004016106ea906135b6565b60405180910390fd5b600061070a84600354611dce90919063ffffffff16565b905060006002548211156107355761072d60025483611e2390919063ffffffff16565b905060025491505b61079c8161078e87600c60003373ffffffffffffffffffffffffffffffffffffffff1673ffffffffffffffffffffffffffffffffffffffff16815260200190815260200160002060000154611dce90919063ffffffff16565b611e2390919063ffffffff16565b600c60003373ffffffffffffffffffffffffffffffffffffffff1673ffffffffffffffffffffffffffffffffffffffff1681526020019081526020016000206000018190555081600381905550600073ffffffffffffffffffffffffffffffffffffffff16600160009054906101000a900473ffffffffffffffffffffffffffffffffffffffff1673ffffffffffffffffffffffffffffffffffffffff16141561084f5761084a8582611e79565b61085a565b6108598582611f80565b5b3373ffffffffffffffffffffffffffffffffffffffff167f9f1a5e1a5d3381f9af1a62f8d61e4ae71444e28af488786cb10c8b2b457632ae6108a58388611e2390919063ffffffff16565b6040516108b291906135f6565b60405180910390a260025460035414156108f3577f512829c8dab135587881316e27c9e1cd524033b3daf7ae881d2c801943ea938160405160405180910390a15b600193505050600d54811461093d576040517f08c379a000000000000000000000000000000000000000000000000000000000815260040161093490613576565b60405180910390fd5b50919050565b60006001600d600082825401925050819055506000600d54905082600b60008673ffffffffffffffffffffffffffffffffffffffff1673ffffffffffffffffffffffffffffffffffffffff16815260200190815260200160002060020154146109e1576040517f08c379a00000000000000000000000000000000000000000000000000000000081526004016109d890613236565b60405180910390fd5b6109f683600454611dce90919063ffffffff16565b600481905550610a1183600654611e2390919063ffffffff16565b6006819055506000600b60008673ffffffffffffffffffffffffffffffffffffffff1673ffffffffffffffffffffffffffffffffffffffff16815260200190815260200160002060020181905550610ab483600b60008773ffffffffffffffffffffffffffffffffffffffff1673ffffffffffffffffffffffffffffffffffffffff16815260200190815260200160002060010154611dce90919063ffffffff16565b600b60008673ffffffffffffffffffffffffffffffffffffffff1673ffffffffffffffffffffffffffffffffffffffff16815260200190815260200160002060010181905550600073ffffffffffffffffffffffffffffffffffffffff16600160009054906101000a900473ffffffffffffffffffffffffffffffffffffffff1673ffffffffffffffffffffffffffffffffffffffff161415610bca573373ffffffffffffffffffffffffffffffffffffffff166108fc849081150290604051600060405180830381858888f19350505050610bc5576040517f08c379a0000000000000000000000000000000000000000000000000000000008152600401610bbc90613316565b60405180910390fd5b610cd5565b600160009054906101000a900473ffffffffffffffffffffffffffffffffffffffff1673ffffffffffffffffffffffffffffffffffffffff1663a9059cbb85856040518363ffffffff167c0100000000000000000000000000000000000000000000000000000000028152600401610c439291906131d2565b602060405180830381600087803b158015610c5d57600080fd5b505af1158015610c71573d6000803e3d6000fd5b505050506040513d601f19601f82011682018060405250610c95919081019061225b565b610cd4576040517f08c379a0000000000000000000000000000000000000000000000000000000008152600401610ccb906133d6565b60405180910390fd5b5b8373ffffffffffffffffffffffffffffffffffffffff167f27a391d95d67e3626574fb5fbe3532bb7366e9254957b1f0e840953c248b2aa884604051610d1b91906135f6565b60405180910390a260019150600d548114610d6b576040517f08c379a0000000000000000000000000000000000000000000000000000000008152600401610d6290613576565b60405180910390fd5b5092915050565b60075481565b600080600c60008473ffffffffffffffffffffffffffffffffffffffff1673ffffffffffffffffffffffffffffffffffffffff16815260200190815260200160002060000154119050919050565b600080600b60008473ffffffffffffffffffffffffffffffffffffffff1673ffffffffffffffffffffffffffffffffffffffff16815260200190815260200160002060000154119050919050565b610e1d33611d63565b610e5c576040517f08c379a0000000000000000000000000000000000000000000000000000000008152600401610e5390613536565b60405180910390fd5b610e646110bf565b811115610ea6576040517f08c379a0000000000000000000000000000000000000000000000000000000008152600401610e9d90613296565b60405180910390fd5b610ebb81600554611dce90919063ffffffff16565b6005819055507f481131d4f3f5d97379f8d85b228d5cdf2a381a9666ca66d4b4094553a8e10ad081600554604051610ef4929190613611565b60405180910390a150565b6000809054906101000a900473ffffffffffffffffffffffffffffffffffffffff1681565b60095481565b600a60009054906101000a900460ff1681565b600b6020528060005260406000206000915090508060000154908060010154908060020154905083565b600a60009054906101000a900460ff1615610fb7576040517f08c379a0000000000000000000000000000000000000000000000000000000008152600401610fae906132d6565b60405180910390fd5b610fc033611d63565b61104457600060075414158015610fd957504260075411155b8015610fe85750600254600354105b80611004575060006008541415801561100357504260085411155b5b611043576040517f08c379a000000000000000000000000000000000000000000000000000000000815260040161103a90613356565b60405180910390fd5b5b6001600a60006101000a81548160ff0219169083151502179055507f0e6e9dacf028bdcfdf84ef7bae6711f8d6b15d47d98c1f9772447c1ea4bc0dd660405160405180910390a1565b60006110ba6005546110ac600454600354611e2390919063ffffffff16565b611e2390919063ffffffff16565b905090565b60006111006006546110f26005546110e4600454600354611e2390919063ffffffff16565b611e2390919063ffffffff16565b611e2390919063ffffffff16565b905090565b61110e33611d63565b61114d576040517f08c379a000000000000000000000000000000000000000000000000000000000815260040161114490613536565b60405180910390fd5b60035460025414611193576040517f08c379a000000000000000000000000000000000000000000000000000000000815260040161118a90613436565b60405180910390fd5b600a60009054906101000a900460ff16156111e3576040517f08c379a00000000000000000000000000000000000000000000000000000000081526004016111da90613396565b60405180910390fd5b60006112d0600b60008573ffffffffffffffffffffffffffffffffffffffff1673ffffffffffffffffffffffffffffffffffffffff168152602001908152602001600020600201546112c2600b60008773ffffffffffffffffffffffffffffffffffffffff1673ffffffffffffffffffffffffffffffffffffffff16815260200190815260200160002060010154600b60008873ffffffffffffffffffffffffffffffffffffffff1673ffffffffffffffffffffffffffffffffffffffff16815260200190815260200160002060000154611e2390919063ffffffff16565b611e2390919063ffffffff16565b905081811015611315576040517f08c379a000000000000000000000000000000000000000000000000000000000815260040161130c90613336565b60405180910390fd5b61136a82600b60008673ffffffffffffffffffffffffffffffffffffffff1673ffffffffffffffffffffffffffffffffffffffff16815260200190815260200160002060020154611dce90919063ffffffff16565b600b60008573ffffffffffffffffffffffffffffffffffffffff1673ffffffffffffffffffffffffffffffffffffffff168152602001908152602001600020600201819055506113c582600654611dce90919063ffffffff16565b6006819055508273ffffffffffffffffffffffffffffffffffffffff167fc50ecc171765f66228b4db8bf340aa2e9678006dc898fcfc34075aec9b5570e48360405161141191906135f6565b60405180910390a2505050565b60006001600d600082825401925050819055506000600d54905060006114a5600354611497600e54600c60008973ffffffffffffffffffffffffffffffffffffffff1673ffffffffffffffffffffffffffffffffffffffff168152602001908152602001600020600001546120eb90919063ffffffff16565b61215b90919063ffffffff16565b905060006114d2600e546114c4846005546120eb90919063ffffffff16565b61215b90919063ffffffff16565b9050600c60008673ffffffffffffffffffffffffffffffffffffffff1673ffffffffffffffffffffffffffffffffffffffff168152602001908152602001600020600101548111611558576040517f08c379a000000000000000000000000000000000000000000000000000000000815260040161154f906134b6565b60405180910390fd5b6115ad600c60008773ffffffffffffffffffffffffffffffffffffffff1673ffffffffffffffffffffffffffffffffffffffff1681526020019081526020016000206001015482611e2390919063ffffffff16565b905061160481600c60008873ffffffffffffffffffffffffffffffffffffffff1673ffffffffffffffffffffffffffffffffffffffff16815260200190815260200160002060010154611dce90919063ffffffff16565b600c60008773ffffffffffffffffffffffffffffffffffffffff1673ffffffffffffffffffffffffffffffffffffffff16815260200190815260200160002060010181905550600073ffffffffffffffffffffffffffffffffffffffff16600160009054906101000a900473ffffffffffffffffffffffffffffffffffffffff1673ffffffffffffffffffffffffffffffffffffffff16141561171a573373ffffffffffffffffffffffffffffffffffffffff166108fc829081150290604051600060405180830381858888f19350505050611715576040517f08c379a000000000000000000000000000000000000000000000000000000000815260040161170c906134f6565b60405180910390fd5b611825565b600160009054906101000a900473ffffffffffffffffffffffffffffffffffffffff1673ffffffffffffffffffffffffffffffffffffffff1663a9059cbb86836040518363ffffffff167c01000000000000000000000000000000000000000000000000000000000281526004016117939291906131d2565b602060405180830381600087803b1580156117ad57600080fd5b505af11580156117c1573d6000803e3d6000fd5b505050506040513d601f19601f820116820180604052506117e5919081019061225b565b611824576040517f08c379a000000000000000000000000000000000000000000000000000000000815260040161181b90613556565b60405180910390fd5b5b8473ffffffffffffffffffffffffffffffffffffffff167fb6c0eca8138e097d71e2dd31e19a1266487f0553f170b7260ffe68bcbe9ff8a78260405161186b91906135f6565b60405180910390a2600193505050600d5481146118bd576040517f08c379a00000000000000000000000000000000000000000000000000000000081526004016118b490613576565b60405180910390fd5b50919050565b60085481565b60045481565b600c6020528060005260406000206000915090508060000154908060010154905082565b60006002546003541061193b576040517f08c379a0000000000000000000000000000000000000000000000000000000008152600401611932906132f6565b60405180910390fd5b600160009054906101000a900473ffffffffffffffffffffffffffffffffffffffff1673ffffffffffffffffffffffffffffffffffffffff163373ffffffffffffffffffffffffffffffffffffffff167ff26401e1da8f4d9ae4148bdd6dcdb84393accc6e5429cac89b82af1f43e8fded846040516119ba91906135f6565b60405180910390a3600073ffffffffffffffffffffffffffffffffffffffff16600160009054906101000a900473ffffffffffffffffffffffffffffffffffffffff1673ffffffffffffffffffffffffffffffffffffffff161415611ad457813414611a5b576040517f08c379a0000000000000000000000000000000000000000000000000000000008152600401611a5290613516565b60405180910390fd5b3373ffffffffffffffffffffffffffffffffffffffff166108fc349081150290604051600060405180830381858888f19350505050611acf576040517f08c379a0000000000000000000000000000000000000000000000000000000008152600401611ac690613596565b60405180910390fd5b611d2e565b60003414611b17576040517f08c379a0000000000000000000000000000000000000000000000000000000008152600401611b0e90613276565b60405180910390fd5b600160009054906101000a900473ffffffffffffffffffffffffffffffffffffffff1673ffffffffffffffffffffffffffffffffffffffff166323b872dd3330856040518463ffffffff167c0100000000000000000000000000000000000000000000000000000000028152600401611b9293929190613172565b602060405180830381600087803b158015611bac57600080fd5b505af1158015611bc0573d6000803e3d6000fd5b505050506040513d601f19601f82011682018060405250611be4919081019061225b565b611c23576040517f08c379a0000000000000000000000000000000000000000000000000000000008152600401611c1a906133b6565b60405180910390fd5b600160009054906101000a900473ffffffffffffffffffffffffffffffffffffffff1673ffffffffffffffffffffffffffffffffffffffff1663a9059cbb33846040518363ffffffff167c0100000000000000000000000000000000000000000000000000000000028152600401611c9c9291906131a9565b602060405180830381600087803b158015611cb657600080fd5b505af1158015611cca573d6000803e3d6000fd5b505050506040513d601f19601f82011682018060405250611cee919081019061225b565b611d2d576040517f08c379a0000000000000000000000000000000000000000000000000000000008152600401611d24906135d6565b60405180910390fd5b5b60019050919050565b60055481565b600160009054906101000a900473ffffffffffffffffffffffffffffffffffffffff1681565b60008173ffffffffffffffffffffffffffffffffffffffff166000809054906101000a900473ffffffffffffffffffffffffffffffffffffffff1673ffffffffffffffffffffffffffffffffffffffff16149050919050565b60025481565b60065481565b60035481565b600080828401905083811015611e19576040517f08c379a0000000000000000000000000000000000000000000000000000000008152600401611e1090613256565b60405180910390fd5b8091505092915050565b600082821115611e68576040517f08c379a0000000000000000000000000000000000000000000000000000000008152600401611e5f906132b6565b60405180910390fd5b600082840390508091505092915050565b813414611ebb576040517f08c379a0000000000000000000000000000000000000000000000000000000008152600401611eb2906133f6565b60405180910390fd5b60003411611efe576040517f08c379a0000000000000000000000000000000000000000000000000000000008152600401611ef590613496565b60405180910390fd5b6000811115611f7c573373ffffffffffffffffffffffffffffffffffffffff166108fc829081150290604051600060405180830381858888f19350505050611f7b576040517f08c379a0000000000000000000000000000000000000000000000000000000008152600401611f7290613476565b60405180910390fd5b5b5050565b60003414611fc3576040517f08c379a0000000000000000000000000000000000000000000000000000000008152600401611fba90613216565b60405180910390fd5b6000611fd88284611e2390919063ffffffff16565b9050600160009054906101000a900473ffffffffffffffffffffffffffffffffffffffff1673ffffffffffffffffffffffffffffffffffffffff166323b872dd3330846040518463ffffffff167c010000000000000000000000000000000000000000000000000000000002815260040161205593929190613172565b602060405180830381600087803b15801561206f57600080fd5b505af1158015612083573d6000803e3d6000fd5b505050506040513d601f19601f820116820180604052506120a7919081019061225b565b6120e6576040517f08c379a00000000000000000000000000000000000000000000000000000000081526004016120dd906134d6565b60405180910390fd5b505050565b6000808314156120fe5760009050612155565b600082840290508284828161210f57fe5b0414612150576040517f08c379a000000000000000000000000000000000000000000000000000000000815260040161214790613456565b60405180910390fd5b809150505b92915050565b600080821161219f576040517f08c379a000000000000000000000000000000000000000000000000000000000815260040161219690613376565b60405180910390fd5b60008284816121aa57fe5b0490508091505092915050565b6000813590506121c681613700565b92915050565b6000815190506121db81613717565b92915050565b6000813590506121f08161372e565b92915050565b60006020828403121561220857600080fd5b6000612216848285016121b7565b91505092915050565b6000806040838503121561223257600080fd5b6000612240858286016121b7565b9250506020612251858286016121e1565b9150509250929050565b60006020828403121561226d57600080fd5b600061227b848285016121cc565b91505092915050565b60006020828403121561229657600080fd5b60006122a4848285016121e1565b91505092915050565b6122b6816136ca565b82525050565b6122c581613682565b82525050565b6122d481613694565b82525050565b60006122e7604983613671565b91507f66756e6457697468546f6b656e3a3a43757272656e6379204572726f722e204360008301527f616e6e6f742073656e6420457468657220746f206120746f6b656e2066756e6460208301527f6564206772616e742e00000000000000000000000000000000000000000000006040830152606082019050919050565b6000612373604e83613671565b91507f77697468647261775061796f75743a3a496e76616c696420417267756d656e7460008301527f2e206772616e746565207061796f7574417070726f76656420646f6573206e6f60208301527f74206d617463682076616c75652e0000000000000000000000000000000000006040830152606082019050919050565b60006123ff601b83613671565b91507f536166654d6174683a206164646974696f6e206f766572666c6f7700000000006000830152602082019050919050565b600061243f604283613671565b91507f7369676e616c3a3a43757272656e6379204572726f722e2043616e6e6f74207360008301527f656e6420457468657220746f206120746f6b656e2066756e646564206772616e60208301527f742e0000000000000000000000000000000000000000000000000000000000006040830152606082019050919050565b60006124cb606783613671565b91507f617070726f7665526566756e643a3a496e76616c696420417267756d656e742e60008301527f20416d6f756e74206d757374206265206c657373207468616e206f722065717560208301527f616c20746f2074686520636f6e7472616374277320417661696c61626c65204260408301527f616c616e63652e000000000000000000000000000000000000000000000000006060830152608082019050919050565b600061257d601e83613671565b91507f536166654d6174683a207375627472616374696f6e206f766572666c6f7700006000830152602082019050919050565b60006125bd602d83613671565b91507f63616e63656c4772616e743a3a537461747573204572726f722e20416c72656160008301527f64792063616e63656c6c65642e000000000000000000000000000000000000006020830152604082019050919050565b6000612623605183613671565b91507f7369676e616c3a3a537461747573204572726f722e205369676e616c6c696e6760008301527f206f6e6c79207065726d6974746564207072696f7220746f207265616368696e60208301527f672066756e64696e67207461726765742e0000000000000000000000000000006040830152606082019050919050565b60006126af604083613671565b91507f77697468647261775061796f75743a3a5472616e73666572204572726f722e2060008301527f556e61626c6520746f2073656e642076616c756520746f204772616e7465652e6020830152604082019050919050565b6000612715605483613671565b91507f617070726f76655061796f75743a3a496e76616c696420417267756d656e742e60008301527f2076616c75652063616e6e6f7420657863656564204772616e7465652773207260208301527f656d61696e696e6720616c6c6f636174696f6e2e0000000000000000000000006040830152606082019050919050565b60006127a1606d83613671565b91507f63616e63656c4772616e743a3a496e76616c69642053656e6465722e2053656e60008301527f646572206d757374206265206772616e74206d616e6167657220756e6c65737360208301527f206772616e74206d69737365642066756e64696e67206f7220636f6e7472616360408301527f742065787069726174696f6e2e000000000000000000000000000000000000006060830152608082019050919050565b6000612853601a83613671565b91507f536166654d6174683a206469766973696f6e206279207a65726f0000000000006000830152602082019050919050565b6000612893604a83613671565b91507f617070726f76655061796f75743a3a537461747573204572726f722e2043616e60008301527f6e6f7420617070726f7665207061796d656e74206966206772616e742069732060208301527f63616e63656c6c65642e000000000000000000000000000000000000000000006040830152606082019050919050565b600061291f603883613671565b91507f7369676e616c3a3a5472616e73666572204572726f722e20455243323020746f60008301527f6b656e207472616e7366657246726f6d206661696c65642e00000000000000006020830152604082019050919050565b6000612985603c83613671565b91507f77697468647261775061796f75743a3a5472616e73666572204572726f722e2060008301527f455243323020746f6b656e207472616e73666572206661696c65642e000000006020830152604082019050919050565b60006129eb607683613671565b91507f66756e645769746845746865723a3a496e76616c696420417267756d656e742e60008301527f2076616c7565206d75737420657175616c206d73672e76616c75652e20436f6e60208301527f7369646572207573696e67207468652066616c6c6261636b2066756e6374696f60408301527f6e20666f7220457468657220646f6e6174696f6e732e000000000000000000006060830152608082019050919050565b6000612a9d602f83613671565b91507f66756e643a3a537461747573204572726f722e2046756e64696e67207461726760008301527f657420616c7265616479206d65742e00000000000000000000000000000000006020830152604082019050919050565b6000612b03604e83613671565b91507f617070726f76655061796f75743a3a537461747573204572726f722e2043616e60008301527f6e6f7420617070726f7665207061796d656e742069662066756e64696e67207460208301527f6172676574206e6f74206d65742e0000000000000000000000000000000000006040830152606082019050919050565b6000612b8f602183613671565b91507f536166654d6174683a206d756c7469706c69636174696f6e206f766572666c6f60008301527f77000000000000000000000000000000000000000000000000000000000000006020830152604082019050919050565b6000612bf5604483613671565b91507f66756e645769746845746865723a3a5472616e73666572204572726f722e205560008301527f6e61626c6520746f2073656e64206368616e6765206261636b20746f2073656e60208301527f6465722e000000000000000000000000000000000000000000000000000000006040830152606082019050919050565b6000612c81603a83613671565b91507f66756e645769746845746865723a3a496e76616c69642056616c75652e206d7360008301527f672e76616c75652062652067726561746572207468616e20302e0000000000006020830152604082019050919050565b6000612ce7604d83613671565b91507f7769746864726177526566756e643a3a4572726f722e20446f6e6f722068617360008301527f20616c72656164792077697468647261776e2063757272656e746c7920656c6960208301527f6769626c6520726566756e642e000000000000000000000000000000000000006040830152606082019050919050565b6000612d73603683613671565b91507f66756e643a3a5472616e73666572204572726f722e20455243323020746f6b6560008301527f6e207472616e7366657246726f6d206661696c65642e000000000000000000006020830152604082019050919050565b6000612dd9604483613671565b91507f7769746864726177526566756e643a3a5472616e73666572204572726f722e2060008301527f556e61626c6520746f2073656e6420726566756e6456616c756520746f20446f60208301527f6e6f722e000000000000000000000000000000000000000000000000000000006040830152606082019050919050565b6000612e65603583613671565b91507f7369676e616c3a3a496e76616c696420417267756d656e742e2076616c75652060008301527f6d757374206d61746368206d73672e76616c75652e00000000000000000000006020830152604082019050919050565b6000612ecb604683613671565b91507f6f6e6c794d616e616765723a3a5065726d697373696f6e204572726f722e204660008301527f756e6374696f6e2063616e206f6e6c792062652063616c6c6564206279206d6160208301527f6e616765722e00000000000000000000000000000000000000000000000000006040830152606082019050919050565b6000612f57603c83613671565b91507f7769746864726177526566756e643a3a5472616e73666572204572726f722e2060008301527f455243323020746f6b656e207472616e73666572206661696c65642e000000006020830152604082019050919050565b6000612fbd601f83613671565b91507f5265656e7472616e637947756172643a207265656e7472616e742063616c6c006000830152602082019050919050565b6000612ffd604083613671565b91507f7369676e616c3a3a5472616e73666572204572726f722e20556e61626c65207460008301527f6f2073656e64206d73672e76616c7565206261636b20746f2073656e6465722e6020830152604082019050919050565b6000613063605283613671565b91507f66756e643a3a44617465204572726f722e2066756e64696e674578706972617460008301527f696f6e206461746520686173207061737365642c2063616e6e6f74207265636560208301527f697665206e657720646f6e6174696f6e732e00000000000000000000000000006040830152606082019050919050565b60006130ef603483613671565b91507f7369676e616c3a3a5472616e73666572204572726f722e20455243323020746f60008301527f6b656e207472616e73666572206661696c65642e0000000000000000000000006020830152604082019050919050565b613151816136c0565b82525050565b600060208201905061316c60008301846122bc565b92915050565b600060608201905061318760008301866122ad565b61319460208301856122ad565b6131a16040830184613148565b949350505050565b60006040820190506131be60008301856122ad565b6131cb6020830184613148565b9392505050565b60006040820190506131e760008301856122bc565b6131f46020830184613148565b9392505050565b600060208201905061321060008301846122cb565b92915050565b6000602082019050818103600083015261322f816122da565b9050919050565b6000602082019050818103600083015261324f81612366565b9050919050565b6000602082019050818103600083015261326f816123f2565b9050919050565b6000602082019050818103600083015261328f81612432565b9050919050565b600060208201905081810360008301526132af816124be565b9050919050565b600060208201905081810360008301526132cf81612570565b9050919050565b600060208201905081810360008301526132ef816125b0565b9050919050565b6000602082019050818103600083015261330f81612616565b9050919050565b6000602082019050818103600083015261332f816126a2565b9050919050565b6000602082019050818103600083015261334f81612708565b9050919050565b6000602082019050818103600083015261336f81612794565b9050919050565b6000602082019050818103600083015261338f81612846565b9050919050565b600060208201905081810360008301526133af81612886565b9050919050565b600060208201905081810360008301526133cf81612912565b9050919050565b600060208201905081810360008301526133ef81612978565b9050919050565b6000602082019050818103600083015261340f816129de565b9050919050565b6000602082019050818103600083015261342f81612a90565b9050919050565b6000602082019050818103600083015261344f81612af6565b9050919050565b6000602082019050818103600083015261346f81612b82565b9050919050565b6000602082019050818103600083015261348f81612be8565b9050919050565b600060208201905081810360008301526134af81612c74565b9050919050565b600060208201905081810360008301526134cf81612cda565b9050919050565b600060208201905081810360008301526134ef81612d66565b9050919050565b6000602082019050818103600083015261350f81612dcc565b9050919050565b6000602082019050818103600083015261352f81612e58565b9050919050565b6000602082019050818103600083015261354f81612ebe565b9050919050565b6000602082019050818103600083015261356f81612f4a565b9050919050565b6000602082019050818103600083015261358f81612fb0565b9050919050565b600060208201905081810360008301526135af81612ff0565b9050919050565b600060208201905081810360008301526135cf81613056565b9050919050565b600060208201905081810360008301526135ef816130e2565b9050919050565b600060208201905061360b6000830184613148565b92915050565b60006040820190506136266000830185613148565b6136336020830184613148565b9392505050565b600060608201905061364f6000830186613148565b61365c6020830185613148565b6136696040830184613148565b949350505050565b600082825260208201905092915050565b600061368d826136a0565b9050919050565b60008115159050919050565b600073ffffffffffffffffffffffffffffffffffffffff82169050919050565b6000819050919050565b60006136d5826136dc565b9050919050565b60006136e7826136ee565b9050919050565b60006136f9826136a0565b9050919050565b61370981613682565b811461371457600080fd5b50565b61372081613694565b811461372b57600080fd5b50565b613737816136c0565b811461374257600080fd5b5056fea365627a7a72305820015ddcfeef3f66379fa22b446f7b97aa152e92289a15d179acc1faf89c2c990f6c6578706572696d656e74616cf564736f6c634300050a0040a365627a7a72305820b67ad32c057bbc438cb41a9901b4e9c9164fb3c0259dc2c390fcaf9ade04f5296c6578706572696d656e74616cf564736f6c634300050a0040",
      "opcodes": "PUSH1 0x80 PUSH1 0x40 MSTORE CALLVALUE DUP1 ISZERO PUSH2 0x10 JUMPI PUSH1 0x0 DUP1 REVERT JUMPDEST POP PUSH2 0x4F48 DUP1 PUSH2 0x20 PUSH1 0x0 CODECOPY PUSH1 0x0 RETURN INVALID PUSH1 0x80 PUSH1 0x40 MSTORE CALLVALUE DUP1 ISZERO PUSH3 0x11 JUMPI PUSH1 0x0 DUP1 REVERT JUMPDEST POP PUSH1 0x4 CALLDATASIZE LT PUSH3 0x4B JUMPI PUSH1 0x0 CALLDATALOAD PUSH29 0x100000000000000000000000000000000000000000000000000000000 SWAP1 DIV DUP1 PUSH4 0xE89D6DF0 EQ PUSH3 0x50 JUMPI JUMPDEST PUSH1 0x0 DUP1 REVERT JUMPDEST PUSH3 0x6E PUSH1 0x4 DUP1 CALLDATASIZE SUB PUSH3 0x68 SWAP2 SWAP1 DUP2 ADD SWAP1 PUSH3 0x3A1 JUMP JUMPDEST PUSH3 0x86 JUMP JUMPDEST PUSH1 0x40 MLOAD PUSH3 0x7D SWAP2 SWAP1 PUSH3 0x707 JUMP JUMPDEST PUSH1 0x40 MLOAD DUP1 SWAP2 SUB SWAP1 RETURN JUMPDEST PUSH1 0x0 DUP1 DUP10 DUP10 DUP10 DUP10 DUP10 DUP10 DUP10 PUSH1 0x40 MLOAD PUSH3 0x9E SWAP1 PUSH3 0x1EF JUMP JUMPDEST PUSH3 0xB0 SWAP8 SWAP7 SWAP6 SWAP5 SWAP4 SWAP3 SWAP2 SWAP1 PUSH3 0x65A JUMP JUMPDEST PUSH1 0x40 MLOAD DUP1 SWAP2 SUB SWAP1 PUSH1 0x0 CREATE DUP1 ISZERO DUP1 ISZERO PUSH3 0xCD JUMPI RETURNDATASIZE PUSH1 0x0 DUP1 RETURNDATACOPY RETURNDATASIZE PUSH1 0x0 REVERT JUMPDEST POP SWAP1 POP PUSH1 0x0 DUP1 SLOAD SWAP1 POP PUSH1 0x0 DUP3 SWAP1 POP DUP1 PUSH1 0x1 PUSH1 0x0 DUP5 DUP2 MSTORE PUSH1 0x20 ADD SWAP1 DUP2 MSTORE PUSH1 0x20 ADD PUSH1 0x0 KECCAK256 PUSH1 0x0 PUSH2 0x100 EXP DUP2 SLOAD DUP2 PUSH20 0xFFFFFFFFFFFFFFFFFFFFFFFFFFFFFFFFFFFFFFFF MUL NOT AND SWAP1 DUP4 PUSH20 0xFFFFFFFFFFFFFFFFFFFFFFFFFFFFFFFFFFFFFFFF AND MUL OR SWAP1 SSTORE POP PUSH3 0x145 PUSH1 0x1 PUSH1 0x0 SLOAD PUSH3 0x197 SWAP1 SWAP2 SWAP1 PUSH4 0xFFFFFFFF AND JUMP JUMPDEST PUSH1 0x0 DUP2 SWAP1 SSTORE POP DUP2 PUSH32 0xB7CDA1280CF8E023666550E9BEE149553F3B7FD3683A465808DDF831F6CFDD5D DUP3 PUSH1 0x40 MLOAD PUSH3 0x17D SWAP2 SWAP1 PUSH3 0x63D JUMP JUMPDEST PUSH1 0x40 MLOAD DUP1 SWAP2 SUB SWAP1 LOG2 DUP2 SWAP4 POP POP POP POP SWAP9 SWAP8 POP POP POP POP POP POP POP POP JUMP JUMPDEST PUSH1 0x0 DUP1 DUP3 DUP5 ADD SWAP1 POP DUP4 DUP2 LT ISZERO PUSH3 0x1E5 JUMPI PUSH1 0x40 MLOAD PUSH32 0x8C379A000000000000000000000000000000000000000000000000000000000 DUP2 MSTORE PUSH1 0x4 ADD PUSH3 0x1DC SWAP1 PUSH3 0x6E5 JUMP JUMPDEST PUSH1 0x40 MLOAD DUP1 SWAP2 SUB SWAP1 REVERT JUMPDEST DUP1 SWAP2 POP POP SWAP3 SWAP2 POP POP JUMP JUMPDEST PUSH2 0x4630 DUP1 PUSH3 0x8D6 DUP4 CODECOPY ADD SWAP1 JUMP JUMPDEST PUSH1 0x0 DUP2 CALLDATALOAD SWAP1 POP PUSH3 0x20E DUP2 PUSH3 0x8A1 JUMP JUMPDEST SWAP3 SWAP2 POP POP JUMP JUMPDEST PUSH1 0x0 DUP3 PUSH1 0x1F DUP4 ADD SLT PUSH3 0x226 JUMPI PUSH1 0x0 DUP1 REVERT JUMPDEST DUP2 CALLDATALOAD PUSH3 0x23D PUSH3 0x237 DUP3 PUSH3 0x752 JUMP JUMPDEST PUSH3 0x724 JUMP JUMPDEST SWAP2 POP DUP2 DUP2 DUP4 MSTORE PUSH1 0x20 DUP5 ADD SWAP4 POP PUSH1 0x20 DUP2 ADD SWAP1 POP DUP4 DUP6 PUSH1 0x20 DUP5 MUL DUP3 ADD GT ISZERO PUSH3 0x263 JUMPI PUSH1 0x0 DUP1 REVERT JUMPDEST PUSH1 0x0 JUMPDEST DUP4 DUP2 LT ISZERO PUSH3 0x297 JUMPI DUP2 PUSH3 0x27C DUP9 DUP3 PUSH3 0x1FD JUMP JUMPDEST DUP5 MSTORE PUSH1 0x20 DUP5 ADD SWAP4 POP PUSH1 0x20 DUP4 ADD SWAP3 POP POP PUSH1 0x1 DUP2 ADD SWAP1 POP PUSH3 0x266 JUMP JUMPDEST POP POP POP POP SWAP3 SWAP2 POP POP JUMP JUMPDEST PUSH1 0x0 DUP3 PUSH1 0x1F DUP4 ADD SLT PUSH3 0x2B3 JUMPI PUSH1 0x0 DUP1 REVERT JUMPDEST DUP2 CALLDATALOAD PUSH3 0x2CA PUSH3 0x2C4 DUP3 PUSH3 0x77B JUMP JUMPDEST PUSH3 0x724 JUMP JUMPDEST SWAP2 POP DUP2 DUP2 DUP4 MSTORE PUSH1 0x20 DUP5 ADD SWAP4 POP PUSH1 0x20 DUP2 ADD SWAP1 POP DUP4 DUP6 PUSH1 0x20 DUP5 MUL DUP3 ADD GT ISZERO PUSH3 0x2F0 JUMPI PUSH1 0x0 DUP1 REVERT JUMPDEST PUSH1 0x0 JUMPDEST DUP4 DUP2 LT ISZERO PUSH3 0x324 JUMPI DUP2 PUSH3 0x309 DUP9 DUP3 PUSH3 0x38A JUMP JUMPDEST DUP5 MSTORE PUSH1 0x20 DUP5 ADD SWAP4 POP PUSH1 0x20 DUP4 ADD SWAP3 POP POP PUSH1 0x1 DUP2 ADD SWAP1 POP PUSH3 0x2F3 JUMP JUMPDEST POP POP POP POP SWAP3 SWAP2 POP POP JUMP JUMPDEST PUSH1 0x0 DUP3 PUSH1 0x1F DUP4 ADD SLT PUSH3 0x340 JUMPI PUSH1 0x0 DUP1 REVERT JUMPDEST DUP2 CALLDATALOAD PUSH3 0x357 PUSH3 0x351 DUP3 PUSH3 0x7A4 JUMP JUMPDEST PUSH3 0x724 JUMP JUMPDEST SWAP2 POP DUP1 DUP3 MSTORE PUSH1 0x20 DUP4 ADD PUSH1 0x20 DUP4 ADD DUP6 DUP4 DUP4 ADD GT ISZERO PUSH3 0x374 JUMPI PUSH1 0x0 DUP1 REVERT JUMPDEST PUSH3 0x381 DUP4 DUP3 DUP5 PUSH3 0x892 JUMP JUMPDEST POP POP POP SWAP3 SWAP2 POP POP JUMP JUMPDEST PUSH1 0x0 DUP2 CALLDATALOAD SWAP1 POP PUSH3 0x39B DUP2 PUSH3 0x8BB JUMP JUMPDEST SWAP3 SWAP2 POP POP JUMP JUMPDEST PUSH1 0x0 DUP1 PUSH1 0x0 DUP1 PUSH1 0x0 DUP1 PUSH1 0x0 DUP1 PUSH2 0x100 DUP10 DUP12 SUB SLT ISZERO PUSH3 0x3BF JUMPI PUSH1 0x0 DUP1 REVERT JUMPDEST PUSH1 0x0 DUP10 ADD CALLDATALOAD PUSH8 0xFFFFFFFFFFFFFFFF DUP2 GT ISZERO PUSH3 0x3DA JUMPI PUSH1 0x0 DUP1 REVERT JUMPDEST PUSH3 0x3E8 DUP12 DUP3 DUP13 ADD PUSH3 0x214 JUMP JUMPDEST SWAP9 POP POP PUSH1 0x20 DUP10 ADD CALLDATALOAD PUSH8 0xFFFFFFFFFFFFFFFF DUP2 GT ISZERO PUSH3 0x406 JUMPI PUSH1 0x0 DUP1 REVERT JUMPDEST PUSH3 0x414 DUP12 DUP3 DUP13 ADD PUSH3 0x2A1 JUMP JUMPDEST SWAP8 POP POP PUSH1 0x40 PUSH3 0x427 DUP12 DUP3 DUP13 ADD PUSH3 0x1FD JUMP JUMPDEST SWAP7 POP POP PUSH1 0x60 PUSH3 0x43A DUP12 DUP3 DUP13 ADD PUSH3 0x1FD JUMP JUMPDEST SWAP6 POP POP PUSH1 0x80 PUSH3 0x44D DUP12 DUP3 DUP13 ADD PUSH3 0x38A JUMP JUMPDEST SWAP5 POP POP PUSH1 0xA0 PUSH3 0x460 DUP12 DUP3 DUP13 ADD PUSH3 0x38A JUMP JUMPDEST SWAP4 POP POP PUSH1 0xC0 PUSH3 0x473 DUP12 DUP3 DUP13 ADD PUSH3 0x38A JUMP JUMPDEST SWAP3 POP POP PUSH1 0xE0 DUP10 ADD CALLDATALOAD PUSH8 0xFFFFFFFFFFFFFFFF DUP2 GT ISZERO PUSH3 0x491 JUMPI PUSH1 0x0 DUP1 REVERT JUMPDEST PUSH3 0x49F DUP12 DUP3 DUP13 ADD PUSH3 0x32E JUMP JUMPDEST SWAP2 POP POP SWAP3 SWAP6 SWAP9 POP SWAP3 SWAP6 SWAP9 SWAP1 SWAP4 SWAP7 POP JUMP JUMPDEST PUSH1 0x0 PUSH3 0x4BD DUP4 DUP4 PUSH3 0x4E3 JUMP JUMPDEST PUSH1 0x20 DUP4 ADD SWAP1 POP SWAP3 SWAP2 POP POP JUMP JUMPDEST PUSH1 0x0 PUSH3 0x4D7 DUP4 DUP4 PUSH3 0x61B JUMP JUMPDEST PUSH1 0x20 DUP4 ADD SWAP1 POP SWAP3 SWAP2 POP POP JUMP JUMPDEST PUSH3 0x4EE DUP2 PUSH3 0x854 JUMP JUMPDEST DUP3 MSTORE POP POP JUMP JUMPDEST PUSH3 0x4FF DUP2 PUSH3 0x854 JUMP JUMPDEST DUP3 MSTORE POP POP JUMP JUMPDEST PUSH1 0x0 PUSH3 0x512 DUP3 PUSH3 0x7F1 JUMP JUMPDEST PUSH3 0x51E DUP2 DUP6 PUSH3 0x821 JUMP JUMPDEST SWAP4 POP PUSH3 0x52B DUP4 PUSH3 0x7D1 JUMP JUMPDEST DUP1 PUSH1 0x0 JUMPDEST DUP4 DUP2 LT ISZERO PUSH3 0x562 JUMPI DUP2 MLOAD PUSH3 0x546 DUP9 DUP3 PUSH3 0x4AF JUMP JUMPDEST SWAP8 POP PUSH3 0x553 DUP4 PUSH3 0x807 JUMP JUMPDEST SWAP3 POP POP PUSH1 0x1 DUP2 ADD SWAP1 POP PUSH3 0x52F JUMP JUMPDEST POP DUP6 SWAP4 POP POP POP POP SWAP3 SWAP2 POP POP JUMP JUMPDEST PUSH1 0x0 PUSH3 0x57C DUP3 PUSH3 0x7FC JUMP JUMPDEST PUSH3 0x588 DUP2 DUP6 PUSH3 0x832 JUMP JUMPDEST SWAP4 POP PUSH3 0x595 DUP4 PUSH3 0x7E1 JUMP JUMPDEST DUP1 PUSH1 0x0 JUMPDEST DUP4 DUP2 LT ISZERO PUSH3 0x5CC JUMPI DUP2 MLOAD PUSH3 0x5B0 DUP9 DUP3 PUSH3 0x4C9 JUMP JUMPDEST SWAP8 POP PUSH3 0x5BD DUP4 PUSH3 0x814 JUMP JUMPDEST SWAP3 POP POP PUSH1 0x1 DUP2 ADD SWAP1 POP PUSH3 0x599 JUMP JUMPDEST POP DUP6 SWAP4 POP POP POP POP SWAP3 SWAP2 POP POP JUMP JUMPDEST PUSH1 0x0 PUSH3 0x5E8 PUSH1 0x1B DUP4 PUSH3 0x843 JUMP JUMPDEST SWAP2 POP PUSH32 0x536166654D6174683A206164646974696F6E206F766572666C6F770000000000 PUSH1 0x0 DUP4 ADD MSTORE PUSH1 0x20 DUP3 ADD SWAP1 POP SWAP2 SWAP1 POP JUMP JUMPDEST PUSH3 0x626 DUP2 PUSH3 0x888 JUMP JUMPDEST DUP3 MSTORE POP POP JUMP JUMPDEST PUSH3 0x637 DUP2 PUSH3 0x888 JUMP JUMPDEST DUP3 MSTORE POP POP JUMP JUMPDEST PUSH1 0x0 PUSH1 0x20 DUP3 ADD SWAP1 POP PUSH3 0x654 PUSH1 0x0 DUP4 ADD DUP5 PUSH3 0x4F4 JUMP JUMPDEST SWAP3 SWAP2 POP POP JUMP JUMPDEST PUSH1 0x0 PUSH1 0xE0 DUP3 ADD SWAP1 POP DUP2 DUP2 SUB PUSH1 0x0 DUP4 ADD MSTORE PUSH3 0x676 DUP2 DUP11 PUSH3 0x505 JUMP JUMPDEST SWAP1 POP DUP2 DUP2 SUB PUSH1 0x20 DUP4 ADD MSTORE PUSH3 0x68C DUP2 DUP10 PUSH3 0x56F JUMP JUMPDEST SWAP1 POP PUSH3 0x69D PUSH1 0x40 DUP4 ADD DUP9 PUSH3 0x4F4 JUMP JUMPDEST PUSH3 0x6AC PUSH1 0x60 DUP4 ADD DUP8 PUSH3 0x4F4 JUMP JUMPDEST PUSH3 0x6BB PUSH1 0x80 DUP4 ADD DUP7 PUSH3 0x62C JUMP JUMPDEST PUSH3 0x6CA PUSH1 0xA0 DUP4 ADD DUP6 PUSH3 0x62C JUMP JUMPDEST PUSH3 0x6D9 PUSH1 0xC0 DUP4 ADD DUP5 PUSH3 0x62C JUMP JUMPDEST SWAP9 SWAP8 POP POP POP POP POP POP POP POP JUMP JUMPDEST PUSH1 0x0 PUSH1 0x20 DUP3 ADD SWAP1 POP DUP2 DUP2 SUB PUSH1 0x0 DUP4 ADD MSTORE PUSH3 0x700 DUP2 PUSH3 0x5D9 JUMP JUMPDEST SWAP1 POP SWAP2 SWAP1 POP JUMP JUMPDEST PUSH1 0x0 PUSH1 0x20 DUP3 ADD SWAP1 POP PUSH3 0x71E PUSH1 0x0 DUP4 ADD DUP5 PUSH3 0x62C JUMP JUMPDEST SWAP3 SWAP2 POP POP JUMP JUMPDEST PUSH1 0x0 PUSH1 0x40 MLOAD SWAP1 POP DUP2 DUP2 ADD DUP2 DUP2 LT PUSH8 0xFFFFFFFFFFFFFFFF DUP3 GT OR ISZERO PUSH3 0x748 JUMPI PUSH1 0x0 DUP1 REVERT JUMPDEST DUP1 PUSH1 0x40 MSTORE POP SWAP2 SWAP1 POP JUMP JUMPDEST PUSH1 0x0 PUSH8 0xFFFFFFFFFFFFFFFF DUP3 GT ISZERO PUSH3 0x76A JUMPI PUSH1 0x0 DUP1 REVERT JUMPDEST PUSH1 0x20 DUP3 MUL SWAP1 POP PUSH1 0x20 DUP2 ADD SWAP1 POP SWAP2 SWAP1 POP JUMP JUMPDEST PUSH1 0x0 PUSH8 0xFFFFFFFFFFFFFFFF DUP3 GT ISZERO PUSH3 0x793 JUMPI PUSH1 0x0 DUP1 REVERT JUMPDEST PUSH1 0x20 DUP3 MUL SWAP1 POP PUSH1 0x20 DUP2 ADD SWAP1 POP SWAP2 SWAP1 POP JUMP JUMPDEST PUSH1 0x0 PUSH8 0xFFFFFFFFFFFFFFFF DUP3 GT ISZERO PUSH3 0x7BC JUMPI PUSH1 0x0 DUP1 REVERT JUMPDEST PUSH1 0x1F NOT PUSH1 0x1F DUP4 ADD AND SWAP1 POP PUSH1 0x20 DUP2 ADD SWAP1 POP SWAP2 SWAP1 POP JUMP JUMPDEST PUSH1 0x0 DUP2 SWAP1 POP PUSH1 0x20 DUP3 ADD SWAP1 POP SWAP2 SWAP1 POP JUMP JUMPDEST PUSH1 0x0 DUP2 SWAP1 POP PUSH1 0x20 DUP3 ADD SWAP1 POP SWAP2 SWAP1 POP JUMP JUMPDEST PUSH1 0x0 DUP2 MLOAD SWAP1 POP SWAP2 SWAP1 POP JUMP JUMPDEST PUSH1 0x0 DUP2 MLOAD SWAP1 POP SWAP2 SWAP1 POP JUMP JUMPDEST PUSH1 0x0 PUSH1 0x20 DUP3 ADD SWAP1 POP SWAP2 SWAP1 POP JUMP JUMPDEST PUSH1 0x0 PUSH1 0x20 DUP3 ADD SWAP1 POP SWAP2 SWAP1 POP JUMP JUMPDEST PUSH1 0x0 DUP3 DUP3 MSTORE PUSH1 0x20 DUP3 ADD SWAP1 POP SWAP3 SWAP2 POP POP JUMP JUMPDEST PUSH1 0x0 DUP3 DUP3 MSTORE PUSH1 0x20 DUP3 ADD SWAP1 POP SWAP3 SWAP2 POP POP JUMP JUMPDEST PUSH1 0x0 DUP3 DUP3 MSTORE PUSH1 0x20 DUP3 ADD SWAP1 POP SWAP3 SWAP2 POP POP JUMP JUMPDEST PUSH1 0x0 PUSH3 0x861 DUP3 PUSH3 0x868 JUMP JUMPDEST SWAP1 POP SWAP2 SWAP1 POP JUMP JUMPDEST PUSH1 0x0 PUSH20 0xFFFFFFFFFFFFFFFFFFFFFFFFFFFFFFFFFFFFFFFF DUP3 AND SWAP1 POP SWAP2 SWAP1 POP JUMP JUMPDEST PUSH1 0x0 DUP2 SWAP1 POP SWAP2 SWAP1 POP JUMP JUMPDEST DUP3 DUP2 DUP4 CALLDATACOPY PUSH1 0x0 DUP4 DUP4 ADD MSTORE POP POP POP JUMP JUMPDEST PUSH3 0x8AC DUP2 PUSH3 0x854 JUMP JUMPDEST DUP2 EQ PUSH3 0x8B8 JUMPI PUSH1 0x0 DUP1 REVERT JUMPDEST POP JUMP JUMPDEST PUSH3 0x8C6 DUP2 PUSH3 0x888 JUMP JUMPDEST DUP2 EQ PUSH3 0x8D2 JUMPI PUSH1 0x0 DUP1 REVERT JUMPDEST POP JUMP INVALID PUSH1 0x80 PUSH1 0x40 MSTORE PUSH8 0xDE0B6B3A7640000 PUSH1 0xE SSTORE CALLVALUE DUP1 ISZERO PUSH3 0x1D JUMPI PUSH1 0x0 DUP1 REVERT JUMPDEST POP PUSH1 0x40 MLOAD PUSH3 0x4630 CODESIZE SUB DUP1 PUSH3 0x4630 DUP4 CODECOPY DUP2 DUP2 ADD PUSH1 0x40 MSTORE PUSH3 0x43 SWAP2 SWAP1 DUP2 ADD SWAP1 PUSH3 0x648 JUMP JUMPDEST PUSH1 0x1 PUSH1 0xD DUP2 SWAP1 SSTORE POP PUSH1 0x0 DUP3 EQ DUP1 PUSH3 0x5A JUMPI POP DUP1 DUP3 LT JUMPDEST PUSH3 0x9C JUMPI PUSH1 0x40 MLOAD PUSH32 0x8C379A000000000000000000000000000000000000000000000000000000000 DUP2 MSTORE PUSH1 0x4 ADD PUSH3 0x93 SWAP1 PUSH3 0xC85 JUMP JUMPDEST PUSH1 0x40 MLOAD DUP1 SWAP2 SUB SWAP1 REVERT JUMPDEST PUSH1 0x0 DUP3 EQ DUP1 PUSH3 0xAB JUMPI POP TIMESTAMP DUP3 GT JUMPDEST PUSH3 0xED JUMPI PUSH1 0x40 MLOAD PUSH32 0x8C379A000000000000000000000000000000000000000000000000000000000 DUP2 MSTORE PUSH1 0x4 ADD PUSH3 0xE4 SWAP1 PUSH3 0xCC9 JUMP JUMPDEST PUSH1 0x40 MLOAD DUP1 SWAP2 SUB SWAP1 REVERT JUMPDEST PUSH1 0x0 DUP2 EQ DUP1 PUSH3 0xFC JUMPI POP TIMESTAMP DUP2 GT JUMPDEST PUSH3 0x13E JUMPI PUSH1 0x40 MLOAD PUSH32 0x8C379A000000000000000000000000000000000000000000000000000000000 DUP2 MSTORE PUSH1 0x4 ADD PUSH3 0x135 SWAP1 PUSH3 0xD51 JUMP JUMPDEST PUSH1 0x40 MLOAD DUP1 SWAP2 SUB SWAP1 REVERT JUMPDEST PUSH1 0x0 DUP8 MLOAD GT PUSH3 0x185 JUMPI PUSH1 0x40 MLOAD PUSH32 0x8C379A000000000000000000000000000000000000000000000000000000000 DUP2 MSTORE PUSH1 0x4 ADD PUSH3 0x17C SWAP1 PUSH3 0xC63 JUMP JUMPDEST PUSH1 0x40 MLOAD DUP1 SWAP2 SUB SWAP1 REVERT JUMPDEST DUP6 MLOAD DUP8 MLOAD EQ PUSH3 0x1CC JUMPI PUSH1 0x40 MLOAD PUSH32 0x8C379A000000000000000000000000000000000000000000000000000000000 DUP2 MSTORE PUSH1 0x4 ADD PUSH3 0x1C3 SWAP1 PUSH3 0xD0D JUMP JUMPDEST PUSH1 0x40 MLOAD DUP1 SWAP2 SUB SWAP1 REVERT JUMPDEST DUP5 PUSH1 0x0 DUP1 PUSH2 0x100 EXP DUP2 SLOAD DUP2 PUSH20 0xFFFFFFFFFFFFFFFFFFFFFFFFFFFFFFFFFFFFFFFF MUL NOT AND SWAP1 DUP4 PUSH20 0xFFFFFFFFFFFFFFFFFFFFFFFFFFFFFFFFFFFFFFFF AND MUL OR SWAP1 SSTORE POP DUP4 PUSH1 0x1 PUSH1 0x0 PUSH2 0x100 EXP DUP2 SLOAD DUP2 PUSH20 0xFFFFFFFFFFFFFFFFFFFFFFFFFFFFFFFFFFFFFFFF MUL NOT AND SWAP1 DUP4 PUSH20 0xFFFFFFFFFFFFFFFFFFFFFFFFFFFFFFFFFFFFFFFF AND MUL OR SWAP1 SSTORE POP DUP3 PUSH1 0x2 DUP2 SWAP1 SSTORE POP DUP2 PUSH1 0x7 DUP2 SWAP1 SSTORE POP DUP1 PUSH1 0x8 DUP2 SWAP1 SSTORE POP PUSH1 0x0 DUP1 PUSH1 0x0 SWAP1 POP PUSH1 0x0 DUP1 SWAP1 POP JUMPDEST DUP10 MLOAD DUP2 LT ISZERO PUSH3 0x453 JUMPI PUSH1 0x0 DUP11 DUP3 DUP2 MLOAD DUP2 LT PUSH3 0x288 JUMPI INVALID JUMPDEST PUSH1 0x20 MUL PUSH1 0x20 ADD ADD MLOAD SWAP1 POP PUSH1 0x0 DUP11 DUP4 DUP2 MLOAD DUP2 LT PUSH3 0x2A1 JUMPI INVALID JUMPDEST PUSH1 0x20 MUL PUSH1 0x20 ADD ADD MLOAD SWAP1 POP PUSH1 0x0 DUP2 GT PUSH3 0x2F1 JUMPI PUSH1 0x40 MLOAD PUSH32 0x8C379A000000000000000000000000000000000000000000000000000000000 DUP2 MSTORE PUSH1 0x4 ADD PUSH3 0x2E8 SWAP1 PUSH3 0xD2F JUMP JUMPDEST PUSH1 0x40 MLOAD DUP1 SWAP2 SUB SWAP1 REVERT JUMPDEST DUP4 PUSH20 0xFFFFFFFFFFFFFFFFFFFFFFFFFFFFFFFFFFFFFFFF AND DUP3 PUSH20 0xFFFFFFFFFFFFFFFFFFFFFFFFFFFFFFFFFFFFFFFF AND GT PUSH3 0x362 JUMPI PUSH1 0x40 MLOAD PUSH32 0x8C379A000000000000000000000000000000000000000000000000000000000 DUP2 MSTORE PUSH1 0x4 ADD PUSH3 0x359 SWAP1 PUSH3 0xD73 JUMP JUMPDEST PUSH1 0x40 MLOAD DUP1 SWAP2 SUB SWAP1 REVERT JUMPDEST DUP10 PUSH20 0xFFFFFFFFFFFFFFFFFFFFFFFFFFFFFFFFFFFFFFFF AND DUP3 PUSH20 0xFFFFFFFFFFFFFFFFFFFFFFFFFFFFFFFFFFFFFFFF AND EQ ISZERO PUSH3 0x3D4 JUMPI PUSH1 0x40 MLOAD PUSH32 0x8C379A000000000000000000000000000000000000000000000000000000000 DUP2 MSTORE PUSH1 0x4 ADD PUSH3 0x3CB SWAP1 PUSH3 0xCA7 JUMP JUMPDEST PUSH1 0x40 MLOAD DUP1 SWAP2 SUB SWAP1 REVERT JUMPDEST PUSH3 0x3F7 DUP2 DUP7 PUSH3 0x4A8 PUSH5 0x100000000 MUL PUSH3 0x1DCE OR SWAP1 SWAP2 SWAP1 PUSH5 0x100000000 SWAP1 DIV JUMP JUMPDEST SWAP5 POP DUP2 SWAP4 POP DUP1 PUSH1 0xB PUSH1 0x0 DUP5 PUSH20 0xFFFFFFFFFFFFFFFFFFFFFFFFFFFFFFFFFFFFFFFF AND PUSH20 0xFFFFFFFFFFFFFFFFFFFFFFFFFFFFFFFFFFFFFFFF AND DUP2 MSTORE PUSH1 0x20 ADD SWAP1 DUP2 MSTORE PUSH1 0x20 ADD PUSH1 0x0 KECCAK256 PUSH1 0x0 ADD DUP2 SWAP1 SSTORE POP POP POP DUP1 DUP1 PUSH1 0x1 ADD SWAP2 POP POP PUSH3 0x26F JUMP JUMPDEST POP DUP5 DUP3 EQ PUSH3 0x499 JUMPI PUSH1 0x40 MLOAD PUSH32 0x8C379A000000000000000000000000000000000000000000000000000000000 DUP2 MSTORE PUSH1 0x4 ADD PUSH3 0x490 SWAP1 PUSH3 0xCEB JUMP JUMPDEST PUSH1 0x40 MLOAD DUP1 SWAP2 SUB SWAP1 REVERT JUMPDEST POP POP POP POP POP POP POP POP POP PUSH3 0xE98 JUMP JUMPDEST PUSH1 0x0 DUP1 DUP3 DUP5 ADD SWAP1 POP DUP4 DUP2 LT ISZERO PUSH3 0x4F6 JUMPI PUSH1 0x40 MLOAD PUSH32 0x8C379A000000000000000000000000000000000000000000000000000000000 DUP2 MSTORE PUSH1 0x4 ADD PUSH3 0x4ED SWAP1 PUSH3 0xC41 JUMP JUMPDEST PUSH1 0x40 MLOAD DUP1 SWAP2 SUB SWAP1 REVERT JUMPDEST DUP1 SWAP2 POP POP SWAP3 SWAP2 POP POP JUMP JUMPDEST PUSH1 0x0 DUP2 MLOAD SWAP1 POP PUSH3 0x511 DUP2 PUSH3 0xE64 JUMP JUMPDEST SWAP3 SWAP2 POP POP JUMP JUMPDEST PUSH1 0x0 DUP3 PUSH1 0x1F DUP4 ADD SLT PUSH3 0x529 JUMPI PUSH1 0x0 DUP1 REVERT JUMPDEST DUP2 MLOAD PUSH3 0x540 PUSH3 0x53A DUP3 PUSH3 0xDC3 JUMP JUMPDEST PUSH3 0xD95 JUMP JUMPDEST SWAP2 POP DUP2 DUP2 DUP4 MSTORE PUSH1 0x20 DUP5 ADD SWAP4 POP PUSH1 0x20 DUP2 ADD SWAP1 POP DUP4 DUP6 PUSH1 0x20 DUP5 MUL DUP3 ADD GT ISZERO PUSH3 0x566 JUMPI PUSH1 0x0 DUP1 REVERT JUMPDEST PUSH1 0x0 JUMPDEST DUP4 DUP2 LT ISZERO PUSH3 0x59A JUMPI DUP2 PUSH3 0x57F DUP9 DUP3 PUSH3 0x500 JUMP JUMPDEST DUP5 MSTORE PUSH1 0x20 DUP5 ADD SWAP4 POP PUSH1 0x20 DUP4 ADD SWAP3 POP POP PUSH1 0x1 DUP2 ADD SWAP1 POP PUSH3 0x569 JUMP JUMPDEST POP POP POP POP SWAP3 SWAP2 POP POP JUMP JUMPDEST PUSH1 0x0 DUP3 PUSH1 0x1F DUP4 ADD SLT PUSH3 0x5B6 JUMPI PUSH1 0x0 DUP1 REVERT JUMPDEST DUP2 MLOAD PUSH3 0x5CD PUSH3 0x5C7 DUP3 PUSH3 0xDEC JUMP JUMPDEST PUSH3 0xD95 JUMP JUMPDEST SWAP2 POP DUP2 DUP2 DUP4 MSTORE PUSH1 0x20 DUP5 ADD SWAP4 POP PUSH1 0x20 DUP2 ADD SWAP1 POP DUP4 DUP6 PUSH1 0x20 DUP5 MUL DUP3 ADD GT ISZERO PUSH3 0x5F3 JUMPI PUSH1 0x0 DUP1 REVERT JUMPDEST PUSH1 0x0 JUMPDEST DUP4 DUP2 LT ISZERO PUSH3 0x627 JUMPI DUP2 PUSH3 0x60C DUP9 DUP3 PUSH3 0x631 JUMP JUMPDEST DUP5 MSTORE PUSH1 0x20 DUP5 ADD SWAP4 POP PUSH1 0x20 DUP4 ADD SWAP3 POP POP PUSH1 0x1 DUP2 ADD SWAP1 POP PUSH3 0x5F6 JUMP JUMPDEST POP POP POP POP SWAP3 SWAP2 POP POP JUMP JUMPDEST PUSH1 0x0 DUP2 MLOAD SWAP1 POP PUSH3 0x642 DUP2 PUSH3 0xE7E JUMP JUMPDEST SWAP3 SWAP2 POP POP JUMP JUMPDEST PUSH1 0x0 DUP1 PUSH1 0x0 DUP1 PUSH1 0x0 DUP1 PUSH1 0x0 PUSH1 0xE0 DUP9 DUP11 SUB SLT ISZERO PUSH3 0x664 JUMPI PUSH1 0x0 DUP1 REVERT JUMPDEST PUSH1 0x0 DUP9 ADD MLOAD PUSH8 0xFFFFFFFFFFFFFFFF DUP2 GT ISZERO PUSH3 0x67F JUMPI PUSH1 0x0 DUP1 REVERT JUMPDEST PUSH3 0x68D DUP11 DUP3 DUP12 ADD PUSH3 0x517 JUMP JUMPDEST SWAP8 POP POP PUSH1 0x20 DUP9 ADD MLOAD PUSH8 0xFFFFFFFFFFFFFFFF DUP2 GT ISZERO PUSH3 0x6AB JUMPI PUSH1 0x0 DUP1 REVERT JUMPDEST PUSH3 0x6B9 DUP11 DUP3 DUP12 ADD PUSH3 0x5A4 JUMP JUMPDEST SWAP7 POP POP PUSH1 0x40 PUSH3 0x6CC DUP11 DUP3 DUP12 ADD PUSH3 0x500 JUMP JUMPDEST SWAP6 POP POP PUSH1 0x60 PUSH3 0x6DF DUP11 DUP3 DUP12 ADD PUSH3 0x500 JUMP JUMPDEST SWAP5 POP POP PUSH1 0x80 PUSH3 0x6F2 DUP11 DUP3 DUP12 ADD PUSH3 0x631 JUMP JUMPDEST SWAP4 POP POP PUSH1 0xA0 PUSH3 0x705 DUP11 DUP3 DUP12 ADD PUSH3 0x631 JUMP JUMPDEST SWAP3 POP POP PUSH1 0xC0 PUSH3 0x718 DUP11 DUP3 DUP12 ADD PUSH3 0x631 JUMP JUMPDEST SWAP2 POP POP SWAP3 SWAP6 SWAP9 SWAP2 SWAP5 SWAP8 POP SWAP3 SWAP6 POP JUMP JUMPDEST PUSH1 0x0 PUSH3 0x736 PUSH1 0x1B DUP4 PUSH3 0xE15 JUMP JUMPDEST SWAP2 POP PUSH32 0x536166654D6174683A206164646974696F6E206F766572666C6F770000000000 PUSH1 0x0 DUP4 ADD MSTORE PUSH1 0x20 DUP3 ADD SWAP1 POP SWAP2 SWAP1 POP JUMP JUMPDEST PUSH1 0x0 PUSH3 0x778 PUSH1 0x3E DUP4 PUSH3 0xE15 JUMP JUMPDEST SWAP2 POP PUSH32 0x636F6E7374727563746F723A3A496E76616C696420417267756D656E742E204D PUSH1 0x0 DUP4 ADD MSTORE PUSH32 0x7573742068617665206F6E65206F72206D6F7265206772616E746565732E0000 PUSH1 0x20 DUP4 ADD MSTORE PUSH1 0x40 DUP3 ADD SWAP1 POP SWAP2 SWAP1 POP JUMP JUMPDEST PUSH1 0x0 PUSH3 0x7E0 PUSH1 0x5D DUP4 PUSH3 0xE15 JUMP JUMPDEST SWAP2 POP PUSH32 0x636F6E7374727563746F723A3A496E76616C696420417267756D656E742E205F PUSH1 0x0 DUP4 ADD MSTORE PUSH32 0x66756E64696E6745787069726174696F6E206D7573742062652030206F72206C PUSH1 0x20 DUP4 ADD MSTORE PUSH32 0x657373207468616E205F636F6E747261637445787069726174696F6E2E000000 PUSH1 0x40 DUP4 ADD MSTORE PUSH1 0x60 DUP3 ADD SWAP1 POP SWAP2 SWAP1 POP JUMP JUMPDEST PUSH1 0x0 PUSH3 0x86E PUSH1 0x3C DUP4 PUSH3 0xE15 JUMP JUMPDEST SWAP2 POP PUSH32 0x636F6E7374727563746F723A3A496E76616C696420417267756D656E742E205F PUSH1 0x0 DUP4 ADD MSTORE PUSH32 0x6D616E616765722063616E6E6F742062652061204772616E7465652E00000000 PUSH1 0x20 DUP4 ADD MSTORE PUSH1 0x40 DUP3 ADD SWAP1 POP SWAP2 SWAP1 POP JUMP JUMPDEST PUSH1 0x0 PUSH3 0x8D6 PUSH1 0x59 DUP4 PUSH3 0xE15 JUMP JUMPDEST SWAP2 POP PUSH32 0x636F6E7374727563746F723A3A496E76616C696420417267756D656E742E205F PUSH1 0x0 DUP4 ADD MSTORE PUSH32 0x66756E64696E6745787069726174696F6E206D7573742062652030206F722067 PUSH1 0x20 DUP4 ADD MSTORE PUSH32 0x726561746572207468616E2063757272656E7420646174652E00000000000000 PUSH1 0x40 DUP4 ADD MSTORE PUSH1 0x60 DUP3 ADD SWAP1 POP SWAP2 SWAP1 POP JUMP JUMPDEST PUSH1 0x0 PUSH3 0x964 PUSH1 0x5D DUP4 PUSH3 0xE15 JUMP JUMPDEST SWAP2 POP PUSH32 0x636F6E7374727563746F723A3A496E76616C696420417267756D656E742E205F PUSH1 0x0 DUP4 ADD MSTORE PUSH32 0x74617267657446756E64696E67206D75737420657175616C207468652073756D PUSH1 0x20 DUP4 ADD MSTORE PUSH32 0x206F662076616C75657320696E205F616D6F756E74732061727261792E000000 PUSH1 0x40 DUP4 ADD MSTORE PUSH1 0x60 DUP3 ADD SWAP1 POP SWAP2 SWAP1 POP JUMP JUMPDEST PUSH1 0x0 PUSH3 0x9F2 PUSH1 0x55 DUP4 PUSH3 0xE15 JUMP JUMPDEST SWAP2 POP PUSH32 0x636F6E7374727563746F723A3A496E76616C696420417267756D656E742E205F PUSH1 0x0 DUP4 ADD MSTORE PUSH32 0x6772616E7465657320616E64205F616D6F756E747320617272617973206D7573 PUSH1 0x20 DUP4 ADD MSTORE PUSH32 0x74206265206F6620657175616C206C656E6774682E0000000000000000000000 PUSH1 0x40 DUP4 ADD MSTORE PUSH1 0x60 DUP3 ADD SWAP1 POP SWAP2 SWAP1 POP JUMP JUMPDEST PUSH1 0x0 PUSH3 0xA80 PUSH1 0x5B DUP4 PUSH3 0xE15 JUMP JUMPDEST SWAP2 POP PUSH32 0x636F6E7374727563746F723A3A496E76616C696420417267756D656E742E2047 PUSH1 0x0 DUP4 ADD MSTORE PUSH32 0x72616E746565277320616C6C6F636174696F6E202863757272656E74416D6F75 PUSH1 0x20 DUP4 ADD MSTORE PUSH32 0x6E7429206D7573742062652067726561746572207468616E20302E0000000000 PUSH1 0x40 DUP4 ADD MSTORE PUSH1 0x60 DUP3 ADD SWAP1 POP SWAP2 SWAP1 POP JUMP JUMPDEST PUSH1 0x0 PUSH3 0xB0E PUSH1 0x5A DUP4 PUSH3 0xE15 JUMP JUMPDEST SWAP2 POP PUSH32 0x636F6E7374727563746F723A3A496E76616C696420417267756D656E742E205F PUSH1 0x0 DUP4 ADD MSTORE PUSH32 0x636F6E747261637445787069726174696F6E206D7573742062652030206F7220 PUSH1 0x20 DUP4 ADD MSTORE PUSH32 0x67726561746572207468616E2063757272656E7420646174652E000000000000 PUSH1 0x40 DUP4 ADD MSTORE PUSH1 0x60 DUP3 ADD SWAP1 POP SWAP2 SWAP1 POP JUMP JUMPDEST PUSH1 0x0 PUSH3 0xB9C PUSH1 0x6D DUP4 PUSH3 0xE15 JUMP JUMPDEST SWAP2 POP PUSH32 0x636F6E7374727563746F723A3A496E76616C696420417267756D656E742E2047 PUSH1 0x0 DUP4 ADD MSTORE PUSH32 0x72616E74656527732061646472657373206172726179206D7573742062652064 PUSH1 0x20 DUP4 ADD MSTORE PUSH32 0x75706C6963617465206672656520616E6420736F7274656420736D616C6C6573 PUSH1 0x40 DUP4 ADD MSTORE PUSH32 0x7420746F206C6172676573742E00000000000000000000000000000000000000 PUSH1 0x60 DUP4 ADD MSTORE PUSH1 0x80 DUP3 ADD SWAP1 POP SWAP2 SWAP1 POP JUMP JUMPDEST PUSH1 0x0 PUSH1 0x20 DUP3 ADD SWAP1 POP DUP2 DUP2 SUB PUSH1 0x0 DUP4 ADD MSTORE PUSH3 0xC5C DUP2 PUSH3 0x727 JUMP JUMPDEST SWAP1 POP SWAP2 SWAP1 POP JUMP JUMPDEST PUSH1 0x0 PUSH1 0x20 DUP3 ADD SWAP1 POP DUP2 DUP2 SUB PUSH1 0x0 DUP4 ADD MSTORE PUSH3 0xC7E DUP2 PUSH3 0x769 JUMP JUMPDEST SWAP1 POP SWAP2 SWAP1 POP JUMP JUMPDEST PUSH1 0x0 PUSH1 0x20 DUP3 ADD SWAP1 POP DUP2 DUP2 SUB PUSH1 0x0 DUP4 ADD MSTORE PUSH3 0xCA0 DUP2 PUSH3 0x7D1 JUMP JUMPDEST SWAP1 POP SWAP2 SWAP1 POP JUMP JUMPDEST PUSH1 0x0 PUSH1 0x20 DUP3 ADD SWAP1 POP DUP2 DUP2 SUB PUSH1 0x0 DUP4 ADD MSTORE PUSH3 0xCC2 DUP2 PUSH3 0x85F JUMP JUMPDEST SWAP1 POP SWAP2 SWAP1 POP JUMP JUMPDEST PUSH1 0x0 PUSH1 0x20 DUP3 ADD SWAP1 POP DUP2 DUP2 SUB PUSH1 0x0 DUP4 ADD MSTORE PUSH3 0xCE4 DUP2 PUSH3 0x8C7 JUMP JUMPDEST SWAP1 POP SWAP2 SWAP1 POP JUMP JUMPDEST PUSH1 0x0 PUSH1 0x20 DUP3 ADD SWAP1 POP DUP2 DUP2 SUB PUSH1 0x0 DUP4 ADD MSTORE PUSH3 0xD06 DUP2 PUSH3 0x955 JUMP JUMPDEST SWAP1 POP SWAP2 SWAP1 POP JUMP JUMPDEST PUSH1 0x0 PUSH1 0x20 DUP3 ADD SWAP1 POP DUP2 DUP2 SUB PUSH1 0x0 DUP4 ADD MSTORE PUSH3 0xD28 DUP2 PUSH3 0x9E3 JUMP JUMPDEST SWAP1 POP SWAP2 SWAP1 POP JUMP JUMPDEST PUSH1 0x0 PUSH1 0x20 DUP3 ADD SWAP1 POP DUP2 DUP2 SUB PUSH1 0x0 DUP4 ADD MSTORE PUSH3 0xD4A DUP2 PUSH3 0xA71 JUMP JUMPDEST SWAP1 POP SWAP2 SWAP1 POP JUMP JUMPDEST PUSH1 0x0 PUSH1 0x20 DUP3 ADD SWAP1 POP DUP2 DUP2 SUB PUSH1 0x0 DUP4 ADD MSTORE PUSH3 0xD6C DUP2 PUSH3 0xAFF JUMP JUMPDEST SWAP1 POP SWAP2 SWAP1 POP JUMP JUMPDEST PUSH1 0x0 PUSH1 0x20 DUP3 ADD SWAP1 POP DUP2 DUP2 SUB PUSH1 0x0 DUP4 ADD MSTORE PUSH3 0xD8E DUP2 PUSH3 0xB8D JUMP JUMPDEST SWAP1 POP SWAP2 SWAP1 POP JUMP JUMPDEST PUSH1 0x0 PUSH1 0x40 MLOAD SWAP1 POP DUP2 DUP2 ADD DUP2 DUP2 LT PUSH8 0xFFFFFFFFFFFFFFFF DUP3 GT OR ISZERO PUSH3 0xDB9 JUMPI PUSH1 0x0 DUP1 REVERT JUMPDEST DUP1 PUSH1 0x40 MSTORE POP SWAP2 SWAP1 POP JUMP JUMPDEST PUSH1 0x0 PUSH8 0xFFFFFFFFFFFFFFFF DUP3 GT ISZERO PUSH3 0xDDB JUMPI PUSH1 0x0 DUP1 REVERT JUMPDEST PUSH1 0x20 DUP3 MUL SWAP1 POP PUSH1 0x20 DUP2 ADD SWAP1 POP SWAP2 SWAP1 POP JUMP JUMPDEST PUSH1 0x0 PUSH8 0xFFFFFFFFFFFFFFFF DUP3 GT ISZERO PUSH3 0xE04 JUMPI PUSH1 0x0 DUP1 REVERT JUMPDEST PUSH1 0x20 DUP3 MUL SWAP1 POP PUSH1 0x20 DUP2 ADD SWAP1 POP SWAP2 SWAP1 POP JUMP JUMPDEST PUSH1 0x0 DUP3 DUP3 MSTORE PUSH1 0x20 DUP3 ADD SWAP1 POP SWAP3 SWAP2 POP POP JUMP JUMPDEST PUSH1 0x0 PUSH3 0xE33 DUP3 PUSH3 0xE3A JUMP JUMPDEST SWAP1 POP SWAP2 SWAP1 POP JUMP JUMPDEST PUSH1 0x0 PUSH20 0xFFFFFFFFFFFFFFFFFFFFFFFFFFFFFFFFFFFFFFFF DUP3 AND SWAP1 POP SWAP2 SWAP1 POP JUMP JUMPDEST PUSH1 0x0 DUP2 SWAP1 POP SWAP2 SWAP1 POP JUMP JUMPDEST PUSH3 0xE6F DUP2 PUSH3 0xE26 JUMP JUMPDEST DUP2 EQ PUSH3 0xE7B JUMPI PUSH1 0x0 DUP1 REVERT JUMPDEST POP JUMP JUMPDEST PUSH3 0xE89 DUP2 PUSH3 0xE5A JUMP JUMPDEST DUP2 EQ PUSH3 0xE95 JUMPI PUSH1 0x0 DUP1 REVERT JUMPDEST POP JUMP JUMPDEST PUSH2 0x3788 DUP1 PUSH3 0xEA8 PUSH1 0x0 CODECOPY PUSH1 0x0 RETURN INVALID PUSH1 0x80 PUSH1 0x40 MSTORE PUSH1 0x4 CALLDATASIZE LT PUSH2 0x183 JUMPI PUSH1 0x0 CALLDATALOAD PUSH29 0x100000000000000000000000000000000000000000000000000000000 SWAP1 DIV DUP1 PUSH4 0x842CF62F GT PUSH2 0xEE JUMPI DUP1 PUSH4 0xD2EF575E GT PUSH2 0xA7 JUMPI DUP1 PUSH4 0xF3AE2415 GT PUSH2 0x81 JUMPI DUP1 PUSH4 0xF3AE2415 EQ PUSH2 0x584 JUMPI DUP1 PUSH4 0xF4D42453 EQ PUSH2 0x5C1 JUMPI DUP1 PUSH4 0xF91C9504 EQ PUSH2 0x5EC JUMPI DUP1 PUSH4 0xFE47A8A7 EQ PUSH2 0x617 JUMPI PUSH2 0x183 JUMP JUMPDEST DUP1 PUSH4 0xD2EF575E EQ PUSH2 0x4FE JUMPI DUP1 PUSH4 0xD9082962 EQ PUSH2 0x52E JUMPI DUP1 PUSH4 0xE5A6B10F EQ PUSH2 0x559 JUMPI PUSH2 0x183 JUMP JUMPDEST DUP1 PUSH4 0x842CF62F EQ PUSH2 0x3C7 JUMPI DUP1 PUSH4 0xA16C86F7 EQ PUSH2 0x3F0 JUMPI DUP1 PUSH4 0xA814001F EQ PUSH2 0x42D JUMPI DUP1 PUSH4 0xBC579103 EQ PUSH2 0x458 JUMPI DUP1 PUSH4 0xCA0CDEA8 EQ PUSH2 0x483 JUMPI DUP1 PUSH4 0xCA1D209D EQ PUSH2 0x4C1 JUMPI PUSH2 0x183 JUMP JUMPDEST DUP1 PUSH4 0x4A8EB32F GT PUSH2 0x140 JUMPI DUP1 PUSH4 0x4A8EB32F EQ PUSH2 0x2C5 JUMPI DUP1 PUSH4 0x56039D6E EQ PUSH2 0x2F0 JUMPI DUP1 PUSH4 0x589596B7 EQ PUSH2 0x31B JUMPI DUP1 PUSH4 0x6491768F EQ PUSH2 0x35A JUMPI DUP1 PUSH4 0x6F9FB98A EQ PUSH2 0x371 JUMPI DUP1 PUSH4 0x809DAB6A EQ PUSH2 0x39C JUMPI PUSH2 0x183 JUMP JUMPDEST DUP1 PUSH4 0x161D0770 EQ PUSH2 0x18F JUMPI DUP1 PUSH4 0x16FECBB2 EQ PUSH2 0x1CC JUMPI DUP1 PUSH4 0x2BC3D7AA EQ PUSH2 0x1F7 JUMPI DUP1 PUSH4 0x2F3BE790 EQ PUSH2 0x234 JUMPI DUP1 PUSH4 0x348A71A6 EQ PUSH2 0x271 JUMPI DUP1 PUSH4 0x481C6A75 EQ PUSH2 0x29A JUMPI JUMPDEST PUSH2 0x18C CALLVALUE PUSH2 0x642 JUMP JUMPDEST POP STOP JUMPDEST CALLVALUE DUP1 ISZERO PUSH2 0x19B JUMPI PUSH1 0x0 DUP1 REVERT JUMPDEST POP PUSH2 0x1B6 PUSH1 0x4 DUP1 CALLDATASIZE SUB PUSH2 0x1B1 SWAP2 SWAP1 DUP2 ADD SWAP1 PUSH2 0x221F JUMP JUMPDEST PUSH2 0x943 JUMP JUMPDEST PUSH1 0x40 MLOAD PUSH2 0x1C3 SWAP2 SWAP1 PUSH2 0x31FB JUMP JUMPDEST PUSH1 0x40 MLOAD DUP1 SWAP2 SUB SWAP1 RETURN JUMPDEST CALLVALUE DUP1 ISZERO PUSH2 0x1D8 JUMPI PUSH1 0x0 DUP1 REVERT JUMPDEST POP PUSH2 0x1E1 PUSH2 0xD72 JUMP JUMPDEST PUSH1 0x40 MLOAD PUSH2 0x1EE SWAP2 SWAP1 PUSH2 0x35F6 JUMP JUMPDEST PUSH1 0x40 MLOAD DUP1 SWAP2 SUB SWAP1 RETURN JUMPDEST CALLVALUE DUP1 ISZERO PUSH2 0x203 JUMPI PUSH1 0x0 DUP1 REVERT JUMPDEST POP PUSH2 0x21E PUSH1 0x4 DUP1 CALLDATASIZE SUB PUSH2 0x219 SWAP2 SWAP1 DUP2 ADD SWAP1 PUSH2 0x21F6 JUMP JUMPDEST PUSH2 0xD78 JUMP JUMPDEST PUSH1 0x40 MLOAD PUSH2 0x22B SWAP2 SWAP1 PUSH2 0x31FB JUMP JUMPDEST PUSH1 0x40 MLOAD DUP1 SWAP2 SUB SWAP1 RETURN JUMPDEST CALLVALUE DUP1 ISZERO PUSH2 0x240 JUMPI PUSH1 0x0 DUP1 REVERT JUMPDEST POP PUSH2 0x25B PUSH1 0x4 DUP1 CALLDATASIZE SUB PUSH2 0x256 SWAP2 SWAP1 DUP2 ADD SWAP1 PUSH2 0x21F6 JUMP JUMPDEST PUSH2 0xDC6 JUMP JUMPDEST PUSH1 0x40 MLOAD PUSH2 0x268 SWAP2 SWAP1 PUSH2 0x31FB JUMP JUMPDEST PUSH1 0x40 MLOAD DUP1 SWAP2 SUB SWAP1 RETURN JUMPDEST CALLVALUE DUP1 ISZERO PUSH2 0x27D JUMPI PUSH1 0x0 DUP1 REVERT JUMPDEST POP PUSH2 0x298 PUSH1 0x4 DUP1 CALLDATASIZE SUB PUSH2 0x293 SWAP2 SWAP1 DUP2 ADD SWAP1 PUSH2 0x2284 JUMP JUMPDEST PUSH2 0xE14 JUMP JUMPDEST STOP JUMPDEST CALLVALUE DUP1 ISZERO PUSH2 0x2A6 JUMPI PUSH1 0x0 DUP1 REVERT JUMPDEST POP PUSH2 0x2AF PUSH2 0xEFF JUMP JUMPDEST PUSH1 0x40 MLOAD PUSH2 0x2BC SWAP2 SWAP1 PUSH2 0x3157 JUMP JUMPDEST PUSH1 0x40 MLOAD DUP1 SWAP2 SUB SWAP1 RETURN JUMPDEST CALLVALUE DUP1 ISZERO PUSH2 0x2D1 JUMPI PUSH1 0x0 DUP1 REVERT JUMPDEST POP PUSH2 0x2DA PUSH2 0xF24 JUMP JUMPDEST PUSH1 0x40 MLOAD PUSH2 0x2E7 SWAP2 SWAP1 PUSH2 0x35F6 JUMP JUMPDEST PUSH1 0x40 MLOAD DUP1 SWAP2 SUB SWAP1 RETURN JUMPDEST CALLVALUE DUP1 ISZERO PUSH2 0x2FC JUMPI PUSH1 0x0 DUP1 REVERT JUMPDEST POP PUSH2 0x305 PUSH2 0xF2A JUMP JUMPDEST PUSH1 0x40 MLOAD PUSH2 0x312 SWAP2 SWAP1 PUSH2 0x31FB JUMP JUMPDEST PUSH1 0x40 MLOAD DUP1 SWAP2 SUB SWAP1 RETURN JUMPDEST CALLVALUE DUP1 ISZERO PUSH2 0x327 JUMPI PUSH1 0x0 DUP1 REVERT JUMPDEST POP PUSH2 0x342 PUSH1 0x4 DUP1 CALLDATASIZE SUB PUSH2 0x33D SWAP2 SWAP1 DUP2 ADD SWAP1 PUSH2 0x21F6 JUMP JUMPDEST PUSH2 0xF3D JUMP JUMPDEST PUSH1 0x40 MLOAD PUSH2 0x351 SWAP4 SWAP3 SWAP2 SWAP1 PUSH2 0x363A JUMP JUMPDEST PUSH1 0x40 MLOAD DUP1 SWAP2 SUB SWAP1 RETURN JUMPDEST CALLVALUE DUP1 ISZERO PUSH2 0x366 JUMPI PUSH1 0x0 DUP1 REVERT JUMPDEST POP PUSH2 0x36F PUSH2 0xF67 JUMP JUMPDEST STOP JUMPDEST CALLVALUE DUP1 ISZERO PUSH2 0x37D JUMPI PUSH1 0x0 DUP1 REVERT JUMPDEST POP PUSH2 0x386 PUSH2 0x108D JUMP JUMPDEST PUSH1 0x40 MLOAD PUSH2 0x393 SWAP2 SWAP1 PUSH2 0x35F6 JUMP JUMPDEST PUSH1 0x40 MLOAD DUP1 SWAP2 SUB SWAP1 RETURN JUMPDEST CALLVALUE DUP1 ISZERO PUSH2 0x3A8 JUMPI PUSH1 0x0 DUP1 REVERT JUMPDEST POP PUSH2 0x3B1 PUSH2 0x10BF JUMP JUMPDEST PUSH1 0x40 MLOAD PUSH2 0x3BE SWAP2 SWAP1 PUSH2 0x35F6 JUMP JUMPDEST PUSH1 0x40 MLOAD DUP1 SWAP2 SUB SWAP1 RETURN JUMPDEST CALLVALUE DUP1 ISZERO PUSH2 0x3D3 JUMPI PUSH1 0x0 DUP1 REVERT JUMPDEST POP PUSH2 0x3EE PUSH1 0x4 DUP1 CALLDATASIZE SUB PUSH2 0x3E9 SWAP2 SWAP1 DUP2 ADD SWAP1 PUSH2 0x221F JUMP JUMPDEST PUSH2 0x1105 JUMP JUMPDEST STOP JUMPDEST CALLVALUE DUP1 ISZERO PUSH2 0x3FC JUMPI PUSH1 0x0 DUP1 REVERT JUMPDEST POP PUSH2 0x417 PUSH1 0x4 DUP1 CALLDATASIZE SUB PUSH2 0x412 SWAP2 SWAP1 DUP2 ADD SWAP1 PUSH2 0x21F6 JUMP JUMPDEST PUSH2 0x141E JUMP JUMPDEST PUSH1 0x40 MLOAD PUSH2 0x424 SWAP2 SWAP1 PUSH2 0x31FB JUMP JUMPDEST PUSH1 0x40 MLOAD DUP1 SWAP2 SUB SWAP1 RETURN JUMPDEST CALLVALUE DUP1 ISZERO PUSH2 0x439 JUMPI PUSH1 0x0 DUP1 REVERT JUMPDEST POP PUSH2 0x442 PUSH2 0x18C3 JUMP JUMPDEST PUSH1 0x40 MLOAD PUSH2 0x44F SWAP2 SWAP1 PUSH2 0x35F6 JUMP JUMPDEST PUSH1 0x40 MLOAD DUP1 SWAP2 SUB SWAP1 RETURN JUMPDEST CALLVALUE DUP1 ISZERO PUSH2 0x464 JUMPI PUSH1 0x0 DUP1 REVERT JUMPDEST POP PUSH2 0x46D PUSH2 0x18C9 JUMP JUMPDEST PUSH1 0x40 MLOAD PUSH2 0x47A SWAP2 SWAP1 PUSH2 0x35F6 JUMP JUMPDEST PUSH1 0x40 MLOAD DUP1 SWAP2 SUB SWAP1 RETURN JUMPDEST CALLVALUE DUP1 ISZERO PUSH2 0x48F JUMPI PUSH1 0x0 DUP1 REVERT JUMPDEST POP PUSH2 0x4AA PUSH1 0x4 DUP1 CALLDATASIZE SUB PUSH2 0x4A5 SWAP2 SWAP1 DUP2 ADD SWAP1 PUSH2 0x21F6 JUMP JUMPDEST PUSH2 0x18CF JUMP JUMPDEST PUSH1 0x40 MLOAD PUSH2 0x4B8 SWAP3 SWAP2 SWAP1 PUSH2 0x3611 JUMP JUMPDEST PUSH1 0x40 MLOAD DUP1 SWAP2 SUB SWAP1 RETURN JUMPDEST CALLVALUE DUP1 ISZERO PUSH2 0x4CD JUMPI PUSH1 0x0 DUP1 REVERT JUMPDEST POP PUSH2 0x4E8 PUSH1 0x4 DUP1 CALLDATASIZE SUB PUSH2 0x4E3 SWAP2 SWAP1 DUP2 ADD SWAP1 PUSH2 0x2284 JUMP JUMPDEST PUSH2 0x642 JUMP JUMPDEST PUSH1 0x40 MLOAD PUSH2 0x4F5 SWAP2 SWAP1 PUSH2 0x31FB JUMP JUMPDEST PUSH1 0x40 MLOAD DUP1 SWAP2 SUB SWAP1 RETURN JUMPDEST PUSH2 0x518 PUSH1 0x4 DUP1 CALLDATASIZE SUB PUSH2 0x513 SWAP2 SWAP1 DUP2 ADD SWAP1 PUSH2 0x2284 JUMP JUMPDEST PUSH2 0x18F3 JUMP JUMPDEST PUSH1 0x40 MLOAD PUSH2 0x525 SWAP2 SWAP1 PUSH2 0x31FB JUMP JUMPDEST PUSH1 0x40 MLOAD DUP1 SWAP2 SUB SWAP1 RETURN JUMPDEST CALLVALUE DUP1 ISZERO PUSH2 0x53A JUMPI PUSH1 0x0 DUP1 REVERT JUMPDEST POP PUSH2 0x543 PUSH2 0x1D37 JUMP JUMPDEST PUSH1 0x40 MLOAD PUSH2 0x550 SWAP2 SWAP1 PUSH2 0x35F6 JUMP JUMPDEST PUSH1 0x40 MLOAD DUP1 SWAP2 SUB SWAP1 RETURN JUMPDEST CALLVALUE DUP1 ISZERO PUSH2 0x565 JUMPI PUSH1 0x0 DUP1 REVERT JUMPDEST POP PUSH2 0x56E PUSH2 0x1D3D JUMP JUMPDEST PUSH1 0x40 MLOAD PUSH2 0x57B SWAP2 SWAP1 PUSH2 0x3157 JUMP JUMPDEST PUSH1 0x40 MLOAD DUP1 SWAP2 SUB SWAP1 RETURN JUMPDEST CALLVALUE DUP1 ISZERO PUSH2 0x590 JUMPI PUSH1 0x0 DUP1 REVERT JUMPDEST POP PUSH2 0x5AB PUSH1 0x4 DUP1 CALLDATASIZE SUB PUSH2 0x5A6 SWAP2 SWAP1 DUP2 ADD SWAP1 PUSH2 0x21F6 JUMP JUMPDEST PUSH2 0x1D63 JUMP JUMPDEST PUSH1 0x40 MLOAD PUSH2 0x5B8 SWAP2 SWAP1 PUSH2 0x31FB JUMP JUMPDEST PUSH1 0x40 MLOAD DUP1 SWAP2 SUB SWAP1 RETURN JUMPDEST CALLVALUE DUP1 ISZERO PUSH2 0x5CD JUMPI PUSH1 0x0 DUP1 REVERT JUMPDEST POP PUSH2 0x5D6 PUSH2 0x1DBC JUMP JUMPDEST PUSH1 0x40 MLOAD PUSH2 0x5E3 SWAP2 SWAP1 PUSH2 0x35F6 JUMP JUMPDEST PUSH1 0x40 MLOAD DUP1 SWAP2 SUB SWAP1 RETURN JUMPDEST CALLVALUE DUP1 ISZERO PUSH2 0x5F8 JUMPI PUSH1 0x0 DUP1 REVERT JUMPDEST POP PUSH2 0x601 PUSH2 0x1DC2 JUMP JUMPDEST PUSH1 0x40 MLOAD PUSH2 0x60E SWAP2 SWAP1 PUSH2 0x35F6 JUMP JUMPDEST PUSH1 0x40 MLOAD DUP1 SWAP2 SUB SWAP1 RETURN JUMPDEST CALLVALUE DUP1 ISZERO PUSH2 0x623 JUMPI PUSH1 0x0 DUP1 REVERT JUMPDEST POP PUSH2 0x62C PUSH2 0x1DC8 JUMP JUMPDEST PUSH1 0x40 MLOAD PUSH2 0x639 SWAP2 SWAP1 PUSH2 0x35F6 JUMP JUMPDEST PUSH1 0x40 MLOAD DUP1 SWAP2 SUB SWAP1 RETURN JUMPDEST PUSH1 0x0 PUSH1 0x1 PUSH1 0xD PUSH1 0x0 DUP3 DUP3 SLOAD ADD SWAP3 POP POP DUP2 SWAP1 SSTORE POP PUSH1 0x0 PUSH1 0xD SLOAD SWAP1 POP PUSH1 0x2 SLOAD PUSH1 0x3 SLOAD LT PUSH2 0x6A2 JUMPI PUSH1 0x40 MLOAD PUSH32 0x8C379A000000000000000000000000000000000000000000000000000000000 DUP2 MSTORE PUSH1 0x4 ADD PUSH2 0x699 SWAP1 PUSH2 0x3416 JUMP JUMPDEST PUSH1 0x40 MLOAD DUP1 SWAP2 SUB SWAP1 REVERT JUMPDEST PUSH1 0x0 PUSH1 0x7 SLOAD EQ DUP1 PUSH2 0x6B4 JUMPI POP TIMESTAMP PUSH1 0x7 SLOAD GT JUMPDEST PUSH2 0x6F3 JUMPI PUSH1 0x40 MLOAD PUSH32 0x8C379A000000000000000000000000000000000000000000000000000000000 DUP2 MSTORE PUSH1 0x4 ADD PUSH2 0x6EA SWAP1 PUSH2 0x35B6 JUMP JUMPDEST PUSH1 0x40 MLOAD DUP1 SWAP2 SUB SWAP1 REVERT JUMPDEST PUSH1 0x0 PUSH2 0x70A DUP5 PUSH1 0x3 SLOAD PUSH2 0x1DCE SWAP1 SWAP2 SWAP1 PUSH4 0xFFFFFFFF AND JUMP JUMPDEST SWAP1 POP PUSH1 0x0 PUSH1 0x2 SLOAD DUP3 GT ISZERO PUSH2 0x735 JUMPI PUSH2 0x72D PUSH1 0x2 SLOAD DUP4 PUSH2 0x1E23 SWAP1 SWAP2 SWAP1 PUSH4 0xFFFFFFFF AND JUMP JUMPDEST SWAP1 POP PUSH1 0x2 SLOAD SWAP2 POP JUMPDEST PUSH2 0x79C DUP2 PUSH2 0x78E DUP8 PUSH1 0xC PUSH1 0x0 CALLER PUSH20 0xFFFFFFFFFFFFFFFFFFFFFFFFFFFFFFFFFFFFFFFF AND PUSH20 0xFFFFFFFFFFFFFFFFFFFFFFFFFFFFFFFFFFFFFFFF AND DUP2 MSTORE PUSH1 0x20 ADD SWAP1 DUP2 MSTORE PUSH1 0x20 ADD PUSH1 0x0 KECCAK256 PUSH1 0x0 ADD SLOAD PUSH2 0x1DCE SWAP1 SWAP2 SWAP1 PUSH4 0xFFFFFFFF AND JUMP JUMPDEST PUSH2 0x1E23 SWAP1 SWAP2 SWAP1 PUSH4 0xFFFFFFFF AND JUMP JUMPDEST PUSH1 0xC PUSH1 0x0 CALLER PUSH20 0xFFFFFFFFFFFFFFFFFFFFFFFFFFFFFFFFFFFFFFFF AND PUSH20 0xFFFFFFFFFFFFFFFFFFFFFFFFFFFFFFFFFFFFFFFF AND DUP2 MSTORE PUSH1 0x20 ADD SWAP1 DUP2 MSTORE PUSH1 0x20 ADD PUSH1 0x0 KECCAK256 PUSH1 0x0 ADD DUP2 SWAP1 SSTORE POP DUP2 PUSH1 0x3 DUP2 SWAP1 SSTORE POP PUSH1 0x0 PUSH20 0xFFFFFFFFFFFFFFFFFFFFFFFFFFFFFFFFFFFFFFFF AND PUSH1 0x1 PUSH1 0x0 SWAP1 SLOAD SWAP1 PUSH2 0x100 EXP SWAP1 DIV PUSH20 0xFFFFFFFFFFFFFFFFFFFFFFFFFFFFFFFFFFFFFFFF AND PUSH20 0xFFFFFFFFFFFFFFFFFFFFFFFFFFFFFFFFFFFFFFFF AND EQ ISZERO PUSH2 0x84F JUMPI PUSH2 0x84A DUP6 DUP3 PUSH2 0x1E79 JUMP JUMPDEST PUSH2 0x85A JUMP JUMPDEST PUSH2 0x859 DUP6 DUP3 PUSH2 0x1F80 JUMP JUMPDEST JUMPDEST CALLER PUSH20 0xFFFFFFFFFFFFFFFFFFFFFFFFFFFFFFFFFFFFFFFF AND PUSH32 0x9F1A5E1A5D3381F9AF1A62F8D61E4AE71444E28AF488786CB10C8B2B457632AE PUSH2 0x8A5 DUP4 DUP9 PUSH2 0x1E23 SWAP1 SWAP2 SWAP1 PUSH4 0xFFFFFFFF AND JUMP JUMPDEST PUSH1 0x40 MLOAD PUSH2 0x8B2 SWAP2 SWAP1 PUSH2 0x35F6 JUMP JUMPDEST PUSH1 0x40 MLOAD DUP1 SWAP2 SUB SWAP1 LOG2 PUSH1 0x2 SLOAD PUSH1 0x3 SLOAD EQ ISZERO PUSH2 0x8F3 JUMPI PUSH32 0x512829C8DAB135587881316E27C9E1CD524033B3DAF7AE881D2C801943EA9381 PUSH1 0x40 MLOAD PUSH1 0x40 MLOAD DUP1 SWAP2 SUB SWAP1 LOG1 JUMPDEST PUSH1 0x1 SWAP4 POP POP POP PUSH1 0xD SLOAD DUP2 EQ PUSH2 0x93D JUMPI PUSH1 0x40 MLOAD PUSH32 0x8C379A000000000000000000000000000000000000000000000000000000000 DUP2 MSTORE PUSH1 0x4 ADD PUSH2 0x934 SWAP1 PUSH2 0x3576 JUMP JUMPDEST PUSH1 0x40 MLOAD DUP1 SWAP2 SUB SWAP1 REVERT JUMPDEST POP SWAP2 SWAP1 POP JUMP JUMPDEST PUSH1 0x0 PUSH1 0x1 PUSH1 0xD PUSH1 0x0 DUP3 DUP3 SLOAD ADD SWAP3 POP POP DUP2 SWAP1 SSTORE POP PUSH1 0x0 PUSH1 0xD SLOAD SWAP1 POP DUP3 PUSH1 0xB PUSH1 0x0 DUP7 PUSH20 0xFFFFFFFFFFFFFFFFFFFFFFFFFFFFFFFFFFFFFFFF AND PUSH20 0xFFFFFFFFFFFFFFFFFFFFFFFFFFFFFFFFFFFFFFFF AND DUP2 MSTORE PUSH1 0x20 ADD SWAP1 DUP2 MSTORE PUSH1 0x20 ADD PUSH1 0x0 KECCAK256 PUSH1 0x2 ADD SLOAD EQ PUSH2 0x9E1 JUMPI PUSH1 0x40 MLOAD PUSH32 0x8C379A000000000000000000000000000000000000000000000000000000000 DUP2 MSTORE PUSH1 0x4 ADD PUSH2 0x9D8 SWAP1 PUSH2 0x3236 JUMP JUMPDEST PUSH1 0x40 MLOAD DUP1 SWAP2 SUB SWAP1 REVERT JUMPDEST PUSH2 0x9F6 DUP4 PUSH1 0x4 SLOAD PUSH2 0x1DCE SWAP1 SWAP2 SWAP1 PUSH4 0xFFFFFFFF AND JUMP JUMPDEST PUSH1 0x4 DUP2 SWAP1 SSTORE POP PUSH2 0xA11 DUP4 PUSH1 0x6 SLOAD PUSH2 0x1E23 SWAP1 SWAP2 SWAP1 PUSH4 0xFFFFFFFF AND JUMP JUMPDEST PUSH1 0x6 DUP2 SWAP1 SSTORE POP PUSH1 0x0 PUSH1 0xB PUSH1 0x0 DUP7 PUSH20 0xFFFFFFFFFFFFFFFFFFFFFFFFFFFFFFFFFFFFFFFF AND PUSH20 0xFFFFFFFFFFFFFFFFFFFFFFFFFFFFFFFFFFFFFFFF AND DUP2 MSTORE PUSH1 0x20 ADD SWAP1 DUP2 MSTORE PUSH1 0x20 ADD PUSH1 0x0 KECCAK256 PUSH1 0x2 ADD DUP2 SWAP1 SSTORE POP PUSH2 0xAB4 DUP4 PUSH1 0xB PUSH1 0x0 DUP8 PUSH20 0xFFFFFFFFFFFFFFFFFFFFFFFFFFFFFFFFFFFFFFFF AND PUSH20 0xFFFFFFFFFFFFFFFFFFFFFFFFFFFFFFFFFFFFFFFF AND DUP2 MSTORE PUSH1 0x20 ADD SWAP1 DUP2 MSTORE PUSH1 0x20 ADD PUSH1 0x0 KECCAK256 PUSH1 0x1 ADD SLOAD PUSH2 0x1DCE SWAP1 SWAP2 SWAP1 PUSH4 0xFFFFFFFF AND JUMP JUMPDEST PUSH1 0xB PUSH1 0x0 DUP7 PUSH20 0xFFFFFFFFFFFFFFFFFFFFFFFFFFFFFFFFFFFFFFFF AND PUSH20 0xFFFFFFFFFFFFFFFFFFFFFFFFFFFFFFFFFFFFFFFF AND DUP2 MSTORE PUSH1 0x20 ADD SWAP1 DUP2 MSTORE PUSH1 0x20 ADD PUSH1 0x0 KECCAK256 PUSH1 0x1 ADD DUP2 SWAP1 SSTORE POP PUSH1 0x0 PUSH20 0xFFFFFFFFFFFFFFFFFFFFFFFFFFFFFFFFFFFFFFFF AND PUSH1 0x1 PUSH1 0x0 SWAP1 SLOAD SWAP1 PUSH2 0x100 EXP SWAP1 DIV PUSH20 0xFFFFFFFFFFFFFFFFFFFFFFFFFFFFFFFFFFFFFFFF AND PUSH20 0xFFFFFFFFFFFFFFFFFFFFFFFFFFFFFFFFFFFFFFFF AND EQ ISZERO PUSH2 0xBCA JUMPI CALLER PUSH20 0xFFFFFFFFFFFFFFFFFFFFFFFFFFFFFFFFFFFFFFFF AND PUSH2 0x8FC DUP5 SWAP1 DUP2 ISZERO MUL SWAP1 PUSH1 0x40 MLOAD PUSH1 0x0 PUSH1 0x40 MLOAD DUP1 DUP4 SUB DUP2 DUP6 DUP9 DUP9 CALL SWAP4 POP POP POP POP PUSH2 0xBC5 JUMPI PUSH1 0x40 MLOAD PUSH32 0x8C379A000000000000000000000000000000000000000000000000000000000 DUP2 MSTORE PUSH1 0x4 ADD PUSH2 0xBBC SWAP1 PUSH2 0x3316 JUMP JUMPDEST PUSH1 0x40 MLOAD DUP1 SWAP2 SUB SWAP1 REVERT JUMPDEST PUSH2 0xCD5 JUMP JUMPDEST PUSH1 0x1 PUSH1 0x0 SWAP1 SLOAD SWAP1 PUSH2 0x100 EXP SWAP1 DIV PUSH20 0xFFFFFFFFFFFFFFFFFFFFFFFFFFFFFFFFFFFFFFFF AND PUSH20 0xFFFFFFFFFFFFFFFFFFFFFFFFFFFFFFFFFFFFFFFF AND PUSH4 0xA9059CBB DUP6 DUP6 PUSH1 0x40 MLOAD DUP4 PUSH4 0xFFFFFFFF AND PUSH29 0x100000000000000000000000000000000000000000000000000000000 MUL DUP2 MSTORE PUSH1 0x4 ADD PUSH2 0xC43 SWAP3 SWAP2 SWAP1 PUSH2 0x31D2 JUMP JUMPDEST PUSH1 0x20 PUSH1 0x40 MLOAD DUP1 DUP4 SUB DUP2 PUSH1 0x0 DUP8 DUP1 EXTCODESIZE ISZERO DUP1 ISZERO PUSH2 0xC5D JUMPI PUSH1 0x0 DUP1 REVERT JUMPDEST POP GAS CALL ISZERO DUP1 ISZERO PUSH2 0xC71 JUMPI RETURNDATASIZE PUSH1 0x0 DUP1 RETURNDATACOPY RETURNDATASIZE PUSH1 0x0 REVERT JUMPDEST POP POP POP POP PUSH1 0x40 MLOAD RETURNDATASIZE PUSH1 0x1F NOT PUSH1 0x1F DUP3 ADD AND DUP3 ADD DUP1 PUSH1 0x40 MSTORE POP PUSH2 0xC95 SWAP2 SWAP1 DUP2 ADD SWAP1 PUSH2 0x225B JUMP JUMPDEST PUSH2 0xCD4 JUMPI PUSH1 0x40 MLOAD PUSH32 0x8C379A000000000000000000000000000000000000000000000000000000000 DUP2 MSTORE PUSH1 0x4 ADD PUSH2 0xCCB SWAP1 PUSH2 0x33D6 JUMP JUMPDEST PUSH1 0x40 MLOAD DUP1 SWAP2 SUB SWAP1 REVERT JUMPDEST JUMPDEST DUP4 PUSH20 0xFFFFFFFFFFFFFFFFFFFFFFFFFFFFFFFFFFFFFFFF AND PUSH32 0x27A391D95D67E3626574FB5FBE3532BB7366E9254957B1F0E840953C248B2AA8 DUP5 PUSH1 0x40 MLOAD PUSH2 0xD1B SWAP2 SWAP1 PUSH2 0x35F6 JUMP JUMPDEST PUSH1 0x40 MLOAD DUP1 SWAP2 SUB SWAP1 LOG2 PUSH1 0x1 SWAP2 POP PUSH1 0xD SLOAD DUP2 EQ PUSH2 0xD6B JUMPI PUSH1 0x40 MLOAD PUSH32 0x8C379A000000000000000000000000000000000000000000000000000000000 DUP2 MSTORE PUSH1 0x4 ADD PUSH2 0xD62 SWAP1 PUSH2 0x3576 JUMP JUMPDEST PUSH1 0x40 MLOAD DUP1 SWAP2 SUB SWAP1 REVERT JUMPDEST POP SWAP3 SWAP2 POP POP JUMP JUMPDEST PUSH1 0x7 SLOAD DUP2 JUMP JUMPDEST PUSH1 0x0 DUP1 PUSH1 0xC PUSH1 0x0 DUP5 PUSH20 0xFFFFFFFFFFFFFFFFFFFFFFFFFFFFFFFFFFFFFFFF AND PUSH20 0xFFFFFFFFFFFFFFFFFFFFFFFFFFFFFFFFFFFFFFFF AND DUP2 MSTORE PUSH1 0x20 ADD SWAP1 DUP2 MSTORE PUSH1 0x20 ADD PUSH1 0x0 KECCAK256 PUSH1 0x0 ADD SLOAD GT SWAP1 POP SWAP2 SWAP1 POP JUMP JUMPDEST PUSH1 0x0 DUP1 PUSH1 0xB PUSH1 0x0 DUP5 PUSH20 0xFFFFFFFFFFFFFFFFFFFFFFFFFFFFFFFFFFFFFFFF AND PUSH20 0xFFFFFFFFFFFFFFFFFFFFFFFFFFFFFFFFFFFFFFFF AND DUP2 MSTORE PUSH1 0x20 ADD SWAP1 DUP2 MSTORE PUSH1 0x20 ADD PUSH1 0x0 KECCAK256 PUSH1 0x0 ADD SLOAD GT SWAP1 POP SWAP2 SWAP1 POP JUMP JUMPDEST PUSH2 0xE1D CALLER PUSH2 0x1D63 JUMP JUMPDEST PUSH2 0xE5C JUMPI PUSH1 0x40 MLOAD PUSH32 0x8C379A000000000000000000000000000000000000000000000000000000000 DUP2 MSTORE PUSH1 0x4 ADD PUSH2 0xE53 SWAP1 PUSH2 0x3536 JUMP JUMPDEST PUSH1 0x40 MLOAD DUP1 SWAP2 SUB SWAP1 REVERT JUMPDEST PUSH2 0xE64 PUSH2 0x10BF JUMP JUMPDEST DUP2 GT ISZERO PUSH2 0xEA6 JUMPI PUSH1 0x40 MLOAD PUSH32 0x8C379A000000000000000000000000000000000000000000000000000000000 DUP2 MSTORE PUSH1 0x4 ADD PUSH2 0xE9D SWAP1 PUSH2 0x3296 JUMP JUMPDEST PUSH1 0x40 MLOAD DUP1 SWAP2 SUB SWAP1 REVERT JUMPDEST PUSH2 0xEBB DUP2 PUSH1 0x5 SLOAD PUSH2 0x1DCE SWAP1 SWAP2 SWAP1 PUSH4 0xFFFFFFFF AND JUMP JUMPDEST PUSH1 0x5 DUP2 SWAP1 SSTORE POP PUSH32 0x481131D4F3F5D97379F8D85B228D5CDF2A381A9666CA66D4B4094553A8E10AD0 DUP2 PUSH1 0x5 SLOAD PUSH1 0x40 MLOAD PUSH2 0xEF4 SWAP3 SWAP2 SWAP1 PUSH2 0x3611 JUMP JUMPDEST PUSH1 0x40 MLOAD DUP1 SWAP2 SUB SWAP1 LOG1 POP JUMP JUMPDEST PUSH1 0x0 DUP1 SWAP1 SLOAD SWAP1 PUSH2 0x100 EXP SWAP1 DIV PUSH20 0xFFFFFFFFFFFFFFFFFFFFFFFFFFFFFFFFFFFFFFFF AND DUP2 JUMP JUMPDEST PUSH1 0x9 SLOAD DUP2 JUMP JUMPDEST PUSH1 0xA PUSH1 0x0 SWAP1 SLOAD SWAP1 PUSH2 0x100 EXP SWAP1 DIV PUSH1 0xFF AND DUP2 JUMP JUMPDEST PUSH1 0xB PUSH1 0x20 MSTORE DUP1 PUSH1 0x0 MSTORE PUSH1 0x40 PUSH1 0x0 KECCAK256 PUSH1 0x0 SWAP2 POP SWAP1 POP DUP1 PUSH1 0x0 ADD SLOAD SWAP1 DUP1 PUSH1 0x1 ADD SLOAD SWAP1 DUP1 PUSH1 0x2 ADD SLOAD SWAP1 POP DUP4 JUMP JUMPDEST PUSH1 0xA PUSH1 0x0 SWAP1 SLOAD SWAP1 PUSH2 0x100 EXP SWAP1 DIV PUSH1 0xFF AND ISZERO PUSH2 0xFB7 JUMPI PUSH1 0x40 MLOAD PUSH32 0x8C379A000000000000000000000000000000000000000000000000000000000 DUP2 MSTORE PUSH1 0x4 ADD PUSH2 0xFAE SWAP1 PUSH2 0x32D6 JUMP JUMPDEST PUSH1 0x40 MLOAD DUP1 SWAP2 SUB SWAP1 REVERT JUMPDEST PUSH2 0xFC0 CALLER PUSH2 0x1D63 JUMP JUMPDEST PUSH2 0x1044 JUMPI PUSH1 0x0 PUSH1 0x7 SLOAD EQ ISZERO DUP1 ISZERO PUSH2 0xFD9 JUMPI POP TIMESTAMP PUSH1 0x7 SLOAD GT ISZERO JUMPDEST DUP1 ISZERO PUSH2 0xFE8 JUMPI POP PUSH1 0x2 SLOAD PUSH1 0x3 SLOAD LT JUMPDEST DUP1 PUSH2 0x1004 JUMPI POP PUSH1 0x0 PUSH1 0x8 SLOAD EQ ISZERO DUP1 ISZERO PUSH2 0x1003 JUMPI POP TIMESTAMP PUSH1 0x8 SLOAD GT ISZERO JUMPDEST JUMPDEST PUSH2 0x1043 JUMPI PUSH1 0x40 MLOAD PUSH32 0x8C379A000000000000000000000000000000000000000000000000000000000 DUP2 MSTORE PUSH1 0x4 ADD PUSH2 0x103A SWAP1 PUSH2 0x3356 JUMP JUMPDEST PUSH1 0x40 MLOAD DUP1 SWAP2 SUB SWAP1 REVERT JUMPDEST JUMPDEST PUSH1 0x1 PUSH1 0xA PUSH1 0x0 PUSH2 0x100 EXP DUP2 SLOAD DUP2 PUSH1 0xFF MUL NOT AND SWAP1 DUP4 ISZERO ISZERO MUL OR SWAP1 SSTORE POP PUSH32 0xE6E9DACF028BDCFDF84EF7BAE6711F8D6B15D47D98C1F9772447C1EA4BC0DD6 PUSH1 0x40 MLOAD PUSH1 0x40 MLOAD DUP1 SWAP2 SUB SWAP1 LOG1 JUMP JUMPDEST PUSH1 0x0 PUSH2 0x10BA PUSH1 0x5 SLOAD PUSH2 0x10AC PUSH1 0x4 SLOAD PUSH1 0x3 SLOAD PUSH2 0x1E23 SWAP1 SWAP2 SWAP1 PUSH4 0xFFFFFFFF AND JUMP JUMPDEST PUSH2 0x1E23 SWAP1 SWAP2 SWAP1 PUSH4 0xFFFFFFFF AND JUMP JUMPDEST SWAP1 POP SWAP1 JUMP JUMPDEST PUSH1 0x0 PUSH2 0x1100 PUSH1 0x6 SLOAD PUSH2 0x10F2 PUSH1 0x5 SLOAD PUSH2 0x10E4 PUSH1 0x4 SLOAD PUSH1 0x3 SLOAD PUSH2 0x1E23 SWAP1 SWAP2 SWAP1 PUSH4 0xFFFFFFFF AND JUMP JUMPDEST PUSH2 0x1E23 SWAP1 SWAP2 SWAP1 PUSH4 0xFFFFFFFF AND JUMP JUMPDEST PUSH2 0x1E23 SWAP1 SWAP2 SWAP1 PUSH4 0xFFFFFFFF AND JUMP JUMPDEST SWAP1 POP SWAP1 JUMP JUMPDEST PUSH2 0x110E CALLER PUSH2 0x1D63 JUMP JUMPDEST PUSH2 0x114D JUMPI PUSH1 0x40 MLOAD PUSH32 0x8C379A000000000000000000000000000000000000000000000000000000000 DUP2 MSTORE PUSH1 0x4 ADD PUSH2 0x1144 SWAP1 PUSH2 0x3536 JUMP JUMPDEST PUSH1 0x40 MLOAD DUP1 SWAP2 SUB SWAP1 REVERT JUMPDEST PUSH1 0x3 SLOAD PUSH1 0x2 SLOAD EQ PUSH2 0x1193 JUMPI PUSH1 0x40 MLOAD PUSH32 0x8C379A000000000000000000000000000000000000000000000000000000000 DUP2 MSTORE PUSH1 0x4 ADD PUSH2 0x118A SWAP1 PUSH2 0x3436 JUMP JUMPDEST PUSH1 0x40 MLOAD DUP1 SWAP2 SUB SWAP1 REVERT JUMPDEST PUSH1 0xA PUSH1 0x0 SWAP1 SLOAD SWAP1 PUSH2 0x100 EXP SWAP1 DIV PUSH1 0xFF AND ISZERO PUSH2 0x11E3 JUMPI PUSH1 0x40 MLOAD PUSH32 0x8C379A000000000000000000000000000000000000000000000000000000000 DUP2 MSTORE PUSH1 0x4 ADD PUSH2 0x11DA SWAP1 PUSH2 0x3396 JUMP JUMPDEST PUSH1 0x40 MLOAD DUP1 SWAP2 SUB SWAP1 REVERT JUMPDEST PUSH1 0x0 PUSH2 0x12D0 PUSH1 0xB PUSH1 0x0 DUP6 PUSH20 0xFFFFFFFFFFFFFFFFFFFFFFFFFFFFFFFFFFFFFFFF AND PUSH20 0xFFFFFFFFFFFFFFFFFFFFFFFFFFFFFFFFFFFFFFFF AND DUP2 MSTORE PUSH1 0x20 ADD SWAP1 DUP2 MSTORE PUSH1 0x20 ADD PUSH1 0x0 KECCAK256 PUSH1 0x2 ADD SLOAD PUSH2 0x12C2 PUSH1 0xB PUSH1 0x0 DUP8 PUSH20 0xFFFFFFFFFFFFFFFFFFFFFFFFFFFFFFFFFFFFFFFF AND PUSH20 0xFFFFFFFFFFFFFFFFFFFFFFFFFFFFFFFFFFFFFFFF AND DUP2 MSTORE PUSH1 0x20 ADD SWAP1 DUP2 MSTORE PUSH1 0x20 ADD PUSH1 0x0 KECCAK256 PUSH1 0x1 ADD SLOAD PUSH1 0xB PUSH1 0x0 DUP9 PUSH20 0xFFFFFFFFFFFFFFFFFFFFFFFFFFFFFFFFFFFFFFFF AND PUSH20 0xFFFFFFFFFFFFFFFFFFFFFFFFFFFFFFFFFFFFFFFF AND DUP2 MSTORE PUSH1 0x20 ADD SWAP1 DUP2 MSTORE PUSH1 0x20 ADD PUSH1 0x0 KECCAK256 PUSH1 0x0 ADD SLOAD PUSH2 0x1E23 SWAP1 SWAP2 SWAP1 PUSH4 0xFFFFFFFF AND JUMP JUMPDEST PUSH2 0x1E23 SWAP1 SWAP2 SWAP1 PUSH4 0xFFFFFFFF AND JUMP JUMPDEST SWAP1 POP DUP2 DUP2 LT ISZERO PUSH2 0x1315 JUMPI PUSH1 0x40 MLOAD PUSH32 0x8C379A000000000000000000000000000000000000000000000000000000000 DUP2 MSTORE PUSH1 0x4 ADD PUSH2 0x130C SWAP1 PUSH2 0x3336 JUMP JUMPDEST PUSH1 0x40 MLOAD DUP1 SWAP2 SUB SWAP1 REVERT JUMPDEST PUSH2 0x136A DUP3 PUSH1 0xB PUSH1 0x0 DUP7 PUSH20 0xFFFFFFFFFFFFFFFFFFFFFFFFFFFFFFFFFFFFFFFF AND PUSH20 0xFFFFFFFFFFFFFFFFFFFFFFFFFFFFFFFFFFFFFFFF AND DUP2 MSTORE PUSH1 0x20 ADD SWAP1 DUP2 MSTORE PUSH1 0x20 ADD PUSH1 0x0 KECCAK256 PUSH1 0x2 ADD SLOAD PUSH2 0x1DCE SWAP1 SWAP2 SWAP1 PUSH4 0xFFFFFFFF AND JUMP JUMPDEST PUSH1 0xB PUSH1 0x0 DUP6 PUSH20 0xFFFFFFFFFFFFFFFFFFFFFFFFFFFFFFFFFFFFFFFF AND PUSH20 0xFFFFFFFFFFFFFFFFFFFFFFFFFFFFFFFFFFFFFFFF AND DUP2 MSTORE PUSH1 0x20 ADD SWAP1 DUP2 MSTORE PUSH1 0x20 ADD PUSH1 0x0 KECCAK256 PUSH1 0x2 ADD DUP2 SWAP1 SSTORE POP PUSH2 0x13C5 DUP3 PUSH1 0x6 SLOAD PUSH2 0x1DCE SWAP1 SWAP2 SWAP1 PUSH4 0xFFFFFFFF AND JUMP JUMPDEST PUSH1 0x6 DUP2 SWAP1 SSTORE POP DUP3 PUSH20 0xFFFFFFFFFFFFFFFFFFFFFFFFFFFFFFFFFFFFFFFF AND PUSH32 0xC50ECC171765F66228B4DB8BF340AA2E9678006DC898FCFC34075AEC9B5570E4 DUP4 PUSH1 0x40 MLOAD PUSH2 0x1411 SWAP2 SWAP1 PUSH2 0x35F6 JUMP JUMPDEST PUSH1 0x40 MLOAD DUP1 SWAP2 SUB SWAP1 LOG2 POP POP POP JUMP JUMPDEST PUSH1 0x0 PUSH1 0x1 PUSH1 0xD PUSH1 0x0 DUP3 DUP3 SLOAD ADD SWAP3 POP POP DUP2 SWAP1 SSTORE POP PUSH1 0x0 PUSH1 0xD SLOAD SWAP1 POP PUSH1 0x0 PUSH2 0x14A5 PUSH1 0x3 SLOAD PUSH2 0x1497 PUSH1 0xE SLOAD PUSH1 0xC PUSH1 0x0 DUP10 PUSH20 0xFFFFFFFFFFFFFFFFFFFFFFFFFFFFFFFFFFFFFFFF AND PUSH20 0xFFFFFFFFFFFFFFFFFFFFFFFFFFFFFFFFFFFFFFFF AND DUP2 MSTORE PUSH1 0x20 ADD SWAP1 DUP2 MSTORE PUSH1 0x20 ADD PUSH1 0x0 KECCAK256 PUSH1 0x0 ADD SLOAD PUSH2 0x20EB SWAP1 SWAP2 SWAP1 PUSH4 0xFFFFFFFF AND JUMP JUMPDEST PUSH2 0x215B SWAP1 SWAP2 SWAP1 PUSH4 0xFFFFFFFF AND JUMP JUMPDEST SWAP1 POP PUSH1 0x0 PUSH2 0x14D2 PUSH1 0xE SLOAD PUSH2 0x14C4 DUP5 PUSH1 0x5 SLOAD PUSH2 0x20EB SWAP1 SWAP2 SWAP1 PUSH4 0xFFFFFFFF AND JUMP JUMPDEST PUSH2 0x215B SWAP1 SWAP2 SWAP1 PUSH4 0xFFFFFFFF AND JUMP JUMPDEST SWAP1 POP PUSH1 0xC PUSH1 0x0 DUP7 PUSH20 0xFFFFFFFFFFFFFFFFFFFFFFFFFFFFFFFFFFFFFFFF AND PUSH20 0xFFFFFFFFFFFFFFFFFFFFFFFFFFFFFFFFFFFFFFFF AND DUP2 MSTORE PUSH1 0x20 ADD SWAP1 DUP2 MSTORE PUSH1 0x20 ADD PUSH1 0x0 KECCAK256 PUSH1 0x1 ADD SLOAD DUP2 GT PUSH2 0x1558 JUMPI PUSH1 0x40 MLOAD PUSH32 0x8C379A000000000000000000000000000000000000000000000000000000000 DUP2 MSTORE PUSH1 0x4 ADD PUSH2 0x154F SWAP1 PUSH2 0x34B6 JUMP JUMPDEST PUSH1 0x40 MLOAD DUP1 SWAP2 SUB SWAP1 REVERT JUMPDEST PUSH2 0x15AD PUSH1 0xC PUSH1 0x0 DUP8 PUSH20 0xFFFFFFFFFFFFFFFFFFFFFFFFFFFFFFFFFFFFFFFF AND PUSH20 0xFFFFFFFFFFFFFFFFFFFFFFFFFFFFFFFFFFFFFFFF AND DUP2 MSTORE PUSH1 0x20 ADD SWAP1 DUP2 MSTORE PUSH1 0x20 ADD PUSH1 0x0 KECCAK256 PUSH1 0x1 ADD SLOAD DUP3 PUSH2 0x1E23 SWAP1 SWAP2 SWAP1 PUSH4 0xFFFFFFFF AND JUMP JUMPDEST SWAP1 POP PUSH2 0x1604 DUP2 PUSH1 0xC PUSH1 0x0 DUP9 PUSH20 0xFFFFFFFFFFFFFFFFFFFFFFFFFFFFFFFFFFFFFFFF AND PUSH20 0xFFFFFFFFFFFFFFFFFFFFFFFFFFFFFFFFFFFFFFFF AND DUP2 MSTORE PUSH1 0x20 ADD SWAP1 DUP2 MSTORE PUSH1 0x20 ADD PUSH1 0x0 KECCAK256 PUSH1 0x1 ADD SLOAD PUSH2 0x1DCE SWAP1 SWAP2 SWAP1 PUSH4 0xFFFFFFFF AND JUMP JUMPDEST PUSH1 0xC PUSH1 0x0 DUP8 PUSH20 0xFFFFFFFFFFFFFFFFFFFFFFFFFFFFFFFFFFFFFFFF AND PUSH20 0xFFFFFFFFFFFFFFFFFFFFFFFFFFFFFFFFFFFFFFFF AND DUP2 MSTORE PUSH1 0x20 ADD SWAP1 DUP2 MSTORE PUSH1 0x20 ADD PUSH1 0x0 KECCAK256 PUSH1 0x1 ADD DUP2 SWAP1 SSTORE POP PUSH1 0x0 PUSH20 0xFFFFFFFFFFFFFFFFFFFFFFFFFFFFFFFFFFFFFFFF AND PUSH1 0x1 PUSH1 0x0 SWAP1 SLOAD SWAP1 PUSH2 0x100 EXP SWAP1 DIV PUSH20 0xFFFFFFFFFFFFFFFFFFFFFFFFFFFFFFFFFFFFFFFF AND PUSH20 0xFFFFFFFFFFFFFFFFFFFFFFFFFFFFFFFFFFFFFFFF AND EQ ISZERO PUSH2 0x171A JUMPI CALLER PUSH20 0xFFFFFFFFFFFFFFFFFFFFFFFFFFFFFFFFFFFFFFFF AND PUSH2 0x8FC DUP3 SWAP1 DUP2 ISZERO MUL SWAP1 PUSH1 0x40 MLOAD PUSH1 0x0 PUSH1 0x40 MLOAD DUP1 DUP4 SUB DUP2 DUP6 DUP9 DUP9 CALL SWAP4 POP POP POP POP PUSH2 0x1715 JUMPI PUSH1 0x40 MLOAD PUSH32 0x8C379A000000000000000000000000000000000000000000000000000000000 DUP2 MSTORE PUSH1 0x4 ADD PUSH2 0x170C SWAP1 PUSH2 0x34F6 JUMP JUMPDEST PUSH1 0x40 MLOAD DUP1 SWAP2 SUB SWAP1 REVERT JUMPDEST PUSH2 0x1825 JUMP JUMPDEST PUSH1 0x1 PUSH1 0x0 SWAP1 SLOAD SWAP1 PUSH2 0x100 EXP SWAP1 DIV PUSH20 0xFFFFFFFFFFFFFFFFFFFFFFFFFFFFFFFFFFFFFFFF AND PUSH20 0xFFFFFFFFFFFFFFFFFFFFFFFFFFFFFFFFFFFFFFFF AND PUSH4 0xA9059CBB DUP7 DUP4 PUSH1 0x40 MLOAD DUP4 PUSH4 0xFFFFFFFF AND PUSH29 0x100000000000000000000000000000000000000000000000000000000 MUL DUP2 MSTORE PUSH1 0x4 ADD PUSH2 0x1793 SWAP3 SWAP2 SWAP1 PUSH2 0x31D2 JUMP JUMPDEST PUSH1 0x20 PUSH1 0x40 MLOAD DUP1 DUP4 SUB DUP2 PUSH1 0x0 DUP8 DUP1 EXTCODESIZE ISZERO DUP1 ISZERO PUSH2 0x17AD JUMPI PUSH1 0x0 DUP1 REVERT JUMPDEST POP GAS CALL ISZERO DUP1 ISZERO PUSH2 0x17C1 JUMPI RETURNDATASIZE PUSH1 0x0 DUP1 RETURNDATACOPY RETURNDATASIZE PUSH1 0x0 REVERT JUMPDEST POP POP POP POP PUSH1 0x40 MLOAD RETURNDATASIZE PUSH1 0x1F NOT PUSH1 0x1F DUP3 ADD AND DUP3 ADD DUP1 PUSH1 0x40 MSTORE POP PUSH2 0x17E5 SWAP2 SWAP1 DUP2 ADD SWAP1 PUSH2 0x225B JUMP JUMPDEST PUSH2 0x1824 JUMPI PUSH1 0x40 MLOAD PUSH32 0x8C379A000000000000000000000000000000000000000000000000000000000 DUP2 MSTORE PUSH1 0x4 ADD PUSH2 0x181B SWAP1 PUSH2 0x3556 JUMP JUMPDEST PUSH1 0x40 MLOAD DUP1 SWAP2 SUB SWAP1 REVERT JUMPDEST JUMPDEST DUP5 PUSH20 0xFFFFFFFFFFFFFFFFFFFFFFFFFFFFFFFFFFFFFFFF AND PUSH32 0xB6C0ECA8138E097D71E2DD31E19A1266487F0553F170B7260FFE68BCBE9FF8A7 DUP3 PUSH1 0x40 MLOAD PUSH2 0x186B SWAP2 SWAP1 PUSH2 0x35F6 JUMP JUMPDEST PUSH1 0x40 MLOAD DUP1 SWAP2 SUB SWAP1 LOG2 PUSH1 0x1 SWAP4 POP POP POP PUSH1 0xD SLOAD DUP2 EQ PUSH2 0x18BD JUMPI PUSH1 0x40 MLOAD PUSH32 0x8C379A000000000000000000000000000000000000000000000000000000000 DUP2 MSTORE PUSH1 0x4 ADD PUSH2 0x18B4 SWAP1 PUSH2 0x3576 JUMP JUMPDEST PUSH1 0x40 MLOAD DUP1 SWAP2 SUB SWAP1 REVERT JUMPDEST POP SWAP2 SWAP1 POP JUMP JUMPDEST PUSH1 0x8 SLOAD DUP2 JUMP JUMPDEST PUSH1 0x4 SLOAD DUP2 JUMP JUMPDEST PUSH1 0xC PUSH1 0x20 MSTORE DUP1 PUSH1 0x0 MSTORE PUSH1 0x40 PUSH1 0x0 KECCAK256 PUSH1 0x0 SWAP2 POP SWAP1 POP DUP1 PUSH1 0x0 ADD SLOAD SWAP1 DUP1 PUSH1 0x1 ADD SLOAD SWAP1 POP DUP3 JUMP JUMPDEST PUSH1 0x0 PUSH1 0x2 SLOAD PUSH1 0x3 SLOAD LT PUSH2 0x193B JUMPI PUSH1 0x40 MLOAD PUSH32 0x8C379A000000000000000000000000000000000000000000000000000000000 DUP2 MSTORE PUSH1 0x4 ADD PUSH2 0x1932 SWAP1 PUSH2 0x32F6 JUMP JUMPDEST PUSH1 0x40 MLOAD DUP1 SWAP2 SUB SWAP1 REVERT JUMPDEST PUSH1 0x1 PUSH1 0x0 SWAP1 SLOAD SWAP1 PUSH2 0x100 EXP SWAP1 DIV PUSH20 0xFFFFFFFFFFFFFFFFFFFFFFFFFFFFFFFFFFFFFFFF AND PUSH20 0xFFFFFFFFFFFFFFFFFFFFFFFFFFFFFFFFFFFFFFFF AND CALLER PUSH20 0xFFFFFFFFFFFFFFFFFFFFFFFFFFFFFFFFFFFFFFFF AND PUSH32 0xF26401E1DA8F4D9AE4148BDD6DCDB84393ACCC6E5429CAC89B82AF1F43E8FDED DUP5 PUSH1 0x40 MLOAD PUSH2 0x19BA SWAP2 SWAP1 PUSH2 0x35F6 JUMP JUMPDEST PUSH1 0x40 MLOAD DUP1 SWAP2 SUB SWAP1 LOG3 PUSH1 0x0 PUSH20 0xFFFFFFFFFFFFFFFFFFFFFFFFFFFFFFFFFFFFFFFF AND PUSH1 0x1 PUSH1 0x0 SWAP1 SLOAD SWAP1 PUSH2 0x100 EXP SWAP1 DIV PUSH20 0xFFFFFFFFFFFFFFFFFFFFFFFFFFFFFFFFFFFFFFFF AND PUSH20 0xFFFFFFFFFFFFFFFFFFFFFFFFFFFFFFFFFFFFFFFF AND EQ ISZERO PUSH2 0x1AD4 JUMPI DUP2 CALLVALUE EQ PUSH2 0x1A5B JUMPI PUSH1 0x40 MLOAD PUSH32 0x8C379A000000000000000000000000000000000000000000000000000000000 DUP2 MSTORE PUSH1 0x4 ADD PUSH2 0x1A52 SWAP1 PUSH2 0x3516 JUMP JUMPDEST PUSH1 0x40 MLOAD DUP1 SWAP2 SUB SWAP1 REVERT JUMPDEST CALLER PUSH20 0xFFFFFFFFFFFFFFFFFFFFFFFFFFFFFFFFFFFFFFFF AND PUSH2 0x8FC CALLVALUE SWAP1 DUP2 ISZERO MUL SWAP1 PUSH1 0x40 MLOAD PUSH1 0x0 PUSH1 0x40 MLOAD DUP1 DUP4 SUB DUP2 DUP6 DUP9 DUP9 CALL SWAP4 POP POP POP POP PUSH2 0x1ACF JUMPI PUSH1 0x40 MLOAD PUSH32 0x8C379A000000000000000000000000000000000000000000000000000000000 DUP2 MSTORE PUSH1 0x4 ADD PUSH2 0x1AC6 SWAP1 PUSH2 0x3596 JUMP JUMPDEST PUSH1 0x40 MLOAD DUP1 SWAP2 SUB SWAP1 REVERT JUMPDEST PUSH2 0x1D2E JUMP JUMPDEST PUSH1 0x0 CALLVALUE EQ PUSH2 0x1B17 JUMPI PUSH1 0x40 MLOAD PUSH32 0x8C379A000000000000000000000000000000000000000000000000000000000 DUP2 MSTORE PUSH1 0x4 ADD PUSH2 0x1B0E SWAP1 PUSH2 0x3276 JUMP JUMPDEST PUSH1 0x40 MLOAD DUP1 SWAP2 SUB SWAP1 REVERT JUMPDEST PUSH1 0x1 PUSH1 0x0 SWAP1 SLOAD SWAP1 PUSH2 0x100 EXP SWAP1 DIV PUSH20 0xFFFFFFFFFFFFFFFFFFFFFFFFFFFFFFFFFFFFFFFF AND PUSH20 0xFFFFFFFFFFFFFFFFFFFFFFFFFFFFFFFFFFFFFFFF AND PUSH4 0x23B872DD CALLER ADDRESS DUP6 PUSH1 0x40 MLOAD DUP5 PUSH4 0xFFFFFFFF AND PUSH29 0x100000000000000000000000000000000000000000000000000000000 MUL DUP2 MSTORE PUSH1 0x4 ADD PUSH2 0x1B92 SWAP4 SWAP3 SWAP2 SWAP1 PUSH2 0x3172 JUMP JUMPDEST PUSH1 0x20 PUSH1 0x40 MLOAD DUP1 DUP4 SUB DUP2 PUSH1 0x0 DUP8 DUP1 EXTCODESIZE ISZERO DUP1 ISZERO PUSH2 0x1BAC JUMPI PUSH1 0x0 DUP1 REVERT JUMPDEST POP GAS CALL ISZERO DUP1 ISZERO PUSH2 0x1BC0 JUMPI RETURNDATASIZE PUSH1 0x0 DUP1 RETURNDATACOPY RETURNDATASIZE PUSH1 0x0 REVERT JUMPDEST POP POP POP POP PUSH1 0x40 MLOAD RETURNDATASIZE PUSH1 0x1F NOT PUSH1 0x1F DUP3 ADD AND DUP3 ADD DUP1 PUSH1 0x40 MSTORE POP PUSH2 0x1BE4 SWAP2 SWAP1 DUP2 ADD SWAP1 PUSH2 0x225B JUMP JUMPDEST PUSH2 0x1C23 JUMPI PUSH1 0x40 MLOAD PUSH32 0x8C379A000000000000000000000000000000000000000000000000000000000 DUP2 MSTORE PUSH1 0x4 ADD PUSH2 0x1C1A SWAP1 PUSH2 0x33B6 JUMP JUMPDEST PUSH1 0x40 MLOAD DUP1 SWAP2 SUB SWAP1 REVERT JUMPDEST PUSH1 0x1 PUSH1 0x0 SWAP1 SLOAD SWAP1 PUSH2 0x100 EXP SWAP1 DIV PUSH20 0xFFFFFFFFFFFFFFFFFFFFFFFFFFFFFFFFFFFFFFFF AND PUSH20 0xFFFFFFFFFFFFFFFFFFFFFFFFFFFFFFFFFFFFFFFF AND PUSH4 0xA9059CBB CALLER DUP5 PUSH1 0x40 MLOAD DUP4 PUSH4 0xFFFFFFFF AND PUSH29 0x100000000000000000000000000000000000000000000000000000000 MUL DUP2 MSTORE PUSH1 0x4 ADD PUSH2 0x1C9C SWAP3 SWAP2 SWAP1 PUSH2 0x31A9 JUMP JUMPDEST PUSH1 0x20 PUSH1 0x40 MLOAD DUP1 DUP4 SUB DUP2 PUSH1 0x0 DUP8 DUP1 EXTCODESIZE ISZERO DUP1 ISZERO PUSH2 0x1CB6 JUMPI PUSH1 0x0 DUP1 REVERT JUMPDEST POP GAS CALL ISZERO DUP1 ISZERO PUSH2 0x1CCA JUMPI RETURNDATASIZE PUSH1 0x0 DUP1 RETURNDATACOPY RETURNDATASIZE PUSH1 0x0 REVERT JUMPDEST POP POP POP POP PUSH1 0x40 MLOAD RETURNDATASIZE PUSH1 0x1F NOT PUSH1 0x1F DUP3 ADD AND DUP3 ADD DUP1 PUSH1 0x40 MSTORE POP PUSH2 0x1CEE SWAP2 SWAP1 DUP2 ADD SWAP1 PUSH2 0x225B JUMP JUMPDEST PUSH2 0x1D2D JUMPI PUSH1 0x40 MLOAD PUSH32 0x8C379A000000000000000000000000000000000000000000000000000000000 DUP2 MSTORE PUSH1 0x4 ADD PUSH2 0x1D24 SWAP1 PUSH2 0x35D6 JUMP JUMPDEST PUSH1 0x40 MLOAD DUP1 SWAP2 SUB SWAP1 REVERT JUMPDEST JUMPDEST PUSH1 0x1 SWAP1 POP SWAP2 SWAP1 POP JUMP JUMPDEST PUSH1 0x5 SLOAD DUP2 JUMP JUMPDEST PUSH1 0x1 PUSH1 0x0 SWAP1 SLOAD SWAP1 PUSH2 0x100 EXP SWAP1 DIV PUSH20 0xFFFFFFFFFFFFFFFFFFFFFFFFFFFFFFFFFFFFFFFF AND DUP2 JUMP JUMPDEST PUSH1 0x0 DUP2 PUSH20 0xFFFFFFFFFFFFFFFFFFFFFFFFFFFFFFFFFFFFFFFF AND PUSH1 0x0 DUP1 SWAP1 SLOAD SWAP1 PUSH2 0x100 EXP SWAP1 DIV PUSH20 0xFFFFFFFFFFFFFFFFFFFFFFFFFFFFFFFFFFFFFFFF AND PUSH20 0xFFFFFFFFFFFFFFFFFFFFFFFFFFFFFFFFFFFFFFFF AND EQ SWAP1 POP SWAP2 SWAP1 POP JUMP JUMPDEST PUSH1 0x2 SLOAD DUP2 JUMP JUMPDEST PUSH1 0x6 SLOAD DUP2 JUMP JUMPDEST PUSH1 0x3 SLOAD DUP2 JUMP JUMPDEST PUSH1 0x0 DUP1 DUP3 DUP5 ADD SWAP1 POP DUP4 DUP2 LT ISZERO PUSH2 0x1E19 JUMPI PUSH1 0x40 MLOAD PUSH32 0x8C379A000000000000000000000000000000000000000000000000000000000 DUP2 MSTORE PUSH1 0x4 ADD PUSH2 0x1E10 SWAP1 PUSH2 0x3256 JUMP JUMPDEST PUSH1 0x40 MLOAD DUP1 SWAP2 SUB SWAP1 REVERT JUMPDEST DUP1 SWAP2 POP POP SWAP3 SWAP2 POP POP JUMP JUMPDEST PUSH1 0x0 DUP3 DUP3 GT ISZERO PUSH2 0x1E68 JUMPI PUSH1 0x40 MLOAD PUSH32 0x8C379A000000000000000000000000000000000000000000000000000000000 DUP2 MSTORE PUSH1 0x4 ADD PUSH2 0x1E5F SWAP1 PUSH2 0x32B6 JUMP JUMPDEST PUSH1 0x40 MLOAD DUP1 SWAP2 SUB SWAP1 REVERT JUMPDEST PUSH1 0x0 DUP3 DUP5 SUB SWAP1 POP DUP1 SWAP2 POP POP SWAP3 SWAP2 POP POP JUMP JUMPDEST DUP2 CALLVALUE EQ PUSH2 0x1EBB JUMPI PUSH1 0x40 MLOAD PUSH32 0x8C379A000000000000000000000000000000000000000000000000000000000 DUP2 MSTORE PUSH1 0x4 ADD PUSH2 0x1EB2 SWAP1 PUSH2 0x33F6 JUMP JUMPDEST PUSH1 0x40 MLOAD DUP1 SWAP2 SUB SWAP1 REVERT JUMPDEST PUSH1 0x0 CALLVALUE GT PUSH2 0x1EFE JUMPI PUSH1 0x40 MLOAD PUSH32 0x8C379A000000000000000000000000000000000000000000000000000000000 DUP2 MSTORE PUSH1 0x4 ADD PUSH2 0x1EF5 SWAP1 PUSH2 0x3496 JUMP JUMPDEST PUSH1 0x40 MLOAD DUP1 SWAP2 SUB SWAP1 REVERT JUMPDEST PUSH1 0x0 DUP2 GT ISZERO PUSH2 0x1F7C JUMPI CALLER PUSH20 0xFFFFFFFFFFFFFFFFFFFFFFFFFFFFFFFFFFFFFFFF AND PUSH2 0x8FC DUP3 SWAP1 DUP2 ISZERO MUL SWAP1 PUSH1 0x40 MLOAD PUSH1 0x0 PUSH1 0x40 MLOAD DUP1 DUP4 SUB DUP2 DUP6 DUP9 DUP9 CALL SWAP4 POP POP POP POP PUSH2 0x1F7B JUMPI PUSH1 0x40 MLOAD PUSH32 0x8C379A000000000000000000000000000000000000000000000000000000000 DUP2 MSTORE PUSH1 0x4 ADD PUSH2 0x1F72 SWAP1 PUSH2 0x3476 JUMP JUMPDEST PUSH1 0x40 MLOAD DUP1 SWAP2 SUB SWAP1 REVERT JUMPDEST JUMPDEST POP POP JUMP JUMPDEST PUSH1 0x0 CALLVALUE EQ PUSH2 0x1FC3 JUMPI PUSH1 0x40 MLOAD PUSH32 0x8C379A000000000000000000000000000000000000000000000000000000000 DUP2 MSTORE PUSH1 0x4 ADD PUSH2 0x1FBA SWAP1 PUSH2 0x3216 JUMP JUMPDEST PUSH1 0x40 MLOAD DUP1 SWAP2 SUB SWAP1 REVERT JUMPDEST PUSH1 0x0 PUSH2 0x1FD8 DUP3 DUP5 PUSH2 0x1E23 SWAP1 SWAP2 SWAP1 PUSH4 0xFFFFFFFF AND JUMP JUMPDEST SWAP1 POP PUSH1 0x1 PUSH1 0x0 SWAP1 SLOAD SWAP1 PUSH2 0x100 EXP SWAP1 DIV PUSH20 0xFFFFFFFFFFFFFFFFFFFFFFFFFFFFFFFFFFFFFFFF AND PUSH20 0xFFFFFFFFFFFFFFFFFFFFFFFFFFFFFFFFFFFFFFFF AND PUSH4 0x23B872DD CALLER ADDRESS DUP5 PUSH1 0x40 MLOAD DUP5 PUSH4 0xFFFFFFFF AND PUSH29 0x100000000000000000000000000000000000000000000000000000000 MUL DUP2 MSTORE PUSH1 0x4 ADD PUSH2 0x2055 SWAP4 SWAP3 SWAP2 SWAP1 PUSH2 0x3172 JUMP JUMPDEST PUSH1 0x20 PUSH1 0x40 MLOAD DUP1 DUP4 SUB DUP2 PUSH1 0x0 DUP8 DUP1 EXTCODESIZE ISZERO DUP1 ISZERO PUSH2 0x206F JUMPI PUSH1 0x0 DUP1 REVERT JUMPDEST POP GAS CALL ISZERO DUP1 ISZERO PUSH2 0x2083 JUMPI RETURNDATASIZE PUSH1 0x0 DUP1 RETURNDATACOPY RETURNDATASIZE PUSH1 0x0 REVERT JUMPDEST POP POP POP POP PUSH1 0x40 MLOAD RETURNDATASIZE PUSH1 0x1F NOT PUSH1 0x1F DUP3 ADD AND DUP3 ADD DUP1 PUSH1 0x40 MSTORE POP PUSH2 0x20A7 SWAP2 SWAP1 DUP2 ADD SWAP1 PUSH2 0x225B JUMP JUMPDEST PUSH2 0x20E6 JUMPI PUSH1 0x40 MLOAD PUSH32 0x8C379A000000000000000000000000000000000000000000000000000000000 DUP2 MSTORE PUSH1 0x4 ADD PUSH2 0x20DD SWAP1 PUSH2 0x34D6 JUMP JUMPDEST PUSH1 0x40 MLOAD DUP1 SWAP2 SUB SWAP1 REVERT JUMPDEST POP POP POP JUMP JUMPDEST PUSH1 0x0 DUP1 DUP4 EQ ISZERO PUSH2 0x20FE JUMPI PUSH1 0x0 SWAP1 POP PUSH2 0x2155 JUMP JUMPDEST PUSH1 0x0 DUP3 DUP5 MUL SWAP1 POP DUP3 DUP5 DUP3 DUP2 PUSH2 0x210F JUMPI INVALID JUMPDEST DIV EQ PUSH2 0x2150 JUMPI PUSH1 0x40 MLOAD PUSH32 0x8C379A000000000000000000000000000000000000000000000000000000000 DUP2 MSTORE PUSH1 0x4 ADD PUSH2 0x2147 SWAP1 PUSH2 0x3456 JUMP JUMPDEST PUSH1 0x40 MLOAD DUP1 SWAP2 SUB SWAP1 REVERT JUMPDEST DUP1 SWAP2 POP POP JUMPDEST SWAP3 SWAP2 POP POP JUMP JUMPDEST PUSH1 0x0 DUP1 DUP3 GT PUSH2 0x219F JUMPI PUSH1 0x40 MLOAD PUSH32 0x8C379A000000000000000000000000000000000000000000000000000000000 DUP2 MSTORE PUSH1 0x4 ADD PUSH2 0x2196 SWAP1 PUSH2 0x3376 JUMP JUMPDEST PUSH1 0x40 MLOAD DUP1 SWAP2 SUB SWAP1 REVERT JUMPDEST PUSH1 0x0 DUP3 DUP5 DUP2 PUSH2 0x21AA JUMPI INVALID JUMPDEST DIV SWAP1 POP DUP1 SWAP2 POP POP SWAP3 SWAP2 POP POP JUMP JUMPDEST PUSH1 0x0 DUP2 CALLDATALOAD SWAP1 POP PUSH2 0x21C6 DUP2 PUSH2 0x3700 JUMP JUMPDEST SWAP3 SWAP2 POP POP JUMP JUMPDEST PUSH1 0x0 DUP2 MLOAD SWAP1 POP PUSH2 0x21DB DUP2 PUSH2 0x3717 JUMP JUMPDEST SWAP3 SWAP2 POP POP JUMP JUMPDEST PUSH1 0x0 DUP2 CALLDATALOAD SWAP1 POP PUSH2 0x21F0 DUP2 PUSH2 0x372E JUMP JUMPDEST SWAP3 SWAP2 POP POP JUMP JUMPDEST PUSH1 0x0 PUSH1 0x20 DUP3 DUP5 SUB SLT ISZERO PUSH2 0x2208 JUMPI PUSH1 0x0 DUP1 REVERT JUMPDEST PUSH1 0x0 PUSH2 0x2216 DUP5 DUP3 DUP6 ADD PUSH2 0x21B7 JUMP JUMPDEST SWAP2 POP POP SWAP3 SWAP2 POP POP JUMP JUMPDEST PUSH1 0x0 DUP1 PUSH1 0x40 DUP4 DUP6 SUB SLT ISZERO PUSH2 0x2232 JUMPI PUSH1 0x0 DUP1 REVERT JUMPDEST PUSH1 0x0 PUSH2 0x2240 DUP6 DUP3 DUP7 ADD PUSH2 0x21B7 JUMP JUMPDEST SWAP3 POP POP PUSH1 0x20 PUSH2 0x2251 DUP6 DUP3 DUP7 ADD PUSH2 0x21E1 JUMP JUMPDEST SWAP2 POP POP SWAP3 POP SWAP3 SWAP1 POP JUMP JUMPDEST PUSH1 0x0 PUSH1 0x20 DUP3 DUP5 SUB SLT ISZERO PUSH2 0x226D JUMPI PUSH1 0x0 DUP1 REVERT JUMPDEST PUSH1 0x0 PUSH2 0x227B DUP5 DUP3 DUP6 ADD PUSH2 0x21CC JUMP JUMPDEST SWAP2 POP POP SWAP3 SWAP2 POP POP JUMP JUMPDEST PUSH1 0x0 PUSH1 0x20 DUP3 DUP5 SUB SLT ISZERO PUSH2 0x2296 JUMPI PUSH1 0x0 DUP1 REVERT JUMPDEST PUSH1 0x0 PUSH2 0x22A4 DUP5 DUP3 DUP6 ADD PUSH2 0x21E1 JUMP JUMPDEST SWAP2 POP POP SWAP3 SWAP2 POP POP JUMP JUMPDEST PUSH2 0x22B6 DUP2 PUSH2 0x36CA JUMP JUMPDEST DUP3 MSTORE POP POP JUMP JUMPDEST PUSH2 0x22C5 DUP2 PUSH2 0x3682 JUMP JUMPDEST DUP3 MSTORE POP POP JUMP JUMPDEST PUSH2 0x22D4 DUP2 PUSH2 0x3694 JUMP JUMPDEST DUP3 MSTORE POP POP JUMP JUMPDEST PUSH1 0x0 PUSH2 0x22E7 PUSH1 0x49 DUP4 PUSH2 0x3671 JUMP JUMPDEST SWAP2 POP PUSH32 0x66756E6457697468546F6B656E3A3A43757272656E6379204572726F722E2043 PUSH1 0x0 DUP4 ADD MSTORE PUSH32 0x616E6E6F742073656E6420457468657220746F206120746F6B656E2066756E64 PUSH1 0x20 DUP4 ADD MSTORE PUSH32 0x6564206772616E742E0000000000000000000000000000000000000000000000 PUSH1 0x40 DUP4 ADD MSTORE PUSH1 0x60 DUP3 ADD SWAP1 POP SWAP2 SWAP1 POP JUMP JUMPDEST PUSH1 0x0 PUSH2 0x2373 PUSH1 0x4E DUP4 PUSH2 0x3671 JUMP JUMPDEST SWAP2 POP PUSH32 0x77697468647261775061796F75743A3A496E76616C696420417267756D656E74 PUSH1 0x0 DUP4 ADD MSTORE PUSH32 0x2E206772616E746565207061796F7574417070726F76656420646F6573206E6F PUSH1 0x20 DUP4 ADD MSTORE PUSH32 0x74206D617463682076616C75652E000000000000000000000000000000000000 PUSH1 0x40 DUP4 ADD MSTORE PUSH1 0x60 DUP3 ADD SWAP1 POP SWAP2 SWAP1 POP JUMP JUMPDEST PUSH1 0x0 PUSH2 0x23FF PUSH1 0x1B DUP4 PUSH2 0x3671 JUMP JUMPDEST SWAP2 POP PUSH32 0x536166654D6174683A206164646974696F6E206F766572666C6F770000000000 PUSH1 0x0 DUP4 ADD MSTORE PUSH1 0x20 DUP3 ADD SWAP1 POP SWAP2 SWAP1 POP JUMP JUMPDEST PUSH1 0x0 PUSH2 0x243F PUSH1 0x42 DUP4 PUSH2 0x3671 JUMP JUMPDEST SWAP2 POP PUSH32 0x7369676E616C3A3A43757272656E6379204572726F722E2043616E6E6F742073 PUSH1 0x0 DUP4 ADD MSTORE PUSH32 0x656E6420457468657220746F206120746F6B656E2066756E646564206772616E PUSH1 0x20 DUP4 ADD MSTORE PUSH32 0x742E000000000000000000000000000000000000000000000000000000000000 PUSH1 0x40 DUP4 ADD MSTORE PUSH1 0x60 DUP3 ADD SWAP1 POP SWAP2 SWAP1 POP JUMP JUMPDEST PUSH1 0x0 PUSH2 0x24CB PUSH1 0x67 DUP4 PUSH2 0x3671 JUMP JUMPDEST SWAP2 POP PUSH32 0x617070726F7665526566756E643A3A496E76616C696420417267756D656E742E PUSH1 0x0 DUP4 ADD MSTORE PUSH32 0x20416D6F756E74206D757374206265206C657373207468616E206F7220657175 PUSH1 0x20 DUP4 ADD MSTORE PUSH32 0x616C20746F2074686520636F6E7472616374277320417661696C61626C652042 PUSH1 0x40 DUP4 ADD MSTORE PUSH32 0x616C616E63652E00000000000000000000000000000000000000000000000000 PUSH1 0x60 DUP4 ADD MSTORE PUSH1 0x80 DUP3 ADD SWAP1 POP SWAP2 SWAP1 POP JUMP JUMPDEST PUSH1 0x0 PUSH2 0x257D PUSH1 0x1E DUP4 PUSH2 0x3671 JUMP JUMPDEST SWAP2 POP PUSH32 0x536166654D6174683A207375627472616374696F6E206F766572666C6F770000 PUSH1 0x0 DUP4 ADD MSTORE PUSH1 0x20 DUP3 ADD SWAP1 POP SWAP2 SWAP1 POP JUMP JUMPDEST PUSH1 0x0 PUSH2 0x25BD PUSH1 0x2D DUP4 PUSH2 0x3671 JUMP JUMPDEST SWAP2 POP PUSH32 0x63616E63656C4772616E743A3A537461747573204572726F722E20416C726561 PUSH1 0x0 DUP4 ADD MSTORE PUSH32 0x64792063616E63656C6C65642E00000000000000000000000000000000000000 PUSH1 0x20 DUP4 ADD MSTORE PUSH1 0x40 DUP3 ADD SWAP1 POP SWAP2 SWAP1 POP JUMP JUMPDEST PUSH1 0x0 PUSH2 0x2623 PUSH1 0x51 DUP4 PUSH2 0x3671 JUMP JUMPDEST SWAP2 POP PUSH32 0x7369676E616C3A3A537461747573204572726F722E205369676E616C6C696E67 PUSH1 0x0 DUP4 ADD MSTORE PUSH32 0x206F6E6C79207065726D6974746564207072696F7220746F207265616368696E PUSH1 0x20 DUP4 ADD MSTORE PUSH32 0x672066756E64696E67207461726765742E000000000000000000000000000000 PUSH1 0x40 DUP4 ADD MSTORE PUSH1 0x60 DUP3 ADD SWAP1 POP SWAP2 SWAP1 POP JUMP JUMPDEST PUSH1 0x0 PUSH2 0x26AF PUSH1 0x40 DUP4 PUSH2 0x3671 JUMP JUMPDEST SWAP2 POP PUSH32 0x77697468647261775061796F75743A3A5472616E73666572204572726F722E20 PUSH1 0x0 DUP4 ADD MSTORE PUSH32 0x556E61626C6520746F2073656E642076616C756520746F204772616E7465652E PUSH1 0x20 DUP4 ADD MSTORE PUSH1 0x40 DUP3 ADD SWAP1 POP SWAP2 SWAP1 POP JUMP JUMPDEST PUSH1 0x0 PUSH2 0x2715 PUSH1 0x54 DUP4 PUSH2 0x3671 JUMP JUMPDEST SWAP2 POP PUSH32 0x617070726F76655061796F75743A3A496E76616C696420417267756D656E742E PUSH1 0x0 DUP4 ADD MSTORE PUSH32 0x2076616C75652063616E6E6F7420657863656564204772616E74656527732072 PUSH1 0x20 DUP4 ADD MSTORE PUSH32 0x656D61696E696E6720616C6C6F636174696F6E2E000000000000000000000000 PUSH1 0x40 DUP4 ADD MSTORE PUSH1 0x60 DUP3 ADD SWAP1 POP SWAP2 SWAP1 POP JUMP JUMPDEST PUSH1 0x0 PUSH2 0x27A1 PUSH1 0x6D DUP4 PUSH2 0x3671 JUMP JUMPDEST SWAP2 POP PUSH32 0x63616E63656C4772616E743A3A496E76616C69642053656E6465722E2053656E PUSH1 0x0 DUP4 ADD MSTORE PUSH32 0x646572206D757374206265206772616E74206D616E6167657220756E6C657373 PUSH1 0x20 DUP4 ADD MSTORE PUSH32 0x206772616E74206D69737365642066756E64696E67206F7220636F6E74726163 PUSH1 0x40 DUP4 ADD MSTORE PUSH32 0x742065787069726174696F6E2E00000000000000000000000000000000000000 PUSH1 0x60 DUP4 ADD MSTORE PUSH1 0x80 DUP3 ADD SWAP1 POP SWAP2 SWAP1 POP JUMP JUMPDEST PUSH1 0x0 PUSH2 0x2853 PUSH1 0x1A DUP4 PUSH2 0x3671 JUMP JUMPDEST SWAP2 POP PUSH32 0x536166654D6174683A206469766973696F6E206279207A65726F000000000000 PUSH1 0x0 DUP4 ADD MSTORE PUSH1 0x20 DUP3 ADD SWAP1 POP SWAP2 SWAP1 POP JUMP JUMPDEST PUSH1 0x0 PUSH2 0x2893 PUSH1 0x4A DUP4 PUSH2 0x3671 JUMP JUMPDEST SWAP2 POP PUSH32 0x617070726F76655061796F75743A3A537461747573204572726F722E2043616E PUSH1 0x0 DUP4 ADD MSTORE PUSH32 0x6E6F7420617070726F7665207061796D656E74206966206772616E7420697320 PUSH1 0x20 DUP4 ADD MSTORE PUSH32 0x63616E63656C6C65642E00000000000000000000000000000000000000000000 PUSH1 0x40 DUP4 ADD MSTORE PUSH1 0x60 DUP3 ADD SWAP1 POP SWAP2 SWAP1 POP JUMP JUMPDEST PUSH1 0x0 PUSH2 0x291F PUSH1 0x38 DUP4 PUSH2 0x3671 JUMP JUMPDEST SWAP2 POP PUSH32 0x7369676E616C3A3A5472616E73666572204572726F722E20455243323020746F PUSH1 0x0 DUP4 ADD MSTORE PUSH32 0x6B656E207472616E7366657246726F6D206661696C65642E0000000000000000 PUSH1 0x20 DUP4 ADD MSTORE PUSH1 0x40 DUP3 ADD SWAP1 POP SWAP2 SWAP1 POP JUMP JUMPDEST PUSH1 0x0 PUSH2 0x2985 PUSH1 0x3C DUP4 PUSH2 0x3671 JUMP JUMPDEST SWAP2 POP PUSH32 0x77697468647261775061796F75743A3A5472616E73666572204572726F722E20 PUSH1 0x0 DUP4 ADD MSTORE PUSH32 0x455243323020746F6B656E207472616E73666572206661696C65642E00000000 PUSH1 0x20 DUP4 ADD MSTORE PUSH1 0x40 DUP3 ADD SWAP1 POP SWAP2 SWAP1 POP JUMP JUMPDEST PUSH1 0x0 PUSH2 0x29EB PUSH1 0x76 DUP4 PUSH2 0x3671 JUMP JUMPDEST SWAP2 POP PUSH32 0x66756E645769746845746865723A3A496E76616C696420417267756D656E742E PUSH1 0x0 DUP4 ADD MSTORE PUSH32 0x2076616C7565206D75737420657175616C206D73672E76616C75652E20436F6E PUSH1 0x20 DUP4 ADD MSTORE PUSH32 0x7369646572207573696E67207468652066616C6C6261636B2066756E6374696F PUSH1 0x40 DUP4 ADD MSTORE PUSH32 0x6E20666F7220457468657220646F6E6174696F6E732E00000000000000000000 PUSH1 0x60 DUP4 ADD MSTORE PUSH1 0x80 DUP3 ADD SWAP1 POP SWAP2 SWAP1 POP JUMP JUMPDEST PUSH1 0x0 PUSH2 0x2A9D PUSH1 0x2F DUP4 PUSH2 0x3671 JUMP JUMPDEST SWAP2 POP PUSH32 0x66756E643A3A537461747573204572726F722E2046756E64696E672074617267 PUSH1 0x0 DUP4 ADD MSTORE PUSH32 0x657420616C7265616479206D65742E0000000000000000000000000000000000 PUSH1 0x20 DUP4 ADD MSTORE PUSH1 0x40 DUP3 ADD SWAP1 POP SWAP2 SWAP1 POP JUMP JUMPDEST PUSH1 0x0 PUSH2 0x2B03 PUSH1 0x4E DUP4 PUSH2 0x3671 JUMP JUMPDEST SWAP2 POP PUSH32 0x617070726F76655061796F75743A3A537461747573204572726F722E2043616E PUSH1 0x0 DUP4 ADD MSTORE PUSH32 0x6E6F7420617070726F7665207061796D656E742069662066756E64696E672074 PUSH1 0x20 DUP4 ADD MSTORE PUSH32 0x6172676574206E6F74206D65742E000000000000000000000000000000000000 PUSH1 0x40 DUP4 ADD MSTORE PUSH1 0x60 DUP3 ADD SWAP1 POP SWAP2 SWAP1 POP JUMP JUMPDEST PUSH1 0x0 PUSH2 0x2B8F PUSH1 0x21 DUP4 PUSH2 0x3671 JUMP JUMPDEST SWAP2 POP PUSH32 0x536166654D6174683A206D756C7469706C69636174696F6E206F766572666C6F PUSH1 0x0 DUP4 ADD MSTORE PUSH32 0x7700000000000000000000000000000000000000000000000000000000000000 PUSH1 0x20 DUP4 ADD MSTORE PUSH1 0x40 DUP3 ADD SWAP1 POP SWAP2 SWAP1 POP JUMP JUMPDEST PUSH1 0x0 PUSH2 0x2BF5 PUSH1 0x44 DUP4 PUSH2 0x3671 JUMP JUMPDEST SWAP2 POP PUSH32 0x66756E645769746845746865723A3A5472616E73666572204572726F722E2055 PUSH1 0x0 DUP4 ADD MSTORE PUSH32 0x6E61626C6520746F2073656E64206368616E6765206261636B20746F2073656E PUSH1 0x20 DUP4 ADD MSTORE PUSH32 0x6465722E00000000000000000000000000000000000000000000000000000000 PUSH1 0x40 DUP4 ADD MSTORE PUSH1 0x60 DUP3 ADD SWAP1 POP SWAP2 SWAP1 POP JUMP JUMPDEST PUSH1 0x0 PUSH2 0x2C81 PUSH1 0x3A DUP4 PUSH2 0x3671 JUMP JUMPDEST SWAP2 POP PUSH32 0x66756E645769746845746865723A3A496E76616C69642056616C75652E206D73 PUSH1 0x0 DUP4 ADD MSTORE PUSH32 0x672E76616C75652062652067726561746572207468616E20302E000000000000 PUSH1 0x20 DUP4 ADD MSTORE PUSH1 0x40 DUP3 ADD SWAP1 POP SWAP2 SWAP1 POP JUMP JUMPDEST PUSH1 0x0 PUSH2 0x2CE7 PUSH1 0x4D DUP4 PUSH2 0x3671 JUMP JUMPDEST SWAP2 POP PUSH32 0x7769746864726177526566756E643A3A4572726F722E20446F6E6F7220686173 PUSH1 0x0 DUP4 ADD MSTORE PUSH32 0x20616C72656164792077697468647261776E2063757272656E746C7920656C69 PUSH1 0x20 DUP4 ADD MSTORE PUSH32 0x6769626C6520726566756E642E00000000000000000000000000000000000000 PUSH1 0x40 DUP4 ADD MSTORE PUSH1 0x60 DUP3 ADD SWAP1 POP SWAP2 SWAP1 POP JUMP JUMPDEST PUSH1 0x0 PUSH2 0x2D73 PUSH1 0x36 DUP4 PUSH2 0x3671 JUMP JUMPDEST SWAP2 POP PUSH32 0x66756E643A3A5472616E73666572204572726F722E20455243323020746F6B65 PUSH1 0x0 DUP4 ADD MSTORE PUSH32 0x6E207472616E7366657246726F6D206661696C65642E00000000000000000000 PUSH1 0x20 DUP4 ADD MSTORE PUSH1 0x40 DUP3 ADD SWAP1 POP SWAP2 SWAP1 POP JUMP JUMPDEST PUSH1 0x0 PUSH2 0x2DD9 PUSH1 0x44 DUP4 PUSH2 0x3671 JUMP JUMPDEST SWAP2 POP PUSH32 0x7769746864726177526566756E643A3A5472616E73666572204572726F722E20 PUSH1 0x0 DUP4 ADD MSTORE PUSH32 0x556E61626C6520746F2073656E6420726566756E6456616C756520746F20446F PUSH1 0x20 DUP4 ADD MSTORE PUSH32 0x6E6F722E00000000000000000000000000000000000000000000000000000000 PUSH1 0x40 DUP4 ADD MSTORE PUSH1 0x60 DUP3 ADD SWAP1 POP SWAP2 SWAP1 POP JUMP JUMPDEST PUSH1 0x0 PUSH2 0x2E65 PUSH1 0x35 DUP4 PUSH2 0x3671 JUMP JUMPDEST SWAP2 POP PUSH32 0x7369676E616C3A3A496E76616C696420417267756D656E742E2076616C756520 PUSH1 0x0 DUP4 ADD MSTORE PUSH32 0x6D757374206D61746368206D73672E76616C75652E0000000000000000000000 PUSH1 0x20 DUP4 ADD MSTORE PUSH1 0x40 DUP3 ADD SWAP1 POP SWAP2 SWAP1 POP JUMP JUMPDEST PUSH1 0x0 PUSH2 0x2ECB PUSH1 0x46 DUP4 PUSH2 0x3671 JUMP JUMPDEST SWAP2 POP PUSH32 0x6F6E6C794D616E616765723A3A5065726D697373696F6E204572726F722E2046 PUSH1 0x0 DUP4 ADD MSTORE PUSH32 0x756E6374696F6E2063616E206F6E6C792062652063616C6C6564206279206D61 PUSH1 0x20 DUP4 ADD MSTORE PUSH32 0x6E616765722E0000000000000000000000000000000000000000000000000000 PUSH1 0x40 DUP4 ADD MSTORE PUSH1 0x60 DUP3 ADD SWAP1 POP SWAP2 SWAP1 POP JUMP JUMPDEST PUSH1 0x0 PUSH2 0x2F57 PUSH1 0x3C DUP4 PUSH2 0x3671 JUMP JUMPDEST SWAP2 POP PUSH32 0x7769746864726177526566756E643A3A5472616E73666572204572726F722E20 PUSH1 0x0 DUP4 ADD MSTORE PUSH32 0x455243323020746F6B656E207472616E73666572206661696C65642E00000000 PUSH1 0x20 DUP4 ADD MSTORE PUSH1 0x40 DUP3 ADD SWAP1 POP SWAP2 SWAP1 POP JUMP JUMPDEST PUSH1 0x0 PUSH2 0x2FBD PUSH1 0x1F DUP4 PUSH2 0x3671 JUMP JUMPDEST SWAP2 POP PUSH32 0x5265656E7472616E637947756172643A207265656E7472616E742063616C6C00 PUSH1 0x0 DUP4 ADD MSTORE PUSH1 0x20 DUP3 ADD SWAP1 POP SWAP2 SWAP1 POP JUMP JUMPDEST PUSH1 0x0 PUSH2 0x2FFD PUSH1 0x40 DUP4 PUSH2 0x3671 JUMP JUMPDEST SWAP2 POP PUSH32 0x7369676E616C3A3A5472616E73666572204572726F722E20556E61626C652074 PUSH1 0x0 DUP4 ADD MSTORE PUSH32 0x6F2073656E64206D73672E76616C7565206261636B20746F2073656E6465722E PUSH1 0x20 DUP4 ADD MSTORE PUSH1 0x40 DUP3 ADD SWAP1 POP SWAP2 SWAP1 POP JUMP JUMPDEST PUSH1 0x0 PUSH2 0x3063 PUSH1 0x52 DUP4 PUSH2 0x3671 JUMP JUMPDEST SWAP2 POP PUSH32 0x66756E643A3A44617465204572726F722E2066756E64696E6745787069726174 PUSH1 0x0 DUP4 ADD MSTORE PUSH32 0x696F6E206461746520686173207061737365642C2063616E6E6F742072656365 PUSH1 0x20 DUP4 ADD MSTORE PUSH32 0x697665206E657720646F6E6174696F6E732E0000000000000000000000000000 PUSH1 0x40 DUP4 ADD MSTORE PUSH1 0x60 DUP3 ADD SWAP1 POP SWAP2 SWAP1 POP JUMP JUMPDEST PUSH1 0x0 PUSH2 0x30EF PUSH1 0x34 DUP4 PUSH2 0x3671 JUMP JUMPDEST SWAP2 POP PUSH32 0x7369676E616C3A3A5472616E73666572204572726F722E20455243323020746F PUSH1 0x0 DUP4 ADD MSTORE PUSH32 0x6B656E207472616E73666572206661696C65642E000000000000000000000000 PUSH1 0x20 DUP4 ADD MSTORE PUSH1 0x40 DUP3 ADD SWAP1 POP SWAP2 SWAP1 POP JUMP JUMPDEST PUSH2 0x3151 DUP2 PUSH2 0x36C0 JUMP JUMPDEST DUP3 MSTORE POP POP JUMP JUMPDEST PUSH1 0x0 PUSH1 0x20 DUP3 ADD SWAP1 POP PUSH2 0x316C PUSH1 0x0 DUP4 ADD DUP5 PUSH2 0x22BC JUMP JUMPDEST SWAP3 SWAP2 POP POP JUMP JUMPDEST PUSH1 0x0 PUSH1 0x60 DUP3 ADD SWAP1 POP PUSH2 0x3187 PUSH1 0x0 DUP4 ADD DUP7 PUSH2 0x22AD JUMP JUMPDEST PUSH2 0x3194 PUSH1 0x20 DUP4 ADD DUP6 PUSH2 0x22AD JUMP JUMPDEST PUSH2 0x31A1 PUSH1 0x40 DUP4 ADD DUP5 PUSH2 0x3148 JUMP JUMPDEST SWAP5 SWAP4 POP POP POP POP JUMP JUMPDEST PUSH1 0x0 PUSH1 0x40 DUP3 ADD SWAP1 POP PUSH2 0x31BE PUSH1 0x0 DUP4 ADD DUP6 PUSH2 0x22AD JUMP JUMPDEST PUSH2 0x31CB PUSH1 0x20 DUP4 ADD DUP5 PUSH2 0x3148 JUMP JUMPDEST SWAP4 SWAP3 POP POP POP JUMP JUMPDEST PUSH1 0x0 PUSH1 0x40 DUP3 ADD SWAP1 POP PUSH2 0x31E7 PUSH1 0x0 DUP4 ADD DUP6 PUSH2 0x22BC JUMP JUMPDEST PUSH2 0x31F4 PUSH1 0x20 DUP4 ADD DUP5 PUSH2 0x3148 JUMP JUMPDEST SWAP4 SWAP3 POP POP POP JUMP JUMPDEST PUSH1 0x0 PUSH1 0x20 DUP3 ADD SWAP1 POP PUSH2 0x3210 PUSH1 0x0 DUP4 ADD DUP5 PUSH2 0x22CB JUMP JUMPDEST SWAP3 SWAP2 POP POP JUMP JUMPDEST PUSH1 0x0 PUSH1 0x20 DUP3 ADD SWAP1 POP DUP2 DUP2 SUB PUSH1 0x0 DUP4 ADD MSTORE PUSH2 0x322F DUP2 PUSH2 0x22DA JUMP JUMPDEST SWAP1 POP SWAP2 SWAP1 POP JUMP JUMPDEST PUSH1 0x0 PUSH1 0x20 DUP3 ADD SWAP1 POP DUP2 DUP2 SUB PUSH1 0x0 DUP4 ADD MSTORE PUSH2 0x324F DUP2 PUSH2 0x2366 JUMP JUMPDEST SWAP1 POP SWAP2 SWAP1 POP JUMP JUMPDEST PUSH1 0x0 PUSH1 0x20 DUP3 ADD SWAP1 POP DUP2 DUP2 SUB PUSH1 0x0 DUP4 ADD MSTORE PUSH2 0x326F DUP2 PUSH2 0x23F2 JUMP JUMPDEST SWAP1 POP SWAP2 SWAP1 POP JUMP JUMPDEST PUSH1 0x0 PUSH1 0x20 DUP3 ADD SWAP1 POP DUP2 DUP2 SUB PUSH1 0x0 DUP4 ADD MSTORE PUSH2 0x328F DUP2 PUSH2 0x2432 JUMP JUMPDEST SWAP1 POP SWAP2 SWAP1 POP JUMP JUMPDEST PUSH1 0x0 PUSH1 0x20 DUP3 ADD SWAP1 POP DUP2 DUP2 SUB PUSH1 0x0 DUP4 ADD MSTORE PUSH2 0x32AF DUP2 PUSH2 0x24BE JUMP JUMPDEST SWAP1 POP SWAP2 SWAP1 POP JUMP JUMPDEST PUSH1 0x0 PUSH1 0x20 DUP3 ADD SWAP1 POP DUP2 DUP2 SUB PUSH1 0x0 DUP4 ADD MSTORE PUSH2 0x32CF DUP2 PUSH2 0x2570 JUMP JUMPDEST SWAP1 POP SWAP2 SWAP1 POP JUMP JUMPDEST PUSH1 0x0 PUSH1 0x20 DUP3 ADD SWAP1 POP DUP2 DUP2 SUB PUSH1 0x0 DUP4 ADD MSTORE PUSH2 0x32EF DUP2 PUSH2 0x25B0 JUMP JUMPDEST SWAP1 POP SWAP2 SWAP1 POP JUMP JUMPDEST PUSH1 0x0 PUSH1 0x20 DUP3 ADD SWAP1 POP DUP2 DUP2 SUB PUSH1 0x0 DUP4 ADD MSTORE PUSH2 0x330F DUP2 PUSH2 0x2616 JUMP JUMPDEST SWAP1 POP SWAP2 SWAP1 POP JUMP JUMPDEST PUSH1 0x0 PUSH1 0x20 DUP3 ADD SWAP1 POP DUP2 DUP2 SUB PUSH1 0x0 DUP4 ADD MSTORE PUSH2 0x332F DUP2 PUSH2 0x26A2 JUMP JUMPDEST SWAP1 POP SWAP2 SWAP1 POP JUMP JUMPDEST PUSH1 0x0 PUSH1 0x20 DUP3 ADD SWAP1 POP DUP2 DUP2 SUB PUSH1 0x0 DUP4 ADD MSTORE PUSH2 0x334F DUP2 PUSH2 0x2708 JUMP JUMPDEST SWAP1 POP SWAP2 SWAP1 POP JUMP JUMPDEST PUSH1 0x0 PUSH1 0x20 DUP3 ADD SWAP1 POP DUP2 DUP2 SUB PUSH1 0x0 DUP4 ADD MSTORE PUSH2 0x336F DUP2 PUSH2 0x2794 JUMP JUMPDEST SWAP1 POP SWAP2 SWAP1 POP JUMP JUMPDEST PUSH1 0x0 PUSH1 0x20 DUP3 ADD SWAP1 POP DUP2 DUP2 SUB PUSH1 0x0 DUP4 ADD MSTORE PUSH2 0x338F DUP2 PUSH2 0x2846 JUMP JUMPDEST SWAP1 POP SWAP2 SWAP1 POP JUMP JUMPDEST PUSH1 0x0 PUSH1 0x20 DUP3 ADD SWAP1 POP DUP2 DUP2 SUB PUSH1 0x0 DUP4 ADD MSTORE PUSH2 0x33AF DUP2 PUSH2 0x2886 JUMP JUMPDEST SWAP1 POP SWAP2 SWAP1 POP JUMP JUMPDEST PUSH1 0x0 PUSH1 0x20 DUP3 ADD SWAP1 POP DUP2 DUP2 SUB PUSH1 0x0 DUP4 ADD MSTORE PUSH2 0x33CF DUP2 PUSH2 0x2912 JUMP JUMPDEST SWAP1 POP SWAP2 SWAP1 POP JUMP JUMPDEST PUSH1 0x0 PUSH1 0x20 DUP3 ADD SWAP1 POP DUP2 DUP2 SUB PUSH1 0x0 DUP4 ADD MSTORE PUSH2 0x33EF DUP2 PUSH2 0x2978 JUMP JUMPDEST SWAP1 POP SWAP2 SWAP1 POP JUMP JUMPDEST PUSH1 0x0 PUSH1 0x20 DUP3 ADD SWAP1 POP DUP2 DUP2 SUB PUSH1 0x0 DUP4 ADD MSTORE PUSH2 0x340F DUP2 PUSH2 0x29DE JUMP JUMPDEST SWAP1 POP SWAP2 SWAP1 POP JUMP JUMPDEST PUSH1 0x0 PUSH1 0x20 DUP3 ADD SWAP1 POP DUP2 DUP2 SUB PUSH1 0x0 DUP4 ADD MSTORE PUSH2 0x342F DUP2 PUSH2 0x2A90 JUMP JUMPDEST SWAP1 POP SWAP2 SWAP1 POP JUMP JUMPDEST PUSH1 0x0 PUSH1 0x20 DUP3 ADD SWAP1 POP DUP2 DUP2 SUB PUSH1 0x0 DUP4 ADD MSTORE PUSH2 0x344F DUP2 PUSH2 0x2AF6 JUMP JUMPDEST SWAP1 POP SWAP2 SWAP1 POP JUMP JUMPDEST PUSH1 0x0 PUSH1 0x20 DUP3 ADD SWAP1 POP DUP2 DUP2 SUB PUSH1 0x0 DUP4 ADD MSTORE PUSH2 0x346F DUP2 PUSH2 0x2B82 JUMP JUMPDEST SWAP1 POP SWAP2 SWAP1 POP JUMP JUMPDEST PUSH1 0x0 PUSH1 0x20 DUP3 ADD SWAP1 POP DUP2 DUP2 SUB PUSH1 0x0 DUP4 ADD MSTORE PUSH2 0x348F DUP2 PUSH2 0x2BE8 JUMP JUMPDEST SWAP1 POP SWAP2 SWAP1 POP JUMP JUMPDEST PUSH1 0x0 PUSH1 0x20 DUP3 ADD SWAP1 POP DUP2 DUP2 SUB PUSH1 0x0 DUP4 ADD MSTORE PUSH2 0x34AF DUP2 PUSH2 0x2C74 JUMP JUMPDEST SWAP1 POP SWAP2 SWAP1 POP JUMP JUMPDEST PUSH1 0x0 PUSH1 0x20 DUP3 ADD SWAP1 POP DUP2 DUP2 SUB PUSH1 0x0 DUP4 ADD MSTORE PUSH2 0x34CF DUP2 PUSH2 0x2CDA JUMP JUMPDEST SWAP1 POP SWAP2 SWAP1 POP JUMP JUMPDEST PUSH1 0x0 PUSH1 0x20 DUP3 ADD SWAP1 POP DUP2 DUP2 SUB PUSH1 0x0 DUP4 ADD MSTORE PUSH2 0x34EF DUP2 PUSH2 0x2D66 JUMP JUMPDEST SWAP1 POP SWAP2 SWAP1 POP JUMP JUMPDEST PUSH1 0x0 PUSH1 0x20 DUP3 ADD SWAP1 POP DUP2 DUP2 SUB PUSH1 0x0 DUP4 ADD MSTORE PUSH2 0x350F DUP2 PUSH2 0x2DCC JUMP JUMPDEST SWAP1 POP SWAP2 SWAP1 POP JUMP JUMPDEST PUSH1 0x0 PUSH1 0x20 DUP3 ADD SWAP1 POP DUP2 DUP2 SUB PUSH1 0x0 DUP4 ADD MSTORE PUSH2 0x352F DUP2 PUSH2 0x2E58 JUMP JUMPDEST SWAP1 POP SWAP2 SWAP1 POP JUMP JUMPDEST PUSH1 0x0 PUSH1 0x20 DUP3 ADD SWAP1 POP DUP2 DUP2 SUB PUSH1 0x0 DUP4 ADD MSTORE PUSH2 0x354F DUP2 PUSH2 0x2EBE JUMP JUMPDEST SWAP1 POP SWAP2 SWAP1 POP JUMP JUMPDEST PUSH1 0x0 PUSH1 0x20 DUP3 ADD SWAP1 POP DUP2 DUP2 SUB PUSH1 0x0 DUP4 ADD MSTORE PUSH2 0x356F DUP2 PUSH2 0x2F4A JUMP JUMPDEST SWAP1 POP SWAP2 SWAP1 POP JUMP JUMPDEST PUSH1 0x0 PUSH1 0x20 DUP3 ADD SWAP1 POP DUP2 DUP2 SUB PUSH1 0x0 DUP4 ADD MSTORE PUSH2 0x358F DUP2 PUSH2 0x2FB0 JUMP JUMPDEST SWAP1 POP SWAP2 SWAP1 POP JUMP JUMPDEST PUSH1 0x0 PUSH1 0x20 DUP3 ADD SWAP1 POP DUP2 DUP2 SUB PUSH1 0x0 DUP4 ADD MSTORE PUSH2 0x35AF DUP2 PUSH2 0x2FF0 JUMP JUMPDEST SWAP1 POP SWAP2 SWAP1 POP JUMP JUMPDEST PUSH1 0x0 PUSH1 0x20 DUP3 ADD SWAP1 POP DUP2 DUP2 SUB PUSH1 0x0 DUP4 ADD MSTORE PUSH2 0x35CF DUP2 PUSH2 0x3056 JUMP JUMPDEST SWAP1 POP SWAP2 SWAP1 POP JUMP JUMPDEST PUSH1 0x0 PUSH1 0x20 DUP3 ADD SWAP1 POP DUP2 DUP2 SUB PUSH1 0x0 DUP4 ADD MSTORE PUSH2 0x35EF DUP2 PUSH2 0x30E2 JUMP JUMPDEST SWAP1 POP SWAP2 SWAP1 POP JUMP JUMPDEST PUSH1 0x0 PUSH1 0x20 DUP3 ADD SWAP1 POP PUSH2 0x360B PUSH1 0x0 DUP4 ADD DUP5 PUSH2 0x3148 JUMP JUMPDEST SWAP3 SWAP2 POP POP JUMP JUMPDEST PUSH1 0x0 PUSH1 0x40 DUP3 ADD SWAP1 POP PUSH2 0x3626 PUSH1 0x0 DUP4 ADD DUP6 PUSH2 0x3148 JUMP JUMPDEST PUSH2 0x3633 PUSH1 0x20 DUP4 ADD DUP5 PUSH2 0x3148 JUMP JUMPDEST SWAP4 SWAP3 POP POP POP JUMP JUMPDEST PUSH1 0x0 PUSH1 0x60 DUP3 ADD SWAP1 POP PUSH2 0x364F PUSH1 0x0 DUP4 ADD DUP7 PUSH2 0x3148 JUMP JUMPDEST PUSH2 0x365C PUSH1 0x20 DUP4 ADD DUP6 PUSH2 0x3148 JUMP JUMPDEST PUSH2 0x3669 PUSH1 0x40 DUP4 ADD DUP5 PUSH2 0x3148 JUMP JUMPDEST SWAP5 SWAP4 POP POP POP POP JUMP JUMPDEST PUSH1 0x0 DUP3 DUP3 MSTORE PUSH1 0x20 DUP3 ADD SWAP1 POP SWAP3 SWAP2 POP POP JUMP JUMPDEST PUSH1 0x0 PUSH2 0x368D DUP3 PUSH2 0x36A0 JUMP JUMPDEST SWAP1 POP SWAP2 SWAP1 POP JUMP JUMPDEST PUSH1 0x0 DUP2 ISZERO ISZERO SWAP1 POP SWAP2 SWAP1 POP JUMP JUMPDEST PUSH1 0x0 PUSH20 0xFFFFFFFFFFFFFFFFFFFFFFFFFFFFFFFFFFFFFFFF DUP3 AND SWAP1 POP SWAP2 SWAP1 POP JUMP JUMPDEST PUSH1 0x0 DUP2 SWAP1 POP SWAP2 SWAP1 POP JUMP JUMPDEST PUSH1 0x0 PUSH2 0x36D5 DUP3 PUSH2 0x36DC JUMP JUMPDEST SWAP1 POP SWAP2 SWAP1 POP JUMP JUMPDEST PUSH1 0x0 PUSH2 0x36E7 DUP3 PUSH2 0x36EE JUMP JUMPDEST SWAP1 POP SWAP2 SWAP1 POP JUMP JUMPDEST PUSH1 0x0 PUSH2 0x36F9 DUP3 PUSH2 0x36A0 JUMP JUMPDEST SWAP1 POP SWAP2 SWAP1 POP JUMP JUMPDEST PUSH2 0x3709 DUP2 PUSH2 0x3682 JUMP JUMPDEST DUP2 EQ PUSH2 0x3714 JUMPI PUSH1 0x0 DUP1 REVERT JUMPDEST POP JUMP JUMPDEST PUSH2 0x3720 DUP2 PUSH2 0x3694 JUMP JUMPDEST DUP2 EQ PUSH2 0x372B JUMPI PUSH1 0x0 DUP1 REVERT JUMPDEST POP JUMP JUMPDEST PUSH2 0x3737 DUP2 PUSH2 0x36C0 JUMP JUMPDEST DUP2 EQ PUSH2 0x3742 JUMPI PUSH1 0x0 DUP1 REVERT JUMPDEST POP JUMP INVALID LOG3 PUSH6 0x627A7A723058 KECCAK256 ADD 0x5d 0xdc INVALID 0xef EXTCODEHASH PUSH7 0x379FA22B446F7B SWAP8 0xaa ISZERO 0x2e SWAP3 0x28 SWAP11 ISZERO 0xd1 PUSH26 0xACC1FAF89C2C990F6C6578706572696D656E74616CF564736F6C PUSH4 0x4300050A STOP BLOCKHASH LOG3 PUSH6 0x627A7A723058 KECCAK256 0xb6 PUSH27 0xD32C057BBC438CB41A9901B4E9C9164FB3C0259DC2C390FCAF9ADE DIV CREATE2 0x29 PUSH13 0x6578706572696D656E74616CF5 PUSH5 0x736F6C6343 STOP SDIV EXP STOP BLOCKHASH "
    }
  },
  "interface": [
    {
      "constant": false,
      "inputs": [
        {
          "name": "_grantees",
          "type": "address[]"
        },
        {
          "name": "_amounts",
          "type": "uint256[]"
        },
        {
          "name": "_manager",
          "type": "address"
        },
        {
          "name": "_currency",
          "type": "address"
        },
        {
          "name": "_targetFunding",
          "type": "uint256"
        },
        {
          "name": "_fundingExpiration",
          "type": "uint256"
        },
        {
          "name": "_contractExpiration",
          "type": "uint256"
        },
        {
          "name": "_extraData",
          "type": "bytes"
        }
      ],
      "name": "create",
      "outputs": [
        {
          "name": "",
          "type": "uint256"
        }
      ],
      "payable": false,
      "stateMutability": "nonpayable",
      "type": "function"
    },
    {
      "anonymous": false,
      "inputs": [
        {
          "indexed": true,
          "name": "id",
          "type": "uint256"
        },
        {
          "indexed": false,
          "name": "grant",
          "type": "address"
        }
      ],
      "name": "LogNewGrant",
      "type": "event"
    }
  ]
}